:020000040000FA
:10000000D0120010C9010000D10100001309000046
:10001000D5010000D7010000D90100000000000058
:10002000000000000000000000000000DB010000F4
:10003000DD01000000000000DF010000FD05000000
:1000400005020000E3010000E3010000E3010000FD
:10005000E301000091350000E30100006736000075
:100060003D370000E3010000E3010000E301000070
:10007000E3010000E3010000E3010000E3010000F0
:10008000E3010000E3010000E3010000E3010000E0
:10009000E3010000E3010000E3010000E3010000D0
:1000A000E30100008D3D0000E3010000E3010000DA
:1000B000E3010000E3010000E3010000E3010000B0
:1000C000E3010000E3010000E301000000F002F89A
:1000D00000F066F80AA090E8000C82448344AAF17C
:1000E0000107DA4501D100F05BF8AFF2090EBAE87A
:1000F0000F0013F0010F18BFFB1A43F0010318475C
:10010000BC830000EC8300000A4410F8014B14F09B
:100110000F0508BF10F8015B240908BF10F8014B58
:100120006D1E05D010F8013B6D1E01F8013BF9D1A1
:10013000641E03D0641E01F8015BFBD19142E4D33D
:10014000704700000023002400250026103A28BF35
:1001500078C1FBD8520728BF30C148BF0B60704739
:10016000662908F0C380642904F03887752904F0F3
:100170003587782904F06E87002070471FB500F09E
:10018000B9F804000020002107F05AFA401C606012
:100190000020002107F06AFAE0601FBD10B510BD15
:1001A00006F09AFA1146FFF7E9FF03F09DF906F011
:1001B000EDFC03B4FFF7F2FF03BC06F003FD000003
:1001C000D0F800D0D0F804F009488047094800472B
:1001D000FEE7FEE7FEE7FEE7FEE7FEE7FEE7FEE7F7
:1001E000FEE7FEE704480549034A054B7047000057
:1001F00001030000CD000000D0100010D01200104C
:10020000D01000104FF08040006820F004004FF044
:100210008041086012480068401C1149086070471E
:1002200000200F49086000BF01218140420992006F
:1002300002F1E022C2F8001100BF0A484FF08041ED
:10024000486003200860AA2088605520886001204B
:100250007047AA20410788605520886070470000D9
:10026000E80300106666060010B500F043F8001DB4
:1002700010BD00BFCD7300000FB41CB5074B06AA1C
:100280007B4469460090059805F04BFC00206946C8
:1002900005F05AFC1CBC5DF814FB0000C5580000BA
:1002A00070B5044685690068C10601D5302600E0B6
:1002B0002026C00707D070BDD4E901213046904701
:1002C000206A401C20626D1EF6D570BD70B50446D4
:1002D00085690078C00707D170BDD4E901212020CD
:1002E0009047206A401C20626D1EF6D570BD704795
:1002F00070477047004870478C100010FFFFFFFFE9
:1003000000202021874A116000BF8649096801F05A
:1003100040010029F9D00321824A9C3A11608249A8
:10032000824AC2F8A81182497E4A0C32116001212A
:100330007C4A943A11607F497C4A843211600121E1
:10034000121F1160AA21794A8C3211605521774A17
:10035000C2F88C10734994390968022908D000BF8B
:1003600072498831096801F080610029F8D004E001
:10037000002000E0401C6428FCD903216B4A803235
:100380001160AA21694AC2F88C105521674A8C3243
:1003900011602321654AA43211600121121F1160EE
:1003A000AA21624AAC3211605521116000BF5F4939
:1003B000A831096801F480610029F8D003215B4A63
:1003C000A0321160AA21594AC2F8AC105521574AEF
:1003D000AC3211605849554AC43211600021514A6B
:1003E0002832116044F23A01504A116070474F4878
:1003F00088300068C0F30160032860D14948943810
:10040000006800F0030030B1012820D0022839D064
:10041000032853D100E000BF444888300068C0F38F
:100420000E00401C41004148D0F88800C0F307404E
:10043000401CB1FBF0F0414948433A499C390968F6
:10044000C9B2491CB0FBF1F03D49086036E03748BD
:1004500088300068C0F30E00401C41003348D0F8DB
:100460008800C0F30740401CB1FBF0F03549484319
:100470002C499C390968C9B2491CB0FBF1F03049DC
:1004800008601BE0294888300068C0F30E00401C5B
:1004900041002648D0F88800C0F30740401CB1FB5B
:1004A000F0F04FF4FA4148431E499C390968C9B23B
:1004B000491CB0FBF1F02249086000BF30E0194848
:1004C0009438006800F0030030B1012810D00228F1
:1004D00019D0032823D100E000BF12489C380068DF
:1004E000C0B2401C1549B1FBF0F01549086016E098
:1004F0000C489C380068C0B2401C1249B1FBF0F0B7
:100500000F4908600BE007489C380068C0B2401CE7
:100510004FF4FA41B1FBF0F00949086000BF00BF99
:1005200070470000A0C10F404001110200C00F4001
:10053000000405003100020008F6200300093D0018
:1005400000010010001BB7000146080B102802D361
:100550000E2202EBD00070471FB5FA48007820B396
:10056000F848407808B304F097FCF0B1F6480078FA
:1005700000F00101F34880F82B10F3480078C0F335
:100580004001F04880F82C10EF480078C0F380015B
:10059000EC4880F82D10684604F085FCEB489DE897
:1005A0001E001EC0103803F074FE1FBD4FF4007013
:1005B000E749886340108863C001C8630846006A41
:1005C00040F0100008620846006A40F400700862BB
:1005D0000846006A40F4807008620846006A40F4E9
:1005E000806008620846006A40F48040086208465D
:1005F000006A40F4004008627047704710B500245C
:1006000004F068FBD3480068012805D9D148006888
:10061000401ED049086003E04FF47A70CD4908606D
:10062000CD480068012805D9CB480068401ECA495A
:10063000086002E06420C8490860C84800680128D2
:1006400005D9C6480068401EC449086002E00A2077
:10065000C2490860C2480068012805D9C04800683E
:10066000401EBF49086002E00520BD490860BD4842
:10067000006820B1BB480068401EBA490860BA480B
:10068000006820B1B8480068401EB7490860B74804
:10069000006820B1B5480068401EB4490860B448FD
:1006A000006820B1B2480068401EB1490860B148F6
:1006B000006820B1AF480068401EAE490860AE48EF
:1006C000006820B1AC480068401EAB490860AB48E8
:1006D000006820B1A9480068401EA8490860A848E1
:1006E000006820B1A6480068401EA5490860A548DA
:1006F000006820B1A3480068401EA2490860A248D3
:10070000006820B1A0480068401E9F4908609F48CB
:10071000006820B19D480068401E9C4908609C48C4
:10072000006820B19A480068401E994908609948BD
:10073000006820B197480068401E964908609648B6
:10074000006820B194480068401E934908609348AF
:10075000006820B191480068401E904908609048A8
:10076000006820B18E480068401E8D4908608D48A1
:10077000006820B18B480068401E8A4908608A489A
:10078000006820B188480068401E87490860874893
:10079000006820B185480068401E8449086084488C
:1007A000006820B182480068401E81490860814885
:1007B000006820B17F480068401E7E4908607E487E
:1007C000006820B17C480068401E7B4908607B4877
:1007D000006820B179480068401E78490860784870
:1007E000006820B176480068401E75490860754869
:1007F000006820B173480068401E72490860724862
:10080000006820B170480068401E6F4908606F485A
:10081000006820B16D480068401E6C4908606C4853
:10082000007820B16A480078401E6949087069481C
:10083000007820B167480078401E66490870664815
:10084000007820B164480078401E6349087063480E
:10085000007820B161480078401E6049087000248B
:100860000BE05F4850F8240030B15D4850F8240098
:10087000401E5B4941F82400641C0A2CF1DB002473
:1008800013E0C4EBC400574901EB8000406958B144
:10089000C4EBC40001EB80004069401EC4EBC401FE
:1008A000504A02EB81014861641C322CE9DB4E485E
:1008B0000068012827D14D48006801280FD14C4815
:1008C000006828B14A480068401E4949086006E0AF
:1008D0004848006848490860002044490860434887
:1008E000006898B94448006828B143480068401E31
:1008F000414908600AE0414800683D49086001201C
:100900003A49086002E000203849086004F094FA8F
:1009100010BD70472DE9FE4F0746884614461D4618
:10092000DDF830904146384607F036FB02D22846C3
:10093000BDE8FE8F2146384607F02EFC60D24846BF
:10094000F6E75DE03C1000107D030010A0CB07200F
:1009500000C00920A8020010A4020010AC02001080
:10096000B002001014030010AC010010A801001028
:10097000EC030010900200107C02001088020010AE
:100980001C020010C401001024030010F00300102A
:10099000F403001040020010480200101002001082
:1009A000140200102C01001030010010340100105E
:1009B000380100103C0100104001001044010010FB
:1009C0004C010010480100101C030010200300100F
:1009D000500100105101001052010010530100108D
:1009E00000C0072090D9072068030010640300109E
:1009F0005C03001058030010540300106003001043
:100A00002946484607F0FAFB41460290204607F087
:100A1000F5FB41460190384607F0F0FB0090019944
:100A200007F088F98346029907F0EAFA82462946D8
:100A300007F012F9064630467AE770B5FFF7D7FCA3
:100A4000F849B1F1807F00D31DE021F07F40401EC6
:100A50004FF0E022506150171F22002807DAD3061A
:100A60001D0EF14B00F00F04241F1D5503E0D306AB
:100A70001C0EEE4B1C5400BF00204FF0E022906192
:100A80000720106100BF4FF46131002002F0C1FE69
:100A90004FF4E131022002F0BCFE4FF4E1310320BB
:100AA00002F0B7FEFFF782FDE14803F0A1F9022052
:100AB00003F0CDFB70BD70B506460C46154623E02D
:100AC0006420DC49086004E0DA48006808B90020C6
:100AD00070BDD948C06900F480200028F4D04FF0E0
:100AE0000040D6490860D64800784FF0F85141EAF6
:100AF000004040EA062021780843D0494860084673
:100B000003F011F9641C6D1E002DD9D10120DFE71F
:100B100070B50446CB480068012802D0062815D1DC
:100B200009E0204604F0A4FC05462A4621460020A0
:100B300003F03AF80AE0204604F09AFC0546C24960
:100B400008782A462146FFF7B6FF00BF00BF70BDF8
:100B500010B5BE48BE490268BE4804F0F9FC00204A
:100B6000BC49BA4A12688854B8480168B84804F0C9
:100B700043FD0020B549086010BD2DE9F041044651
:100B80000D461646284604F073FC0746F0B23A4676
:100B90002946FFF790FFB048046008E0AFA1AC48D9
:100BA00004F054FC18B1FFF7D3FFBDE8F081AA4868
:100BB00000680028F2D100BFF7E710B5A8484078D8
:100BC000522824D1A74AA8A1A54804F00BFBA3A151
:100BD000A34804F06CFCA6A1A148001D04F036FC5B
:100BE000A449086098480068A34908609D480268C5
:100BF000A04801684FF47A70FFF7BFFF9E48006875
:100C0000914908609348FFF783FF012010BD002041
:100C1000FCE79A48006810B99948006810B19948F3
:100C2000007870479848006810B99848006810B17B
:100C300097480078F5E70020F3E79648006818B178
:100C400001209549087002E00020934908709348FC
:100C5000006860B192480068404220B14FF4004003
:100C60009049886303E04FF400408E49C86372489E
:100C7000806800F0800018B100206F49086088602B
:100C800000207047F0B504460025002026E0C0EBA8
:100C9000C006854F57F82660A6421ED1C0EBC0069D
:100CA00047F82640C0EBC00607EB8606B160C0EBF4
:100CB000C00607EB8606326140F6B836C0EBC007C7
:100CC000DFF8E4C10CEB87077E61C0EBC006674626
:100CD00007EB86067376012502E0401C3228D6DB3E
:100CE00000BF85BB00202BE0C0EBC0066E4F57F85D
:100CF00026602EB1C0EBC00607EB86067669F6B912
:100D0000C0EBC006684F47F82640C0EBC00607EBB3
:100D10008606B160C0EBC00607EB8606326140F67E
:100D2000B836C0EBC007DFF880C10CEB87077E61E7
:100D3000C0EBC006674607EB8606737602E0401CF0
:100D40003228D1DB00BFF0BD10B558A15848FFF7DD
:100D500093FA5748FFF7DCFE10BD10B53FA1544889
:100D6000FFF78AFA5248FFF7D3FE10BD70B504466C
:100D70003B484078462801D0012C51D1002C50D15D
:100D800000204C4908604C48006828B100214A48BE
:100D90000068401E324A1154484B494A49A1304824
:100DA00004F020FA4A49086008460068022803D087
:100DB000FFF7CAFF012070BD28E03E480068B0F58B
:100DC000807F00D123E03B4909683D4A02EB4100A6
:100DD000244A40A104F006FA3D4908602148007801
:100DE0003D49344A1268885439480068012804D1C2
:100DF00030480068B0F5807F03D9FFF7A5FF0120D8
:100E0000D9E72C480068401C2A490860D5E700BF94
:100E100028480068FF2861D8FFF796FF0120CAE73D
:100E2000D0E05BE09F86010018ED00E000E400E008
:100E300004C025009002001000400440D0CB0720E1
:100E40006C0200108C020010FC01001098020010CF
:100E500010CD072088DF0720880200100D0A00004F
:100E600028C0072054020010252A3463202575006D
:100E70002400000080020010F80100103001001072
:100E80003C01001025040010340100104001001046
:100E9000260400101C020010280200104803001055
:100EA0006403001000C0092090D907203F0D0A00FC
:100EB00088C90720C802001030020010DC020010B0
:100EC0008CD60720252A3463202573202575000041
:100ED000500200102532780000000010FB48FC4949
:100EE0000860FC4909680802FFF72EFBFA49086010
:100EF000F84800680002B0F5004F03D3FFF724FF65
:100F0000012058E772B6F5480078012820D047F64E
:100F1000FF70FFF719FB05462946002003F018FE75
:100F200020B162B6FFF710FF012044E747F6FF70DB
:100F3000FFF70AFB05462946002003F035FE20B1E5
:100F400062B6FFF701FF012035E70120E349087091
:100F5000E1480168006803F0FBFD20B162B6FFF7CD
:100F6000F3FE012027E7DB49096808024FF480728D
:100F7000D749096803F000FED949086008460068AF
:100F800020B162B6FFF7E0FE012014E7D1490968FD
:100F90000802D44B4FF48072CD49096803F073FE08
:100FA0000A2804D162B6FFF7CFFE012003E762B63C
:100FB000CDA1CE48FFF760F9CC48FFF7A9FDFFF7B8
:100FC000CCFE03E0FFF7C0FE0120F4E6C148006854
:100FD00010B90020C14908700120ECE610B5C348E3
:100FE0004078502832D1C248006828B10021C0485A
:100FF0000068401EBD4A1154BE4AAFF29411BB486E
:1010000004F0F0F8BC49086008460068012817D1D0
:10101000B8480068B9490860B9A1B448FFF72CF98D
:10102000B248FFF775FDFFF798FE0122B3491E2075
:1010300003F060FC0020B3490860FFF7C1F803E04B
:10104000FFF782FE012010BD0120FCE7FFF77CFEC8
:101050000120F8E7F0B5ADF2EC5D00240125A348CE
:10106000407852284CD100BF36E0C4EBC400A649FA
:1010700051F8200070B34DB904A8FFF749FDA3A1B2
:1010800004A8FFF7F9F804A8FFF742FD0025C4EB18
:10109000C4019D4A02EB8101886806F0B1FD064655
:1010A0000F46C4EBC400984901EB80000069C4EB13
:1010B000C401954A02EB81014969CDE90067CDE998
:1010C0000210C4EBC400114651F8202090A104A8DE
:1010D000FFF7D2F8601CC4B2322CC6DB3DB190A140
:1010E00004A8FFF7C9F804A8FFF712FD02E004A85E
:1010F000FFF70EFDFFF731FE01200DF2EC5DF0BDB4
:101100000020FAE770B57948407852285FD0572818
:101110007BD1784B884A89A1744804F063F87649FA
:1011200008600846006802284CD18348006800F532
:10113000F830040A80480578002605E006EB042014
:10114000007862498855761CFF2EF7DD69480078E3
:101150005E49485508465E4908602002FFF7F4F9E9
:101160005D49086072B65C480168006803F0F0FCF5
:1011700000B100BF58480168006803F015FD00B1D8
:1011800000BF55480168006803F0E2FC00B100BFF1
:1011900020024FF480724E49096803F0EDFC00B163
:1011A00000BF20024F4B4FF480724949096803F099
:1011B0006AFD0A2804D162B6FFF7C6FD002070BDA3
:1011C00062B603E0FFF7C0FD0120F8E700BF5A4A0E
:1011D000AFF26C31454804F005F84749086008460D
:1011E0000068012812D15448006800F5F23090F8E8
:1011F000000C40490860084653A102685448FFF7B4
:101200003BF85348FFF784FC02E003E0FFF79CFD46
:101210000120D4E70020D2E770B534484078522846
:1012200026D057284FD13248006828B100213048D5
:101230000068401E2D4A1154464B2E4A46A12B48A9
:1012400003F0D0FF2C4908600846006802280AD144
:10125000042240492748006803F04CFB38B9FFF7E7
:1012600073FD012070BDFFF76FFD0120FAE700BF9D
:101270001F48006828B100211D480068401E1B4A15
:1012800011541C4AAFF22041184803F0ABFF1A4931
:1012900008600846006801286CD104222D491548D1
:1012A000006803F039FB78B12A48006806F0A8FC12
:1012B000044622460B462BA12548FEF7DDFF2448B5
:1012C000FFF726FC58E059E050E053E00000001022
:1012D000C0020010DC020010E0020010BC0200108E
:1012E000D4020010CC0200104F4B000028C0072091
:1012F000300200105402001050020010940200103E
:101300004754420008ED00E090D907207C0000001F
:1013100025643B25312E34663B25643B2564000063
:101320004E455353554E2054414720414747414E67
:10133000434941544F00000068020010252A3463DD
:10134000202575202575000025750D0A0000000078
:1013500088C9072064020010252A346320257520DF
:101360002566000025660D0A00000000FFF7ECFC72
:10137000012077E7FFF7E8FC012073E7002071E721
:1013800010B5F6484078522827D0572854D1F44851
:10139000006828B10021F2480068401EEF4A11544D
:1013A000F04BF14AAFF26C01EC4803F01BFFEF4940
:1013B00008600846006802280AD10422E949EA4880
:1013C000006803F097FA38B9FFF7BEFC012010BDA2
:1013D000FFF7BAFC0120FAE700BFE148006828B136
:1013E0000021DF480068401EDC4A1154DE4AAFF29B
:1013F0008851DA4803F0F6FEDC49086008460068C8
:10140000012815D10422D749D748006803F084FA8F
:1014100050B1D448AFF2D0010268D548FEF72CFF96
:10142000D348FFF775FB05E0FFF78EFC0120CEE700
:10143000FFF78AFC0120CAE70020C8E710B5C748BB
:10144000407852282AD057285BD1C548006828B177
:101450000021C3480068401EC04A1154C14BC24A13
:10146000AFF22811BD4803F0BDFEC0490860084630
:10147000006802280DD1BB480078BA4908600122F3
:10148000B948006803F036FA38B9FFF75DFC01206F
:1014900010BDFFF759FC0120FAE700BFB048006813
:1014A00028B10021AE480068401EAC4A1154AE4A33
:1014B000AFF24C61A94803F095FEAC4908600846BC
:1014C0000068012819D10122A649A748006803F045
:1014D00023FA70B1A3480078A24908600846AFF229
:1014E00098110268A248FEF7C7FEA148FFF710FB5B
:1014F00005E0FFF729FC0120CAE7FFF725FC0120E2
:10150000C6E70020C4E710B594484078522862D05E
:1015100057287DD19248006828B100219048006882
:10152000401E8E4A1154934B934A94A18B4803F06A
:1015300059FE8E49086000208E4981F800028B48D0
:101540000068022842D1084603F092FFB0F5007F00
:101550003CD189480068B0F5806F37D8864800686C
:10156000B0F5FD7F04D984480068B0F5007F29D329
:10157000002085490860086016E0834909687D4AB3
:1015800002EB4100774AAFF2B46103F02BFE7749DA
:101590000860744801787D487B4A126881547A4813
:1015A0000068401C7849086077480068FF28E4D943
:1015B00076497148006803F0B2FA58B9FFF7C4FBE6
:1015C000012010BDFFF7C0FB0120FAE7FFF7BCFBCD
:1015D0000120F6E700BF6248006828B1002160489A
:1015E0000068401E5D4A11545E4AAFF284715B4848
:1015F00003F0F8FD5D4908600846006801282CD119
:1016000058480068B0F5806F27D85A49554800E01F
:1016100027E0006803F0E3F9D8B100205A490860D8
:101620000FE0544858490968425C59A15048FEF7F8
:1016300023FE4F48FFF76CFA53480068401C52499C
:10164000086051480068FF28EBD9FFF786FB0120AE
:10165000B7E7FFF779FB0120B3E7FFF775FB012040
:10166000AFE70020ADE708B53C48407852285AD093
:10167000572872D13A48006828B1002138480068DC
:10168000401E364A115440F201213A4803F0B4FF9B
:101690003848414B384A41A10090304803F0A2FD40
:1016A0003249086008460068032837D1314803F002
:1016B000DFFE39490968B1EB500F2FD13648006879
:1016C000B0F5007F2AD80020394908601FE038496A
:1016D0000968284A02EB4100224AAFF6080103F0EC
:1016E00081FD224908601F4800782849264A12686F
:1016F0008854214909682E4A12688818012219491C
:1017000003F0F8F82A480068401C29490860284876
:101710000068214909688842D9D303E0FFF714FB28
:10172000012008BD00BF0E48006828B100210C4808
:101730000068401E094A1154174B0F4AAFF204418A
:10174000064803F04FFD0949086008460068022872
:1017500052D100201649086044E051E028C007201B
:1017600030020010540200106802001050020010F5
:1017700088C907208CD607205C020010252A346314
:101780002025752025730000C802001000000010FD
:10179000253032780000000060020010252A3463F2
:1017A0002025752025752025353132730000000075
:1017B000B8020010FE490968FE4A12688818012222
:1017C000FD4903F0A9F8FC480278AFF23C01FB4860
:1017D000FEF752FDF948FFF79BF9F6480068401CF8
:1017E000F4490860F3480068F54909688842E1D384
:1017F000FFF7B3FA012094E7FFF7A6FA012090E77C
:1018000000208EE701464FF4F830405C70472DE928
:10181000F04706460A20FFF7F5FFFF280BD00A2005
:10182000FFF7F0FF814606F011F907460022E54B6D
:1018300005F078FF01E00020E349044605F02CFFA5
:10184000E24908600B20FFF7DDFFFF280BD00B20DB
:10185000FFF7D8FF814606F0F9F807460022D94B7A
:1018600005F060FF01E00020D949044605F014FFAF
:10187000D84908600C20FFF7C5FFFF280BD00C20CB
:10188000FFF7C0FF814606F0E1F807460022CD4B86
:1018900005F048FF01E00020CF49044605F0FCFEBA
:1018A000CE4908600D20FFF7ADFFFF280BD00D20BB
:1018B000FFF7A8FF814606F0C9F807460022C14B92
:1018C00005F030FF01E00020C549044605F0E4FEC4
:1018D000C44908600E20FFF795FFFF280BD00E20AB
:1018E000FFF790FF814606F0B1F807460022B54B9E
:1018F00005F018FF01E00020BB49044605F0CCFECE
:10190000BA4908600F20FFF77DFFFF2803D00F20A2
:10191000FFF778FF00E00020B54908601020FFF7CE
:1019200071FFFF2803D01020FFF76CFF00E00120BB
:10193000B04908601120FFF765FFFF2803D0112090
:10194000FFF760FF00E00120AB4908601220FFF7BD
:1019500059FFFF2803D01220FFF754FF00E00020BA
:10196000A64908701620FFF74DFFFF2803D0162068
:10197000FFF748FF00E00020A14908701720FFF79B
:1019800041FFFF2803D01720FFF73CFF00E00020B5
:101990009C4908701820FFF735FFFF2803D0182056
:1019A000FFF730FF00E00020974908601920FFF79B
:1019B00029FFFF2804D01920FFF724FF000200E0D0
:1019C00000209149096808438F4908601A20FFF7F1
:1019D00019FFFF2804D01A20FFF714FF000400E0CD
:1019E0000020894909680843874908601B20FFF7E0
:1019F00009FFFF2804D01B20FFF704FF000600E0CA
:101A000000208149096808437F4908601C20FFF7CE
:101A1000F9FEFF2803D01C20FFF7F4FE00E00020B1
:101A20007A4908601D20FFF7EDFEFF2804D01D2035
:101A3000FFF7E8FE000200E000207449096808434F
:101A4000724908601E20FFF7DDFEFF2804D01E202B
:101A5000FFF7D8FE000400E000206C490968084345
:101A60006A4908601F20FFF7CDFEFF2804D01F2021
:101A7000FFF7C8FE000600E000206449096808433B
:101A8000624908602020FFF7BDFEFF2803D0202018
:101A9000FFF7B8FE00E000205D4908602120FFF755
:101AA000B1FEFF2804D02120FFF7ACFE000200E0C9
:101AB0000020574909680843554908602220FFF76C
:101AC000A1FEFF2804D02220FFF79CFE000400E0C6
:101AD00000204F49096808434D4908602320FFF75B
:101AE00091FEFF2804D02320FFF78CFE000600E0C3
:101AF000002047490968084345490860454800688F
:101B000020B1012044490860444908604448006805
:101B100010B10120434908602820FFF773FE4249B5
:101B2000087008460078FF2801D10D200870292090
:101B3000FFF768FE3D49087008460078FF2801D18C
:101B4000002008702A20FFF75DFE3949087008461A
:101B50000078FF2801D1012008700120BDE8F0873E
:101B600010B5344840784C2806D10120FFF74FFECD
:101B7000FFF7F3F8012010BD0020FCE700B585B0A9
:101B80002C48407852286ED12B48817C407C2A4AD0
:101B9000127C294BDB7BCDE90132CDE903012648DC
:101BA000807B00902448437B027B24A1034852E0C1
:101BB0005C020010B80200105802001088C907200B
:101BC00060020010000024400000F83F18010010DF
:101BD000000008401C010010000018402001001007
:101BE00000001040240100100000204028010010D7
:101BF000480300104C030010500300106C03001049
:101C00007C0300107D0300107003001074030010AB
:101C100078030010580100109C010010880100108A
:101C20005C0100109801001008010010090100106B
:101C30006801001028C007203C10001025757C2585
:101C4000757C25757C25757C25757C25757C2575B1
:101C50000D0A000007E0FEF70FFBFD48FEF758FFF6
:101C6000012005B000BD0020FBE738B500240020AE
:101C70000090F8484078522826D100BF05E0A01D0A
:101C8000FFF7C0FD0DF80400641C042CF7DB9DF881
:101C9000000000069DF8011040EA01409DF8021086
:101CA00040EA01209DF803100843EB49086008460C
:101CB000EAA10268E648FEF7DFFAE548FEF728FFEA
:101CC000FFF74BF8012038BD0020FCE708B50020E5
:101CD0000090E7A1DF4803F0B9FBE649086010B3C4
:101CE0006A46E5A1E348006803F07CFAE44908602D
:101CF00008460068012807D1DFA1D548009AFEF701
:101D0000BBFAD348FEF704FF07E0DA480168006831
:101D1000401CD84A106000200870D648006800783F
:101D20000028F2D12AE003E0D248006800210170C7
:101D3000D4A1C84803F08AFBCE4908600028F3D13B
:101D400003E0CC48006800210170CFA1C14803F036
:101D50007DFBC84908600028F3D107E0BD4803F0C7
:101D600087FB401EBB49084400210170B94803F0BD
:101D70007FFB401EB749085C2028EFD0B54880782B
:101D8000302806D0382856D0392856D0502866D169
:101D900052E0B048C078302803D1FFF766FF002832
:101DA00048D1AC48C078312803D1FFF7E7FE0028BE
:101DB00040D1A848C078322802D1FFF7D1FEC8BB75
:101DC000A448C078352802D1FFF74DFC90BBA1484C
:101DD000C078362802D1FFF796FB58BB9D48C078E3
:101DE000372802D1FFF72AFB20BB9A48C078382851
:101DF00002D1FFF7C5FAE8B99648C078392802D170
:101E0000FFF70AFAB0B99348C078462802D1FFF725
:101E100079F978B98F48C078522802D1FEF7CDFE03
:101E200040B98C48C078542802D1FFF713F908B99B
:101E3000FEF78AFF16E015E014E08648C0783028E7
:101E400002D1FFF7CBF848B98248C078322803D1D5
:101E50000020FEF78BFF08B9FEF776FF02E0FEF7E1
:101E600073FF00BF00BF00208849086079490870EF
:101E700048708870C87008718549087008BD2DE9E0
:101E8000F04F8BB08146B9F1000F7DD181A182481E
:101E900003F0DCFA8246BAF1000F05D07AA1504671
:101EA00003F0D4FA834601E04FF0000BBAF1000FC3
:101EB0006AD0BBF1000FFBD07848006800287DD0C5
:101EC0000620774948607CE0734876490968405CA1
:101ED0007549087075480078E8B96D480078D0B940
:101EE00008460078242816D10020684908606E480A
:101EF00000785849654A1268885464480068401C54
:101F00006249086000205349604A126888540120E1
:101F10006649087049E065480078012845D1FEF718
:101F2000A3F9006860490978405C00F03E0058B9A8
:101F30005D4800780D2807D05B4800780A2803D058
:101F40005948007808280FD15748007841494F4A2E
:101F5000126888544D480068401C4C4908600021B4
:101F60003C484A4A126881544F4800780D2810D1E5
:101F700001204749087000204C49087001204C4955
:101F800008604FF4966200E02AE03249494803F0C5
:101F9000DFFA3E480068B0F5966F06D300203C4952
:101FA00008703A490860414908703E480068401C82
:101FB0003C49086039480068401E00E00BE03749A2
:101FC00008603648006800287FF47EAF3549086015
:101FD0000720334948602E48007808B1FFF776FEA5
:101FE000B9F1020F7ED12BA1334803F02FFA064638
:101FF0002EB125A1304603F029FA054600E0002560
:10200000EDE0002E6FD0002DFCD006202B4948605B
:1020100005AA2BA1304603F0E5F819490860059898
:1020200030B9012028490860002028490860A5E04F
:102030000598012868D12648264B244A26A10090FD
:10204000304603F0CFF80E490860204800684BE0A6
:1020500088C9072028C0072070020010555748463D
:102060004D7C312E332E307C253038750000000039
:102070007E433A00800200107E433A25750000003E
:10208000500200100A0000000D0000003002001095
:102090002A020010240000003C040010B8030010C5
:1020A00000C0004034020010380200102902001065
:1020B0008C020010D8C407203C08001000800940A2
:1020C0002425752C00000000A00100105C01001008
:1020D000780100107401001024312C25752C257511
:1020E0002C25750085E077E0002847D00020F749CF
:1020F0000860F7480078012840D1F6490860F649A1
:102100000860F649086039E00598022836D107A82A
:1021100008A909AA06ABCDE9002102900AAAF0A1FC
:10212000304603F05FF8F349086008460068052868
:1021300024D1069810B30698FF281FD8069805F0FA
:1021400085FC0022EC4BCDE9000105F0EBFACDE96E
:10215000020105F0A1FA04904FF47A70E749089A59
:1021600041F822000798C3B2DDE909200499FEF77F
:1021700089FDE3480068401CE1490860681C841B35
:10218000E048281A00F20140021B691CDD4803F0F8
:102190009AF9DD49081B214603F00CFADB48006878
:1021A000A04205D3D9480068001BD849086002E066
:1021B0000020D649086000260025AFF22811D1483A
:1021C00003F044F9064636B1AFF24411304603F04D
:1021D0003DF9054600E000250720CD494860002E66
:1021E00006D0002DFCD0C948006800287FF409AF54
:1021F000C3E0B9F1030FFBD1AFF26811C54803F09A
:1022000025F98046B8F1000F06D0AFF284114046A0
:1022100003F01CF9074600E00027A2E00620BE49B3
:10222000486005AAAFF26811404602F0DBFFB149F1
:102230000860059840B90120B8490860A5490860C0
:102240000020B74908605AE0059801281BD1B5481D
:10225000B54BB34AAFF280110090404602F0C2FF86
:10226000A4490860AE480068F0B30020AB4908609C
:1022700097480078012842D197490860AB49086027
:10228000AB4908603BE00598022838D107A808A9A7
:1022900009AA06ABCDE9002102900AAA90A1404606
:1022A00002F0A0FF9349086008460068052826D17F
:1022B0000698C8B10698FF2821D8069805F0C6FBF5
:1022C00000228D4BCDE9000105F02CFACDE9020189
:1022D00005F0E2F904904FF47A708849089A41F8C1
:1022E00022000798C3B200E009E0DDE90920049963
:1022F000FEF7C8FC82480068401C81490860781CD1
:10230000A0EB08048348381A00F20140021B791C34
:10231000804803F0D8F88749081B214603F04AF9A2
:1023200085480068A04205D383480068001B8249A5
:10233000086002E00020804908604FF00008002794
:10234000AFF2B021734803F081F88046B8F1000F76
:1023500006D0AFF2CC21404603F078F8074600E003
:102360000027B8F1000F05D027B173480068002896
:102370007FF454AF0720684948600BB0BDE8F08F88
:1023800038B505466D484078522828D16B466C4ACE
:102390006C496A4802F026FF564908600846006802
:1023A000022818D100240FE065480068005D6649E6
:1023B000087008460278AFF628416448FDF75CFFD4
:1023C0006248FEF7A5FB641C00988442ECD3FEF73C
:1023D000C4FC012038BDFEF7B7FC0120FAE7FEF788
:1023E000B3FC0120F6E770475949086000BF58491F
:1023F00009680029FBD1704710B55648006800B93C
:1024000010BDAFF27031544803F020F85349086012
:10241000AFF2C471504803F019F8514908600846FA
:10242000006820B14D48006808B9FEF791FB4B48A1
:102430000068F8B14A480068E0B149480068474977
:102440000968421A44493D4803F082F8FEF780FBD0
:10245000002043490968414A1268891A374A505492
:10246000062040490860FFF731FC00203B49086026
:102470003B49086000BFC3E72DE9F04F8DB03A48F3
:102480000078002821D139480068B8B91048007890
:10249000022813D141F2883034490860344800786A
:1024A00000F5B0600190334800901D48006802902C
:1024B000314800680390684601F0EBFE2F48006841
:1024C00010B10DB0BDE8F08F5AE0F6E0A0010010A9
:1024D000680100107C0100108001001098010010BC
:1024E00024322C25752C25752C25752C25752C252D
:1024F00075000000500200100000244000C00720BA
:10250000840300103C0800103C0C0010BC030010B9
:10251000008009403C0C001000C00940A4010010DC
:1025200058010010700100106C0100109C01001097
:10253000880100103C100010C003001028C00720C4
:10254000540200103C130000E502001088C9072067
:10255000A80100109802001010CD0720E40100101F
:10256000E80100108C020010090100104C0100105D
:1025700008010010000008805C01001044010010F8
:102580001920F7490860F748006800287ED1F6480E
:10259000006808B1012000E000208146F34800688F
:1025A00008B1012000E000200446F148006808B1AD
:1025B000012000E000200546EE48006808B1012037
:1025C00000E000200646EC48006808B1012000E069
:1025D00000200746E948006808B1012000E000201B
:1025E0008046E748007808B1012000E000208246DC
:1025F000E448007808B1012000E000208346E2486A
:10260000007808B1012000E000200C90DF4800783D
:1026100008B1012000E000200B9047F2010001907A
:10262000C004009048EA470040EA860040EAC5003E
:1026300040EA091040EA441040EA8A1040EACB110F
:102640000C9841EA00210B9841EA40200290D048C2
:102650000178D048006861F31F20CF49097840EA2B
:102660000140CE49097840EA01600390CC480078E7
:1026700010B1002002900390684601F00AFEB948AC
:102680000068401CB74908604EE1FFE747F20200CE
:102690000190C4480090B448006802900020039064
:1026A000BF48007810B1002002900390684601F006
:1026B000F0FD0020AB49086036E1BB4800780128F6
:1026C000E2D1BA480068C8B941F28830B749086019
:1026D000B748007800F5B0600190B2480090B54866
:1026E00000680290B44800680390AD48007810B1CB
:1026F000002002900390684601F0CBFD98480068E6
:1027000010B10DB0BDE8F08F0520954908609548DF
:10271000006800287ED19448006808B1012000E0DC
:10272000002081469148006808B1012000E00020A7
:1027300004468F48006808B1012000E000200546EB
:102740008C48006808B1012000E0002006468A4855
:10275000006808B1012000E00020074687480068B3
:1027600008B1012000E0002080468548007808B1CB
:10277000012000E0002082468248007808B1012054
:1027800000E0002083468048007808B1012000E086
:1027900000200C907D48007808B1012000E0002066
:1027A0000B908348007800F5C07001907D48009040
:1027B00048EA470040EA860040EAC50040EA0910BE
:1027C00040EA441040EA8A1040EACB110C9841EAF2
:1027D00000210B9841EA402002906D4801786D4835
:1027E000006861F31F206C49097840EA01406B4999
:1027F000097840EA016003906948007810B1002030
:1028000002900390684601F044FD56480068401C61
:10281000544900E001E0086086E052480068012861
:102820001AD16348007800F5207001905D4800904F
:102830004D4800680290002003905948007810B17C
:10284000002002900390684601F023FD454800688F
:10285000401C4449086067E042480068012863DD85
:102860005348007800F5607001904E4800903D4854
:102870000068801EC0EBC000504951F82000E8B34A
:1028800038480068801EC0EBC00051F8200004905A
:1028900034480068801EC0EBC00001EB8000006976
:1028A000089030480068801EC0EBC00001EB80003B
:1028B000007E8DF828002B480068801EC0EBC00009
:1028C00001EB80004069099026480068801E049949
:1028D00040EA012002904FF47A71099890FBF1F1DF
:1028E0000898C2B20498001662F31F209DF82820B1
:1028F00040EA024040EA0160039000E008E0284816
:10290000007810B1002002900390684601F0C1FCED
:1029100014480068401C1349086008460068801E7F
:10292000322801DB0020086000BFEAE638B5244801
:10293000006800B138BD64202149086000202149A9
:10294000086014490860124908601F4908601F495F
:1029500008601149086011490860002461E1000025
:102960004401001088030010180300102C0100100F
:1029700030010010340100103C0100104001001033
:1029800050010010510100105201001053010010BD
:10299000300300102C0300103C0300104003001013
:1029A0007E03001000000880090100104C01001097
:1029B00008010010580100105C01001090D9072098
:1029C0001403001028030010340300103803001013
:1029D000C4EBC400FD4951F8200000281AD0C4EB14
:1029E000C40001EB80004069A8B90020C4EBC40119
:1029F000F64A42F82100C4EBC40102EB8101886071
:102A0000C4EBC40102EB81010861C4EBC40102EB19
:102A10008101087604E1C4EBC400EC4901EB8000BD
:102A2000006901287DD1C4EBC40051F82000E849B9
:102A3000096888421BD1C4EBC400E44901EB800063
:102A40008068E4490860E4480168E248006805F0ED
:102A5000A3FADFD80320C4EBC401DC4A02EB8101F6
:102A60000876DE480068401CDC490860D8E0DC4895
:102A70000068401CDA490860D5480068B0B9C4EB6A
:102A8000C401D24A02EB81018868D349096805F084
:102A900083FA0BD80320C4EBC401CC4A02EB8101BA
:102AA0000876CE480068401CCC490860C4EBC401DD
:102AB000C64A02EB81018868CA49096805F06CFAC8
:102AC0000CD80220C4EBC401C04A02EB8101087695
:102AD000C5480068401CC449086016E0C4EBC40146
:102AE000BA4A02EB81018868C049096805F054FAC6
:102AF0000BD80120C4EBC401B44A02EB8101087673
:102B0000BB480068401CBA490860C4EBC401AF4A26
:102B100002EB81018868B749096805F03DFA09D2DE
:102B200000E01FE0C4EBC400A84901EB800080680E
:102B3000B0490860C4EBC400A44901EB8000407EAA
:102B4000022803D16420AC49087069E0C4EBC400DA
:102B50009E4901EB8000407E012861D16420A74995
:102B600008705DE0A6480068401CA5490860C4EBF9
:102B7000C401964A02EB81018868A249096805F000
:102B80000BFA0CD80220C4EBC401904A02EB81017D
:102B900008769D480068401C9B49086016E0C4EB1D
:102BA000C4018A4A02EB810188689849096805F0E6
:102BB000F3F90BD80120C4EBC401844A02EB810174
:102BC000087693480068401C91490860C4EBC40132
:102BD0007E4A02EB810188688E49096805F0DCF9BC
:102BE00007D2C4EBC400794901EB800080688949B1
:102BF0000860C4EBC400754901EB8000407E0228E8
:102C000003D16420844908700AE0C4EBC4006F4912
:102C100001EB8000407E012802D164207F490870CA
:102C2000641C322CFFF6D4AE6C48006818B14FF427
:102C3000C8707B4908606E48006818B14FF4C870CE
:102C4000784908606848006818B14FF4C870764940
:102C500008606F48006818B14FF4C8707349086085
:102C60006948006818B14FF4C870714908605C4841
:102C7000006898B100215F48006805F01DF90DD08B
:102C80006C486D4B00905948026856480168594895
:102C90000068FDF73FFE6949086002E06548674942
:102CA00008605748006898B100215A48006805F04C
:102CB00003F90DD05F48604B0090544802685148BA
:102CC000016854480068FDF725FE5D49086002E090
:102CD00058485B490860594800685A4908600846E6
:102CE00001685748006805F057F903D25448006856
:102CF000544908604F495348006805F04DFA03D81D
:102D000000205149086008E001204F4908604D4803
:102D1000006805F021F94D4908604D4835490860C3
:102D20003C49086000BF05E630B58DB049480068F1
:102D300008B10DB030BD32204649086046480068F1
:102D400068B146A16846FDF797FA684602F090FB25
:102D5000044622466946022000F026FFE9E7404883
:102D6000006868B13DA16846FDF786FA684602F042
:102D70007FFB044622466946032000F015FFD8E792
:102D80003848006800B300203649086017480068DA
:102D900005F0C6F800EB800044001248006805F01A
:102DA000BFF800EB8000450023462A462EA1684666
:102DB000FDF762FA684602F05BFB0446224669466C
:102DC000032000F0F1FEB4E754E0000090D90720A2
:102DD00018030010980300101801001034030010AD
:102DE000280300101C010010300300102001001007
:102DF0002C0300109003001050010010510100102E
:102E000038030010240100104003001028010010B6
:102E10003C0300108C0300105201001053010010FD
:102E20002C0100103401001030010010400100108E
:102E30003C0100100000FA4300004842A0030010CB
:102E40009C030010A4030010680300105803001036
:102E50000000CC4148010010A001001024300D00FA
:102E6000A40100109C01001024312C25752C25751F
:102E70000D000000F648006808B30020F44908601F
:102E8000F448006805F04CF800EB80004400F2487C
:102E9000006805F045F800EB8000450023462A460F
:102EA000AFF23C016846FDF7E7F9684602F0E0FA48
:102EB000044622466946022000F076FE39E7E748DC
:102EC000006820B30020E5490860E5480078012843
:102ED00007D10023E348E4A102686846FDF7CCF976
:102EE0000BE0DF480078022807D1E2480368DD489C
:102EF000DDA102686846FDF7BFF9684602F0B8FA3E
:102F0000044622466946032000F04EFE11E7DA48E7
:102F1000006820B30020D8490860D1480078012813
:102F200007D10023D548D0A102686846FDF7A4F96F
:102F30000BE0CB480078022807D1D1480368CF487E
:102F4000C9A102686846FDF797F9684602F090FA51
:102F5000044622466946022000F026FEE9E6C948FA
:102F60000068A0B10020C7490860C7480368C74887
:102F7000C7A102686846FDF77FF9684602F078FA53
:102F8000044622466946032000F00EFED1E6C348FF
:102F9000006890B10020C1490860C148C1A1026821
:102FA0006846FDF769F9684602F062FA044622466F
:102FB0006946032000F0F8FDBBE600BFB9E670B536
:102FC0000025BA48006800B170BD3220B7490860DA
:102FD000B348006848B3002419E0C4EBC400B44906
:102FE00051F82000AE49096888420FD1C4EBC401F2
:102FF000AF4A02EB81018868AE49096804F0CCFF52
:1030000004D241F28830AC4908600125641C322C9E
:10301000E3DB002D42D1A8480068E8BB0020A049AE
:10302000086001209D49086038E0A448006898B312
:103030000020A249086000242CE0C4EBC4009C4995
:1030400051F8200028B3C4EBC40001EB80004069B4
:10305000F8B1C4EBC40001EB80000069012818D16D
:10306000C4EBC401924A02EB810188689149096866
:1030700004F092FF0DD2C4EBC4008D4951F820003A
:103080008749086041F288308B49086001208349F4
:103090000860641C322C00E000E0CEDB8848007839
:1030A00028B98848006810B900207D49086000BF31
:1030B0008AE78548007830B14FF480608349C8635F
:1030C0000001C86305E04FF4806080498863000117
:1030D000886370477E48007818B110207B49886368
:1030E00002E010207949C863704700200021794A26
:1030F00012680AB1012200E000221043764A1268E9
:103100000AB1012200E0002240EA4200734A12683C
:103110000AB1012200E0002240EA8200704A1268EF
:103120000AB1012200E0002240EAC2006D4A1268A2
:103130000AB1012200E0002240EA0210584A126857
:103140000AB1012200E0002240EA4210654A1268FA
:103150000AB1012200E00022514B1B680BB9012388
:1031600000E000231A4040EA82105F4A127822B140
:10317000584A12680AB1012200E0002240EAC21057
:103180005A4A127822B1534A12680AB1012200E069
:10319000002240EA0220544A127822B14F4A1268B3
:1031A0000AB1012200E0002240EA42204F4A127890
:1031B00022B14A4A12680AB1012200E0002240EA24
:1031C00082204B4A127822B1434A12680AB1012286
:1031D00000E0002240EAC220464A127822B13E4A6C
:1031E00012680AB1012200E0002240EA0230404A9F
:1031F000127822B13A4A12680AB1012200E0002294
:1032000040EA42303B4A127822B1354A12680AB18C
:10321000012200E0002240EA8230374A1268024070
:103220000AB1012200E00022344B83F82820344AFE
:10323000126802400AB1012300E000232F4A82F8FD
:103240002930304A126802400AB101235DE05BE098
:103250009801001028010010240100107C010010CA
:10326000680100105C01001024322C25752C257596
:103270000D000000640100108001001058010010D2
:103280006001001088010010500300104C03001072
:1032900024342C25752C25750D00000084010010A8
:1032A0001803001024332C25750D00002003001096
:1032B00090D90720180100101C03001054010010C1
:1032C0007F030010800300107E03001000C009205F
:1032D00028040010300100103C01001034010010DF
:1032E000400100102C01001050010010510100108D
:1032F0005201001053010010700300103C10001028
:1033000074030010780300100023814A82F82A30E9
:10331000127B11437E4A527B41EA4202D1B27C4A7F
:10332000927B41EA8202D1B281B17A4A12780A4094
:1033300062B1794A12682AB1774A1268521E764BF6
:103340001A6007E00122754B1A6003E04CF250321C
:10335000714B1A60704772480078022823D1714877
:10336000006870B17048006858B17048007840B982
:1033700001206F4908606F4908606F4908606B4918
:1033800008706E48006870B16D48006858B16D48AB
:10339000007840B90120674908606B4908606B49B3
:1033A000086068490870704710B5694800780028BF
:1033B00067D0002066490870664840686649084042
:1033C000664909784FF0F85242EA0121624A1140F9
:1033D000884219D162480068B0F5966F02D9002082
:1033E0005F4908605B48007940B25E495C4A1268F8
:1033F000885458484068C0F307405B490860584803
:103400000068401C564908605248406847F2020173
:10341000884213D10120414908604E48806810B9A4
:10342000012008600AE04B488068504908604FF46A
:10343000FA604F49086001204E49086045484068DD
:1034400047F2030188420BD14248007A00F00100A4
:10345000494908703F480089C0F300204749087077
:103460003C48808800F4B06038B13A4880683449FC
:1034700008603848C0682C49086036480FC801F019
:1034800047FD002010BD10B5FFF713FEFFF78CFFBE
:10349000FEF7B2FFFFF75FFFFEF7EEFFFFF71AFE42
:1034A0003548007838B9FFF78AFDFFF73FFAFFF794
:1034B0003BFCFDF7C2FB3248007818B1FFF715FE60
:1034C000FDF74AF810BD00201F4908601A4908603E
:1034D00001202C4908602C4908600020264908700A
:1034E0000120264908707047002028490860FDF730
:1034F000A4FA0A20FEF778FF0020FEF788F90D20D5
:1035000016490870FFF7DFFF01E0FFF7BCFFFCE79B
:103510003C1000107C030010440300105401001004
:10352000680100105C010010640100108D010010A2
:103530007C0100108001001098010010580100105B
:10354000600100108C0100109C0100108801001027
:1035500014010010F0CB072000FF001F6C020010C8
:103560009802001010CD0720FC0100101803001075
:1035700080030010840100107E0300107F03001000
:103580006C030010A0010010A40100104C020010F8
:1035900070B500BFFB488068C4B2641004F0070433
:1035A000032C28D1F7484069C5B205F09E0028B128
:1035B000F5480560F3480068C6B270BD05F001002B
:1035C00000284BD0EF480068F049F14A126888544F
:1035D000EF480068401CEE4908600020EB49EC4AC7
:1035E00012688854EA480068B0F5806F36DB002026
:1035F000E749086032E0022C18D1E2480068E3494C
:10360000E34A12688854E2480068401CE0490860B8
:103610000020DE49DE4A12688854DD480068B0F5B3
:10362000806F1BDB0020DA49086017E0062C06D10A
:10363000D548006840F48070D34908600EE0012C42
:103640000CD1D0484069C5B205F0200018B1012066
:10365000D049087002E00020CE4908700020FEF733
:103660000EFC00BFA9E770B500BFCB488068C4B2AC
:10367000641004F00704032C28D1C7484069C5B280
:1036800005F09E0028B1C5480560C3480068C6B271
:1036900070BD05F0010000284BD0BF480068C0494C
:1036A000C04A12688854BF480068401CBD49086081
:1036B0000020BB49BB4A12688854BA480068B0F57C
:1036C000806F36DB0020B749086032E0022C18D149
:1036D000B1480068B249B34A12688854B1480068DA
:1036E000401CB04908600020AD49AE4A12688854B9
:1036F000AC480068B0F5806F1BDB0020A94908606A
:1037000017E0062C06D1A548006840F48070A34954
:1037100008600EE0012C0CD19F484069C5B205F04D
:10372000200018B10120A049087002E000209E4945
:1037300008700220FEF7A3FB00BFA9E770B500BF29
:103740009A488068C4B2641004F00704032C28D19E
:1037500096484069C5B205F09E0028B194480560BE
:1037600092480068C6B270BD05F0010000284BD039
:103770008E4800688F49904A126888548E480068C5
:10378000401C8D49086000208A498B4A1268885481
:1037900089480068B0F5806F36DB002086490860F4
:1037A00032E0022C18D1814800688249824A1268AE
:1037B000885481480068401C7F49086000207D498A
:1037C0007D4A126888547C480068B0F5806F1BDB26
:1037D00000207949086017E0062C06D1744800687B
:1037E00040F48070724908600EE0012C0CD16F48E3
:1037F0004069C5B205F0200018B101206F4908707A
:1038000002E000206D4908700320FEF738FB00BF7E
:10381000A9E72DE9F34F87B00C464FF0FF30069033
:1038200067480590059804904FF00009CA460026A5
:10383000012003900020029001908046DFF884B1BF
:103840000798002878D16048006820F0F0005E49B1
:1038500008600846006840F050000860832049492D
:10386000C860049800090490012533E0002729E08E
:1038700004986843E919B0FBF1FABAFBF4F6BAFB15
:10388000F4F104FB11A104EBD472B1EB620F00D987
:10389000761C022E15D9B6F5803F12D2BAFBF6F986
:1038A000A14502D8A4EB090801E0A9EB0408D8451A
:1038B00007D2039502970196C346B8F1000F00D1D5
:1038C00002E07F1C0F2FD3D900BFB8F1000F00D149
:1038D00002E06D1C0F2DC9D900BF642094FBF0F0ED
:1038E00058451DD92748C06840F080002549C86068
:1038F0000198C0F3072048600198C0B20860F02129
:10390000039801EA0010029901F00F0108431D49D4
:1039100088620846C06820F08000C86000200690D9
:103920000720184988600520486000F0C9F906980A
:1039300009B0BDE8F08FFFE70798012801D106988C
:10394000F6E70798022874D11F48006820F4401059
:103950001D4908600846006820F4400008600846D9
:10396000006840F4801008600846006840F4800059
:10397000086083200849C860049800090490012564
:1039800059E0000000C00040A80300103C040010F3
:10399000B8030010B403001000800940AC0300100D
:1039A0003C080010BC030010B503001000C0094023
:1039B000B00300103C0C0010C0030010B603001050
:1039C00000E1F505A086010000C00240002729E0C3
:1039D00004986843E919B0FBF1FABAFBF4F6BAFBB4
:1039E000F4F104FB11A104EBD472B1EB620F00D926
:1039F000761C022E15D9B6F5803F12D2BAFBF6F925
:103A0000A14502D8A4EB090801E0A9EB0408D845B8
:103A100007D2039502970196C346B8F1000F00D173
:103A200002E07F1C0F2FD3D900BFB8F1000F01D1E6
:103A300003E030E06D1C0F2DC8D900BF642094FB5B
:103A4000F0F058451DD9A448C06840F08000A24954
:103A5000C8600198C0F3072048600198C0B20860B0
:103A6000F021039801EA0010029901F00F010843C8
:103A7000994988620846C06820F08000C86000202C
:103A8000069007209449886005204860072000F0D0
:103A900017F906984CE7079803287DD18F484068AE
:103AA00020F440208D4948600846406820F44010CA
:103AB00048600846406840F4402048600846406836
:103AC00040F44010486083208549C860049800098C
:103AD0000490012533E0002729E004986843E919A0
:103AE000B0FBF1FABAFBF4F6BAFBF4F104FB11A156
:103AF00004EBD472B1EB620F00D9761C022E15D9FB
:103B0000B6F5803F12D2BAFBF6F9A14502D8A4EB74
:103B1000090801E0A9EB0408D84507D203950297EC
:103B20000196C346B8F1000F00D102E07F1C0F2FB1
:103B3000D3D900BFB8F1000F00D102E06D1C0F2DEA
:103B4000C9D900BF642094FBF0F058451DD96448E2
:103B5000C06840F080006249C8600198C0F3072047
:103B600048600198C0B20860F021039801EA001093
:103B7000029901F00F010843594988620846C0685C
:103B800020F08000C860002006900720544988601B
:103B900005204860082000E003E000F091F8069856
:103BA000C6E66FF00100C3E610B570B90BE000BFC8
:103BB0004C4B5B6903F04003002BF9D00B78494C68
:103BC0002360491C521E002AF1D102280ED10BE0BD
:103BD00000BF414B5B6903F04003002BF9D00B7829
:103BE0003D4C2360491C521E002AF1D103280ED1FE
:103BF0000BE000BF3A4B5B6903F04003002BF9D0A8
:103C00000B78374C2360491C521E002AF1D110BD9D
:103C100001460622304B5A60334A1268521A05D4C4
:103C2000314A1268521A304B1A6002E000222E4BC1
:103C30001A602D4A1268002A12DB00200CE00A18D4
:103C4000B2F5806F03D90022284B1A5403E00A18FA
:103C5000264B9A5C1A54401CC1F580628242EED811
:103C600007221D4B5A607047014606221C4B5A60C2
:103C70001F4A1268521A05D41D4A1268521A1C4B68
:103C80001A6002E000221A4B1A60194A1268002AD0
:103C900012DB00200CE00A18B2F5806F03D9002275
:103CA000144B1A5403E00A18124B9A5C1A54401C25
:103CB000C1F580628242EED80722094B5A607047F4
:103CC00000F01F02012191404209920002F1E0221E
:103CD000C2F80011704700000080094000C0024097
:103CE00000C0094000C00040BC0300103C080010A8
:103CF000C00300103C0C0010FD48FE49096A016039
:103D0000001DFC49496A0160001DFA49896A016089
:103D1000001DF849C96A01600121F74A11700421A8
:103D2000F44A516070470146F4480068401CF34B68
:103D30001860F048C26902F4802070B1F04B086846
:103D40001840EC4B18654868586588689865C868DD
:103D5000D86581205860012070470020FCE7E948C1
:103D6000E949096A0160001DE749496A0160001DCF
:103D7000E549896A0160001DE349C96A01600121C2
:103D8000E24A11600421E04A5160704700B5E04802
:103D90004068E04908600846006800F4807030B16F
:103DA000DD480068401CDC490860FFF7A5FFD948E2
:103DB000006800F4007030B1D8480068401CD74952
:103DC0000860FFF7CCFFCB48806800F0400020B1CE
:103DD000C8488068000CD2490860CB48806800F071
:103DE000400020B1C8488068000CCE49086000BD82
:103DF00010B504460020CC490860CC48006820F08B
:103E00000F00CA4908600846006840F005000860D5
:103E10000120B849086000200861886008464461B4
:103E200000200860192000F0A2FA0120B1490861C1
:103E300010BD10B504460020B44908600120B24905
:103E4000086000200861886008464461002008601E
:103E5000192000F08CFA0120AB49086110BD2DE952
:103E6000F04306461746DFF8C8C2DCF80080DFF8EA
:103E7000C4C2DCF800C00CF1010C08EB6C0CBCF502
:103E8000007F01DBBDE8F0834FF0010CDFF8A88272
:103E9000C8F800C0002F77D1A6F1010C41EA4C31DF
:103EA0004FF2FF7C01EA0C01DFF888C29CF800C0E9
:103EB0000CF0010CBCF1000F22D1DFF874C2DCF869
:103EC00000C0BCF1000F1BD0DFF868C2DCF800C0F6
:103ED0004FEA6C00DFF858C2DCF80050DFF85C8273
:103EE00058F8202007E0401CDFF8508258F82030B6
:103EF00048F820201A46B5F1000CA5F10105F2D1D1
:103F0000DFF830C2DCF800C0BCF1000F08D14FF67A
:103F1000FF7C4CEA014CDFF82482C8F800C0B2E014
:103F2000DFF810C2DCF800C0BCF1010F20D1DFF8CF
:103F30000CC2DCF800C0B1EB1C4F0CD2DFF8FCC1A6
:103F4000DCF800C04FEA1C4C4CEA014CDFF8EC8175
:103F5000C8F800C097E0DFF8E4C1DCF800C06FF3F8
:103F60000F0C4CEA010CDFF8D481C8F800C08AE0DD
:103F70000020DFF8C0C1DCF80040DCF800C0ACF184
:103F8000010C4FEA6C0517E088E0DFF8B08158F8C3
:103F900020C0B1EB1C4F01D244000FE0DFF89C8140
:103FA00058F820C01FFA8CFC8C4504D94FF0010C46
:103FB0000CEB400402E0401CA842E6DD00BFA84232
:103FC0001DDDDFF870C19CF800C00CF0010CBCF1E5
:103FD000000F08D14FF6FF7C4CEA014CDFF85C91F2
:103FE00049F820C04FE0DFF8548158F820C06FF343
:103FF0000F0C4CEA010CC14649F820C043E0DFF841
:104000003C8158F8202004F0010CBCF1000F04D1D1
:104010004FEA014C4CEA124305E04FEA124C4FEADA
:104020000C4C4CEA0103DFF8148148F82030DFF82B
:1040300004C1DCF800C04FEA6C050CE0401CDFF85E
:10404000FC8058F820304FEA134C4CEA024CC14631
:1040500049F820C01A46A842F0DBDFF8D8C09CF827
:1040600000C00CF0010CBCF1000F0CD1DFF8CC80CB
:1040700058F820C06FF30F0C4FF6FF78C444DFF8F8
:10408000BC9049F820C0DFF8ACC0DCF800C00CF1EF
:10409000010CDFF8A080C8F800C068E0A6F1010CB0
:1040A00041EA4C71DFF88CC0DCF800C00CF1010C67
:1040B0004FEA6C00002408E0DFF8808058F820C048
:1040C0008C4500D907E0401C641CDFF864C0DCF8B4
:1040D00000C06445F0DB00BFDFF8608058F82020A6
:1040E00048F82010DFF848C0DCF800C028E00000E5
:1040F000F0CB07200040044014010010D003001052
:1041000000000FC000CC0720008004401001001008
:1041100000000440C4030010C8030010CC030010CA
:10412000D8030010DC0300100C01001000C0024096
:10413000E4030010E003001000C0034000800340CF
:104140000CF1010CDFF83C82C8F800C0C446DCF872
:1041500000C0ACF1010508E0401C641CDFF82882B7
:1041600058F8203048F820201A46AC42F4DBDFF83B
:104170001CC2DCF800C00CF1010C4FEA6C0C4FEAD9
:104180008C02DFF800C2DCF800C002EB8C034FF0B9
:10419000000CDFF8FC81C8F804C0C446CCF8082045
:1041A000CCF80C20CCF81030CCF814304FF0000CC8
:1041B000C8F800C000BF65E630B50021744C6160EE
:1041C00000200EE04FF0807444EA4072441C4FF42B
:1041D000807545EA443342EA03046B4D4C51091D96
:1041E000801C0428EED36A4CA16000200EE04FF042
:1041F000007444EA4072441C4FF4007545EA4433AD
:1042000042EA0304604D4C51091D801C0428EED382
:104210005F4CE160002007E04FF4801444EA4072F4
:10422000594C0A51091D401C0428F5D3584C2161F2
:10423000002007E04FF4001444EA4072524C0A5147
:10424000091D401C0428F5D3514C616130BD10B5E7
:10425000044694B1012C04D0022C0BD0042C15D1AF
:104260000CE04B48046001204A49086000200861C6
:1042700088600CE04648046009E000BF0120444922
:104280000860FFF799FF4248046000E000BF00BFEC
:1042900010BD014640480068401C3F4B18603D4837
:1042A000C26902F0040070B13C4B08681840394BF9
:1042B00018634868586388689863C868D863212081
:1042C00058600120704702F4806070B1334B086879
:1042D0001840304B18644868586488689864C86807
:1042E000D864412058600120ECE70020EAE701464D
:1042F0002B480068401C2A4B18602A48C26902F00B
:10430000040070B1254B08681840264B18634868B4
:10431000586388689863C868D86321205860012072
:10432000704702F4806070B11C4B086818401D4B48
:1043300018644868586488689864C868D8644120DC
:1043400058600120ECE702F4802070B1134B08683C
:104350001840144B18654868586588689865C8689F
:10436000D865812058600120DAE70020D8E700F006
:104370001F02012191404209920002F1E022C2F89D
:1043800000117047E403001000800340E0030010B8
:1043900000C0034000400440D003001000000FC0E4
:1043A000D4030010008004400146FE48816000BF35
:1043B000FC48C06800F010000028F9D1F948806876
:1043C000704700B50346012B0ED10007F649C863BC
:1043D0000520FFF7E9FF0020FFF7E6FF02464FF058
:1043E0008050F149886331E0022B0ED15806EE4926
:1043F000C8630520FFF7D8FF0020FFF7D5FF02466E
:104400004FF08060E849886320E0032B0FD14FF024
:104410000070E549C8630520FFF7C6FF0020FFF7DD
:10442000C3FF02464FF00070DF4988630EE04FF093
:104430008050DD49C8630520FFF7B6FF0020FFF775
:10444000B3FF02464FF08050D7498863104600BD45
:1044500000B503460A46012A0DD10807D249C863B0
:104460000120FFF7A1FF1846FFF79EFF4FF0805095
:10447000CD4988632EE0022A0DD15006CA49C8638F
:104480000120FFF791FF1846FFF78EFF4FF0806085
:10449000C54988631EE0032A0ED14FF00070C2495F
:1044A000C8630120FFF780FF1846FFF77DFF4FF03C
:1044B0000070BD4988630DE04FF08050BA49C86371
:1044C0000120FFF771FF1846FFF76EFF4FF0805095
:1044D000B549886300BD00B50246012A0AD100072C
:1044E000B149C8630620FFF75FFF4FF08050AE4927
:1044F000886325E0022A0AD15006AB49C86306202A
:10450000FFF752FF4FF08060A749886318E0032A45
:104510000BD14FF00070A449C8630620FFF744FF99
:104520004FF00070A04988630AE04FF080509E4928
:10453000C8630620FFF738FF4FF080509A49886320
:1045400000BD00B59848006A40F080509649086266
:104550000846006A40F0806008624FF0805088632F
:10456000801088639148C06840F440708F49C860EB
:104570000846C06840F44040C8600846C06840F43F
:104580004030C8600846C06C40F44070C8640846BB
:10459000C06C40F44040C8640846C06C40F44030F1
:1045A000C86407207F49086019200861022048601C
:1045B0000120FFF706FF0120FFF78DFF0120FFF725
:1045C00000FF0120FFF787FF01210020FFF740FFD8
:1045D0000120FFF7F6FE0220FFF7F3FE0220FFF7AF
:1045E0007AFF0220FFF7EDFE0220FFF774FF0221A1
:1045F0000020FFF72DFF0220FFF7E3FE0320FFF767
:10460000E0FE0320FFF767FF0320FFF7DAFE032039
:10461000FFF761FF03210020FFF71AFF0320FFF7D8
:10462000D0FE00BD00B50246012A0AD100075E494E
:10463000C8630420FFF7B8FE4FF080505A498863E2
:1046400025E0022A0AD150065749C8630420FFF723
:10465000ABFE4FF080605449886318E0032A0BD109
:104660004FF000705049C8630420FFF79DFE4FF0E3
:1046700000704D4988630AE04FF080504A49C86392
:104680000420FFF791FE4FF080504749886300BD3A
:1046900010B5024600BFB2F5003F1CD214464FF0E1
:1046A00080504149C8630320FFF77EFEC2F30740F4
:1046B000FFF77AFEC2F30720FFF776FED0B2FFF7CE
:1046C00073FE0020FFF770FE03464FF0805036491E
:1046D0008863184610BDB2F5003F20D3B2F5802F95
:1046E0001DD2A2F500344FF080602F49C86303202B
:1046F000FFF75AFEC2F30740FFF756FEC2F307204A
:10470000FFF752FED0B2FFF74FFE0020FFF74CFE3E
:1047100003464FF08060244988631846DAE7B2F513
:10472000802F20D3B2F5C02F1DD2A2F580244FF0E8
:1047300000701D49C8630320FFF736FEC2F307402F
:10474000FFF732FEC2F30720FFF72EFED0B2FFF7CD
:104750002BFE0020FFF728FE03464FF000701249A1
:1047600088631846B6E74FF0FF30B3E7F0B504466C
:104770000E4600BFB4F5003F3DD227460120FFF7AB
:10478000AAFE4FF080500849C8630220FFF70CFED4
:10479000C4F30740FFF708FEC4F30720FFF704FE49
:1047A000E0B205E00080084000C0092000C00240DF
:1047B000FFF7FAFDF0B2FFF7F7FD4FF08050E24946
:1047C00088630F20E14908600120FFF7FAFD0546E4
:1047D00009E00120FFF7F5FD0546DC48006810B947
:1047E0004FF0FF30F0BD0DB1012000E000200128A6
:1047F000EFD00120F6E7B4F5003F3AD3B4F5802FAF
:1048000037D2A4F500370220FFF765FE4FF0806035
:10481000CD49C8630220FFF7C7FDC4F30740FFF787
:10482000C3FDC4F30720FFF7BFFDE0B2FFF7BCFDF7
:10483000F0B2FFF7B9FD4FF08060C34988630F20E5
:10484000C24908600220FFF7BCFD054609E00220CE
:10485000FFF7B7FD0546BD48006810B94FF0FF30BF
:10486000C0E70DB1012000E000200128EFD00120B9
:10487000B8E7B4F5802F3AD3B4F5C02F37D2A4F5FA
:1048800080270320FFF727FE4FF00070AE49C86372
:104890000220FFF789FDC4F30740FFF785FDC4F34D
:1048A0000720FFF781FDE0B2FFF77EFDF0B2FFF7D2
:1048B0007BFD4FF00070A44988630F20A349086076
:1048C0000320FFF77EFD054609E00320FFF779FD91
:1048D00005469E48006810B94FF0FF3082E70DB1E1
:1048E000012000E000200128EFD001207AE74FF0FE
:1048F000FF3077E7F0B505460E461746002407E07F
:10490000315D2819FFF732FF08B90020F0BD641CA3
:10491000BC42F5D30120F9E7F0B505460E4617462F
:10492000002404E02819FFF7B3FE3055641CBC4294
:10493000F8D30120F0BD30B504460D46B4F5007F34
:1049400001D94FF4007422024FF080507E49C863B1
:104950000320FFF729FDC2F30740FFF725FDC2F34F
:104960000720FFF721FDD0B2FFF71EFD002304E072
:104970000020FFF719FDE8545B1CFF2BF8D94FF01E
:10498000805071498863012030BD30B504460D4622
:10499000B4F5007F01D340F2FF1422024FF0806093
:1049A0006949C8630320FFF7FFFCC2F30740FFF724
:1049B000FBFCC2F30720FFF7F7FCD0B2FFF7F4FCD3
:1049C000002304E00020FFF7EFFCE8545B1CFF2B02
:1049D000F8D94FF080605C498863012030BD30B564
:1049E00004460D46B4F5007F08D3B4F5806F05D2B8
:1049F000A4F500702946FFF7C8FF30BD29462046C0
:104A0000FFF799FFF9E72DE9F04106468846B6F52C
:104A1000007F01D340F2FF1634020120FFF75BFD57
:104A20004FF080504849C8630220FFF7BDFCC4F333
:104A30000740FFF7B9FCC4F30720FFF7B5FCE0B26D
:104A4000FFF7B2FC002504E018F80500FFF7ACFC06
:104A50006D1CFF2DF8D94FF080503B4988630F2023
:104A60003A4908600120FFF7ACFC074609E0012045
:104A7000FFF7A7FC07463548006810B90020BDE8DD
:104A8000F0810FB1012000E000200128EFD00120CB
:104A9000F5E72DE9F04106468846B6F5007F01D3DB
:104AA00040F2FF1634020220FFF715FD4FF0806040
:104AB0002549C8630220FFF777FCC4F30740FFF7DE
:104AC00073FCC4F30720FFF76FFCE0B2FFF76CFC48
:104AD000002504E018F80500FFF766FC6D1CFF2DAB
:104AE000F8D94FF08060184988630F201749086093
:104AF0000220FFF766FC074609E00220FFF761FC91
:104B000007461248006810B90020BDE8F0810FB1D7
:104B1000012000E000200128EFD00120F5E730B5AA
:104B200004460D46B4F5007F08D3B4F5806F05D276
:104B3000A4F500702946FFF7ACFF30BD294620469A
:104B4000FFF761FFF9E7000000C00920EC03001047
:104B500070B58AB004460E46A64201D20C2508E084
:104B6000322000900194029605A96846574A904762
:104B7000059D28460AB070BD70B58AB004460D4642
:104B80001646332000900194029503965048006821
:104B90004FF47A71B0FBF1F0049005A968464B4AD6
:104BA000904705980AB070BD70B58AB004460E46AD
:104BB000A64201D20C250FE0342000900194029609
:104BC000434800684FF47A71B0FBF1F0039005A9F7
:104BD00068463E4A9047059D28460AB070BDF0B52C
:104BE0008BB004460F461546A74201D20C260FE0B3
:104BF000352001900294039706A901A8334A9047F3
:104C00000698082803D10698286007986860069ED1
:104C100030460BB0F0BD10B58AB004463620009087
:104C200005A96846294A90470698206005980AB069
:104C300010BD30B58BB004460D463720019006A953
:104C400001A8224A90470798C0F3072020600798E0
:104C5000C0B2286006980BB030BDF0B58BB00446EA
:104C60000D4616461F463A20019006A901A8174A8C
:104C70009047069820600798286008983060099847
:104C800038600BB0F0BDF0B58BB005460F46164648
:104C90001C463820019002950397049606A901A8A6
:104CA0000A4A904706980A2802D10CB1079820605A
:104CB00006980BB0F0BD00B58BB03920019006A965
:104CC00001A8024A90470BB000BD0000F11FFF1F72
:104CD000000100104A48006828B149480068401E99
:104CE0004749086008E00A204549086045480078BF
:104CF00080F00100434908704148006828B14048ED
:104D00000068401E3E49086008E00A203C490860EF
:104D10003D48007880F001003B4908703B4800683E
:104D200028B13A480068401E3849086008E064200D
:104D3000364908603648007880F001003449087030
:104D40003448006828B133480068401E3149086083
:104D500008E0FA202F4908602F48007880F0010011
:104D60002D4908702D48006828B12C480068401E65
:104D70002A49086009E04FF4FA7028490860284879
:104D8000007880F00100264908702648006828B1A4
:104D900024480068401E2349086009E04FF47A70F7
:104DA000204908602048007880F001001E49087002
:104DB0001E48006828B11D480068401E1B49086055
:104DC00014E01A48406840B118484068401E17492E
:104DD000486000201649087008E064201349086004
:104DE0004FF4FA60486001201149087011480068CA
:104DF00020B110480068401E0E490860704700004E
:104E0000040400102A0400102404001008040010F8
:104E1000250400100C0400102604001010040010DB
:104E200027040010140400102804001018040010B7
:104E300029040010200400106148006848B161484E
:104E400040685F490968884203D14FF47A705E492F
:104E500008605E48006820B15C480068401E5B49FD
:104E600008605B48006820B159480068401E5849F6
:104E700008605548006820B153480068401E5249F8
:104E800008605248006808B1012000E000204D4948
:104E900008700120487070474D48006808B901202B
:104EA00070470020FCE7F0B585B00146002012E015
:104EB000444C2B34245C14B10022012301E0012274
:104EC0000023404C2834245C0CB1144600E01C46FE
:104ED0000DF80040401C0428EADB64243C4D2C60A3
:104EE0003C4C01944FF4803402949DF800409DF8AE
:104EF000015044EA45049DF8025044EA85040394B5
:104F00000024049401ACF0CC81E8F00005B0F0BDC1
:104F10000FB50199B1F5003F07D12A4A02995160B6
:104F200003999160FA21294A11602B4A0199914213
:104F30001ED1002007E00299C14001F00102214981
:104F40000C310A54401C0428F5DB002008E0021D47
:104F50000299D14001F001021A4910310A54401C53
:104F60000428F4DB1749039A4A61FA21174A1160B1
:104F70000199B1F1021F07D11249029A8A61039A7D
:104F8000CA61FA21114A1160134A921C0199914297
:104F900014D10299090C0AB20A490A8402990AB288
:104FA00008494A840399090C0AB206498A8403997C
:104FB0000AB20449CA84FA21044A11600FBD0000F4
:104FC000380400103C100010340400102C040010B1
:104FD0003004001000000880010002002DE9F041BB
:104FE0000646002410687529314616A510D0AFF387
:104FF0000080002802DA404213A507E031688A07E2
:1050000001D512A502E0490704D511A5012401E04C
:10501000AFF3008000210A2206F1240709E0B0FB6B
:10502000F2FCB0FBF2F302FB1C003030785418465F
:10503000491C0028F3D123462A463046BDE8F041FA
:1050400000F001BB000000002D0000002B0000005C
:105050002000000070B504460D4621461068AFF3ED
:1050600000802188090502D50F4A7A4402E00E4AE1
:105070007A440E32002104F1240305E000F00F060B
:105080000009965D5E54491C0028F7D12078002362
:10509000000704D5702D02D009B102231132204639
:1050A000BDE8704000F0CFBA7E3300002DE9F05F1C
:1050B000894604464FF0000ADFF824B1FB44C0F8EB
:1050C00020A02046E168884700287DD0252806D00A
:1050D000D4E901219047206A401C2062F1E70025B5
:1050E0005F462046E16888472028064607DB312EC8
:1050F00005D2B81910F8200C08B10543F1E7A8074C
:1051000001D525F00405C4F81CA00027C4F818A098
:105110002A2E09D0304602F026FA38B304EB87086D
:10512000303EC8F8186019E059F8041B204604EB1B
:1051300087029161E1688847012F064618D1E0692E
:10514000002820DA25F020051DE0D8F8180000EB33
:10515000800006EB40003038C8F818002046E168AF
:105160008847064602F0FFF90028EED1012F0AD049
:105170002E2E08D12046E16888477F1C0646022F64
:1051800045F02005C4DBA069002803DA404245F061
:105190000105A061E80701D025F01005A6B1A6F130
:1051A0004100192802D8203645F400654A463146A8
:1051B000204625604D46FAF7D3FF60B1012807D09D
:1051C000ED1D25F0070000E007E000F1080978E791
:1051D00005F1040975E730467AE7206ABDE8F09FDB
:1051E000543300000FB400B58DB010A909900091A0
:1051F0000B904FF0FF300A9000200C900648784446
:105200000690064878446A4607900F9909A800F06E
:1052100031FF0DB05DF814FB930E0000AB0E0000E3
:105220002DE9FF5F1D464FF0FF3B91464FF0000810
:105230005F46D5E90146A96901987F1C8847296A1C
:10524000824688470028F6D1BAF1FF3F0CD0002EE5
:1052500024F4C06419DD600614D5BAF12B0F09D00F
:10526000BAF12D0F0ED103E0584604B0BDE8F09F0F
:1052700044F48064A96901987F1C8847761E8246A1
:10528000002E02DDBAF1300F03D0B9F1000F26D0A5
:1052900032E0A969761E01987F1C44F400748847A7
:1052A000002E824605DDBAF1780F06D0BAF1580F0C
:1052B00003D0B9F1000F10D01EE0B9F1000F02D0F9
:1052C000B9F1100F18D1A969761E01987F1C24F43A
:1052D000007488478246102002E0082000E00A207F
:1052E000814609E0A96908FB0908761E01987F1C20
:1052F00044F4007488478246002E05DD4946504636
:1053000000F027FC0028EDDAE96901988847A0053C
:1053100002D46FF00100A8E7E00725D1600613D59D
:10532000600502D5C8F1000000E0404629680A1D6A
:105330002A600968220501D5087015E0220701D509
:10534000088011E008600FE02868011D29600068EE
:10535000210502D580F8008006E0210702D5A0F8DB
:10536000008001E0C0F8008038467EE72DE9FF5F4D
:105370004FF000089946144646469169D2E901A7C4
:10538000DDF838B001988847054659EA0B0005D08A
:1053900009E0A1690198761C88470546216A2846DC
:1053A00088470028F5D1681C03D05FEACA7005D091
:1053B00015E04FF0FF3004B0BDE8F09F2068011DFC
:1053C0002160D0F800800AE05FEACA7001D108F8D5
:1053D000015BA169761C01987F1E88470546002F56
:1053E0001ADD681C18D0B9F1000F0DD0E81705EBD5
:1053F000D060421120F01F0059F822102A1A012013
:1054000090400142E0D107E0BBF1000FDCD128461B
:10541000216A88470028D7D0E16901988847BBF105
:10542000000F07D1002E05DD5FEACA7002D100210E
:1054300088F80010A068B84203DDBBF1000F03D06C
:1054400017B16FF00100B6E73046B4E730B5054656
:105450000B462A4613F8014B12F8010B08B1A04283
:10546000F8D01CB1002802D06D1CF1E7284630BDF1
:1054700010B5431C02E010F8011B71B18107FAD18D
:105480004FF0013202C88C1A8C4314EAC211F9D0D1
:10549000C01A0A0603D0C01E10BDC01A10BD0A04EF
:1054A00001D0801E10BD0902FCD0401E10BD421E5E
:1054B00012F8013F002BFBD111F8013B002B02F841
:1054C000013BF9D17047032A40F2308010F0030C01
:1054D00000F0158011F8013BBCF1020F624498BF47
:1054E00011F801CB00F8013B38BF11F8013BA2F1E4
:1054F000040298BF00F801CB38BF00F8013B11F05F
:10550000030300F02580083AC0F0088051F8043BFE
:10551000083A51F804CBA0E80810F5E7121D5CBF6B
:1055200051F8043B40F8043BAFF30080D20724BF9E
:1055300011F8013B11F801CB48BF11F8012B24BF32
:1055400000F8013B00F801CB48BF00F8012B704781
:1055500010B5203AC0F00B80B1E81850203AA0E80E
:105560001850B1E81850A0E81850BFF4F5AF5FEA42
:10557000027C24BFB1E81850A0E8185044BF18C9F5
:1055800018C0BDE810405FEA827C24BF51F8043B9C
:1055900040F8043B08BF7047D20728BF31F8023BF0
:1055A00048BF11F8012B28BF20F8023B48BF00F884
:1055B000012B70474FF000020429C0F0128010F058
:1055C000030C00F01B80CCF1040CBCF1020F18BFDF
:1055D00000F8012BA8BF20F8022BA1EB0C0100F072
:1055E0000DB85FEAC17C24BF00F8012B00F8012B45
:1055F00048BF00F8012B70474FF0000200B513467A
:1056000094469646203922BFA0E80C50A0E80C50E2
:10561000B1F12001BFF4F7AF090728BFA0E80C5093
:1056200048BF0CC05DF804EB890028BF40F8042B8C
:1056300008BF704748BF20F8022B11F0804F18BFF9
:1056400000F8012B70472DE9F0470D469946924628
:10565000044600F124080168880604D5E06921F0B9
:105660001001216000E00120A84201DD471B00E09D
:105670000027A1697A1902EB0900081AA0612078B5
:10568000C00602D42046FAF70BFE002608E0D4E953
:1056900001211AF806009047206A401C761C2062FF
:1056A0004E45F4DB2078C0060AD52046FAF7F8FD0F
:1056B00006E0D4E9012130209047206A401C206296
:1056C000381EA7F10107F4DC07E0D4E9012118F83E
:1056D00005009047206A401C2062281EA5F10105A4
:1056E000F3DC2046FAF7F2FD2078000602D502200E
:1056F000BDE8F0870120FBE770472DE9FF4F0C461E
:105700001E464FF0FF378BB0D2E90001DDF8608014
:105710000A908A46C1F30A5505B93D46002108465C
:105720004FF00000BAF1000F00F4400005DA00EB82
:1057300080004FF4400101EA50004FEA9059B9F15E
:10574000010F00DDB9460A9850EA4A000ED044F62F
:105750001050A5F2FF3545432F14B8F1000F1ED0AD
:105760007542291E1EDDC9F100021CE0B8F1010FCF
:105770004FF0000001D0302103E0F24305E0215456
:10578000401CB042FBDB30460022002121540B9923
:10579000C1F80880C1E900200FB0BDE8F08FBD1B43
:1057A0006D1CDEE74A4600DA694206A800F0E2FE18
:1057B00006AB93E8070003AB83E8070050460A995D
:1057C00001F007FA8DE80700A0F500501F3800909F
:1057D0000398002D0ADD42F21F014A4608440023C7
:1057E00003A90390684601F0B3FC09E0A0F500505E
:1057F0004A461F38002303A90390684601F0D2FCF3
:105800008DE807000004000C03D04FF0FF30410882
:1058100000E01046B8F1000F03D0002200921546B8
:105820001EE0751E05D400F05DFC303262556D1E21
:10583000F9D5B3460122084302D000227F1C04E0C0
:105840002078302801D100227F1E002A099784D0B9
:105850001DE0112D07DA00F045FC303262556D1C59
:1058600050EA0102F5D1084302D00098C8B10EE019
:105870000021681E05E0235C625C63542254401ED4
:10588000491C8142F7DBAB46A81B401E0990002053
:1058900004F80B000B98099AC0F80880C0E9002BA7
:1058A0007AE711264FF0000857E72DE9F04F8846B8
:1058B0000446D21D22F0070191B0D1E90001CDE9E3
:1058C0000A0101F0BBFD02460B98C00F01D02D204C
:1058D00007E02068810701D52B2002E0202101EAA2
:1058E000C000032A099001D0072A05DB0346414680
:1058F000204600F045FC0BE12078800601D5E069E8
:1059000000E00620B8F1650F814606D0B8F1660FB9
:1059100018D0B8F1670F70D131E00020B9F1110F44
:10592000009001DB112301E009F101030AAA01A99A
:105930000CA8FFF7E2FEDDE90C70002609F1010575
:10594000834647E001204B4600904FF000470AAAEB
:1059500001A90CA8FFF7D1FEDDE90DB00C995D4659
:10596000002610B909F101000D18B9EB050003D4A8
:10597000C0F1FF3609F10105A5EB09002BE0B9F1F3
:10598000010F01DA4FF001090020B9F1110F009069
:10599000484601DD112300E003460AAA01A90CA82C
:1059A000FFF7ABFEDDE90C704D46002683462078FC
:1059B00000070AD4AB4500DA5D4601A8012D04DDDD
:1059C000411911F8011C302907D04F4502DA17F1AF
:1059D000040F04DA012082460FE06D1EEEE7002F6F
:1059E00002DCED1B3E4403E0781CA84200DD7D1C78
:1059F000B81B00F1010A4FF000472078000703D4DC
:105A0000AA4501DB4FF0FF3A0021B7F1004F0DF13D
:105A100043088DF8431024D002202B23002F01DAF5
:105A20007F422D230A21021EA0F1010000DC5FB19C
:105A300097FBF1FC97FBF1F201FB1C7C17460CF184
:105A4000300C08F801CDEEE7A8F1010003702188C1
:105A5000090501D5452100E06521A0F1010800F804
:105A6000011C09980FA9A1EB0807FF1D00B1012037
:105A7000411901EBEA70A1693844081A401EA0617F
:105A80002078C00602D42046FAF70AFC099828B10B
:105A9000D4E901219047206A401C20622078C0068A
:105AA00022D52046FAF7FCFB1EE0002E04DBB345AE
:105AB00002DD01A8805D00E03020D4E9012190479B
:105AC000206A401C2062761CAAF101005FEA000AED
:105AD0000AD1FAF70FFCC0680168405CD4E90121E3
