:020000040000FA
:10000000684F0020150200001D0200001F020000C2
:100010002102000023020000250200000000000071
:1000200000000000000000000000000027020000A7
:1000300029020000000000002B020000C512000091
:10004000811000002F0200007D1500002F0200002B
:10005000B11200002F020000350E0000E510000074
:10006000611500002F0200002F0200002F02000087
:100070002F0200002F0200002F0200002F020000BC
:100080002F0200002F0200002F0200002F020000AC
:100090002F0200002F0200002F0200002F0200009C
:1000A0002F0200002F0200002F0200002F0200008C
:1000B000D11000002F02000000000000000000002E
:1000C0002F0200002F0200002F0200002F0200006C
:1000D0002F0200002F0200002F020000000000008D
:1000E0000000000000000000000000000000000010
:1000F0000000000000000000000000000000000000
:1001000000000000000000000000000000000000EF
:1001100000000000000000000000000000000000DF
:1001200000000000000000000000000000000000CF
:1001300000000000000000000000000000000000BF
:1001400000000000000000000000000000000000AF
:10015000000000000000000000000000000000009F
:10016000000000000000000000000000000000008F
:10017000000000000000000000000000000000007F
:10018000000000000000000000000000000000006F
:10019000000000000000000000000000000000005F
:1001A000000000000000000000000000000000004F
:1001B000000000000000000000000000000000003F
:1001C000000000000000000000000000000000002F
:1001D000000000000000000000000000000000001F
:1001E000000000000000000000000000000000000F
:1001F00000000000000000000000000000000000FF
:10020000DFF80CD000F028FC00480047DF3D00007C
:10021000684F00200648804706480047FEE7FEE793
:10022000FEE7FEE7FEE7FEE7FEE7FEE7FEE7FEE7A6
:10023000DD12000001020000202A04DB203A21FA2E
:1002400002F00021704721FA02F3D040C2F12002EF
:10025000914008431946704740EA01039B0703D0C9
:1002600009E008C9121F08C0042AFAD203E011F8F5
:10027000013B00F8013B521EF9D27047D2B201E0B7
:1002800000F8012B491EFBD270470022F6E710B59B
:1002900013460A4604461946FFF7F0FF204610BDF4
:1002A00030B505462A460B4612F8010B13F8014BF0
:1002B00008B1A042F8D01CB1002802D06D1CF1E7B3
:1002C000284630BD421C10F8011B0029FBD1801AC2
:1002D000704730B504460020034600E05B1C9342A3
:1002E00003D2E05CCD5C401BF8D030BD0FB400B54C
:1002F0008DB010A909900B9000914FF0FF300A903B
:1003000000200C9005480690054807906A4609A809
:100310000F9900F0DFFA0DB05DF814FBF108000052
:100320000F0900002DE9FF5F1D464FF0FF3BD5E9A7
:10033000014691465F464FF00008A9697F1C01986D
:100340008847296A824688470028F6D1BAF1FF3FDC
:100350000CD024F4C064002E19DD600614D5BAF167
:100360002B0F09D0BAF12D0F0ED103E0584604B07F
:10037000BDE8F09F44F48064A9697F1C0198884718
:10038000761E8246002E02DDBAF1300F03D0B9F19D
:10039000000F26D032E0A969761E44F400747F1C59
:1003A000019888478246002E05DDBAF1780F06D005
:1003B000BAF1580F03D0B9F1000F10D01EE0B9F117
:1003C000000F02D0B9F1100F18D1A969761E24F4DC
:1003D00000747F1C019888478246102002E00820A4
:1003E00000E00A20814609E008FB0908A969761E99
:1003F00044F400747F1C019888478246002E05DD76
:100400004946504600F052FA0028EDDAE9690198B1
:100410008847A00502D46FF00100A8E7E00725D1C6
:10042000600613D5600502D5C8F1000000E0404623
:1004300029680A1D2A600968220501D5087015E09F
:10044000220701D5088011E008600FE02868011D2F
:1004500029600068210502D580F8008006E02107A8
:1004600002D5A0F8008001E0C0F8008038467EE7A1
:100470002DE9FE4F804681EA0300C00F0C46009034
:1004800021F0004123F00045B8EB0200A94105D25C
:100490004046214690461C460B46024623F000404B
:1004A000104347D0270DC7F30A00C3F30A51029047
:1004B000401A019040286BDAC3F3130040F4801B0C
:1004C0000098924620B10023D2EB030A63EB0B0B9A
:1004D00001985946C0F14002504600F0C6F9064660
:1004E0000D4650465946019A00F0CEF910EB08002F
:1004F0006141002487EA115284EAE7731A4340D02D
:10050000009A62B3019A012A4FEA075215DC001BD8
:1005100061EB02014FF0004202EA0752CDE90042CE
:10052000001C41F5801132462B4600F047FA03B01B
:10053000BDE8F08F40462146F9E7001B61EB020160
:10054000001C41F5801300185B412018A2F500172C
:1005500047EB030140EAD570B6196D4111E06D0813
:100560004FEA360645EAC0754FEA0752001B61EBB9
:100570000201001C41F5801149084FEA30000019C2
:10058000514132462B4603B0BDE8F04F00F007BAA8
:100590000098012240000023D0EB020263EBE073DD
:1005A000009821464FEAE074B8EB000061EB0401CB
:1005B000E9E783F000435BE781F0004158E72DE96C
:1005C000FE4F81EA030404F0004421F0004100944E
:1005D0004FF0000B23F0004350EA01045ED052EAD2
:1005E00003045BD0C3F30A54C1F30A552C44A4F2AC
:1005F000F3340194A0FB0254C1F3130141F48011C0
:10060000C3F3130343F4801301FB024400FB034EC6
:10061000840A970A44EA815447EA8357A4FB07688F
:1006200002958D0A05FB07854FEA932C04FB0C54B9
:100630002705029D4FEA065847EA1637B5EB08052D
:100640006EEB070C870E920E47EA811742EA83127F
:10065000A7FB0201B6EB0B0164EB00042B0D43EA90
:100660000C335E1844EB1C50DA465146E7FB02019E
:10067000C5F313044FEA0B3343EA14534FEA043231
:10068000019C43EA0603A4F10C040294009CCDE90A
:1006900000B400F093F903B0BDE8F08F00200146EC
:1006A000F9E72DE9F04D81EA030404F0004B21F055
:1006B000004514464FF0000A23F0004150EA0502BD
:1006C00020D054EA01021DD0C5F30A570246C5F3F3
:1006D0001303C1F31300C1F30A5640F4801543F429
:1006E0008013A7EB0608101BD64608F2FD3873EB03
:1006F000050002D308F1010801E092185B41B8F14E
:10070000000F03DA00200146BDE8F08D00204FF411
:100710008011064684460EE0171B73EB050705D3D0
:10072000121B63EB050306434CEA010C49084FEA30
:10073000300092185B4150EA0107EDD152EA030004
:1007400012D082EA040083EA0501084305D0101B99
:10075000AB4106D20122002306E000224FF0004305
:1007600002E06FF0010253101AEB06004CEB085147
:1007700010EB0A0041EB0B01BDE8F04D00F00FB9A2
:100780000EB5C10F80EAE0700844CA07002140F2AC
:1007900033438DE80E000A460B4600F00FF903B014
:1007A00000BD70B5C1F30A5201F000450024C1F349
:1007B000130140F2FF3341F480119A4201DA002024
:1007C00070BD40F233439A42A2F2334203DC5242FC
:1007D000FFF732FD00E090402C43F1D0404270BD65
:1007E00000F0004230F000400AD0C10D01F5607108
:1007F000C0F3160042EA0151C20840071143704796
:1008000000200146704701F0004330B421F0004160
:1008100050EA010206D00A0DA2F56072C1F313017D
:10082000002A02DC30BC00207047440F44EAC104B7
:10083000C100E01830BC00EBC25000F079B830B510
:100840000B46014600202022012409E021FA02F58E
:100850009D4205D303FA02F5491B04FA02F5284428
:10086000151EA2F10102F1DC30BD202A04DB203A82
:1008700000FA02F1002070479140C2F1200320FAF3
:1008800003F3194390407047202A06DBCB17203A28
:1008900041FA02F043EAE07306E041FA02F3D04085
:1008A000C2F1200291400843194670473A2800D20D
:1008B000303820F02002412A01D3A2F137008842CB
:1008C00001D34FF0FF307047026811441378016084
:1008D00018467047D16004495161044911620021F2
:1008E0001161114600F0D0B8C90800007D0A00006F
:1008F000426842B1016811F8013B23B1521EC0E9C0
:100900000012184670470121C160881E7047426876
:100910005AB1C368016843B983688B4205D0491E48
:10092000521CC0E90012002070474FF0FF307047A2
:100930000029A8BF7047401C490008BF20F00100F3
:10094000704710B4B0FA80FC00FA0CF050EA0104D1
:1009500004BF10BC704749B1CCF1200421FA04F463
:1009600011FA0CF118BF012121430843A3EB0C013C
:10097000CB1D4FEA00614FEA102042BF002010BC9F
:10098000704700EBC35010440029A4BF10BC70474F
:10099000401C490008BF20F0010010BC704710B592
:1009A000141E73F1000408DA401C41F10001921892
:1009B0005B411A4301D120F0010010BD2DE9F04D3B
:1009C00092469B4611B1B1FA81F202E0B0FA80F290
:1009D00020329046FFF749FF04460F4640EA0A00DE
:1009E00041EA0B0153465A46084313D0114653EAD5
:1009F000010019D0C8F140025046FFF71DFC054622
:100A00000E46504659464246FFF72FFF084305D091
:100A1000012004E020463946BDE8F08D0020054362
:100A200046EAE0762C4337430A986305E40AA0EBD4
:100A300008000022FD0A44EA47540A3002D500208B
:100A40000146E9E7010510196941DDE9084500198A
:100A50006941BDE8F04DA2E7064C074D06E0E068AD
:100A600040F0010394E8070098471034AC42F6D3F5
:100A7000FFF7CAFB1C6800003C680000C0B24FF4DE
:100A8000F05100F097B900002DE9F34F8BB04FF013
:100A9000000801F10C000C464FF0010B46460DF129
:100AA000080A01906269012101989047051E2DD026
:100AB000252D2CD0216A8847C0B162690121019897
:100AC0009047216A88470028F7D1411E6269019842
:100AD000904700E0761CA1690B988847216A8847F7
:100AE0000028F7D1E1690B988847DBE7A1690B98EB
:100AF00088470746A84201D1761CD3E7E1690B98E5
:100B000088477F1C02D1B8F1000F6FD046E1002763
:100B100062693D463946019890472A2804D16269A6
:100B20000121019890470125DFF884926269012133
:100B300001989047A0F130010A290AD24F45E5DC1F
:100B400007EB870100EB4107303FDFD445F010058C
:100B5000ECE7E90601D46FF000476C280AD04C2876
:100B600014D0682815D06A280DD074281CD07A2893
:100B70001AD01DE062690121019890476C2802D0CB
:100B800045F0040514E045F002050DE045F02005B0
:100B90000AE06269012101989047682802D045F077
:100BA000080505E045F40065626901210198904758
:100BB000C4E9015765283DD019DC58287AD00CDCEF
:100BC000452837D004DC252826D0412831D131E012
:100BD00046282FD047282CD12CE05B2877D06128DD
:100BE00028D063287CD0642823D15AE0D0E06F2835
:100BF00048D008DC66281DD067281BD0692821D082
:100C00006E2816D127E0702845D0732868D0752843
:100C100047D078280DD14DE0A1690B98884705464B
:100C200025283FF469AFE1690B9888476D1C3FF4B4
:100C30006AAFB3E023466A466FF001000B99AFF349
:100C400000809EE045F040006060A80723464FF01A
:100C5000000236D43EE0E8077FF447AF2068011D6C
:100C600021600068290501D506701BE7290701D519
:100C7000068017E7A90703D5F117C0E9006111E75E
:100C800006600FE745F040006060A80723464FF07C
:100C9000080216D41EE040F60E0125EA010060604D
:100CA00016E045F040006060A80723464FF00A02B6
:100CB00007D40FE045F040006060A80708D5234640
:100CC00010226FF001000B99AFF3008059E007E0AC
:100CD000234610226FF001000B99FFF723FB50E031
:100CE0004FF000094F464B46632802D05B2806D0E0
:100CF00040E0E80601D40120A06001273AE06269E3
:100D00000121019890475E2805D14FF001096269E1
:100D1000494601989047216939B900210A4653464E
:100D200043F82120491C0829FADBB0B3216969B9CD
:100D3000C11700EBD16253110AEB830122F01F02AD
:100D4000821A01200B68904003430B606269012105
:100D5000019890475D28E8D1B9F1000F09D0002033
:100D6000514651F82020D24341F82020401C082849
:100D7000F7DB02AB224600976FF001000B99AFF34F
:100D8000008000280CDA401C08D1BBF1000F05D010
:100D90004FF0FF300DB0BDE8F08FFFE74046F9E7B8
:100DA000E90701D108F1010806444FF0000B79E68C
:100DB000CCCCCC0C7F2801D9002208E0064A02EBFB
:100DC0005002C007127800D1120902F00F02012070
:100DD0009040084070470000DC67000070B58C1838
:100DE00010F8015B15F0070301D110F8013B2A113F
:100DF00006D110F8012B03E010F8016B01F8016B2C
:100E00005B1EF9D12B0705D40023521E0DD401F827
:100E1000013BFAE710F8013BCB1A921C03E013F8F0
:100E2000015B01F8015B521EF9D5A142D8D3002025
:100E300070BD00002DE9F04F89B04FF00008002090
:100E400008904FF4807007900126002413E0079863
:100E500004F0AAFC48B100BF81480068304020B1CE
:100E6000079804F093FC48EA060876000798001DEE
:100E700080B20790641C082CE9D34FF4BE7004F0D4
:100E800093FC50B14FF4BE7004F080FC48F0004871
:100E900008AA0121002004F05FFC08F0FF0000B365
:100EA000012600241BE006EA0800B0B100BF6D482F
:100EB00050F82400C0F30420074600BF694850F8EA
:100EC0002400C0F301408146204601F001F90546A7
:100ED00015B149463846A84700BF7600641C082C67
:100EE000E1D308F0004000287ED000200690059055
:100EF000002505E04FF0FF3004A941F825006D1CE6
:100F0000002DF7D000BF0020069000246FE0564867
:100F1000005D0390039820F0C00753480057401C21
:100F2000002863D004A9384603F08AFD00285DD06C
:100F300003984FEA901A384601F012F9814601F001
:100F4000C7F80290029810B9BAF1030F4BD1BAF169
:100F5000030F11D1394605A80246CB0801F007015D
:100F600012F803C04FF0010E0EFA01FE4CEA0E0C0F
:100F700002F803C000BF00BF00BF00BF4FF0A04198
:100F8000084600F5E06151F82710C1F3014900BFA0
:100F900008A9384603F054FD8346BBF1000F02D088
:100FA000B9F1020F05D0BBF1000F1BD1B9F1030F4E
:100FB00018D1BAF1030F0FD1B9F1020F01D10320FB
:100FC00000E0022001903846019904F073FB069876
:100FD000401CC0B2069000BF029818B15146384676
:100FE000029A904700BF00E036E000BF641C042C6A
:100FF0008DD3069858B3012703AA0121002004F0DD
:10100000ABFB00250AE003A850F8250008A951F819
:101010002510884201D0002702E06D1C002DF2D07F
:1010200000BF17B10020069010E000250CE003A8D7
:1010300050F8250008A941F8250005A850F825001A
:1010400004A941F825006D1C002DF0D000BF0698C2
:1010500000287FF458AF00BF09B0BDE8F08F000052
:101060000463004010650040D40C0020132804D114
:10107000024A1278521C014B1A7070472C01002052
:1010800010B54FF4807003F0E6FC60B14FF480704F
:1010900003F0EAFC012003F0F1FC01200B49487049
:1010A000002001F071F84FF4827003F0D4FC58B1C5
:1010B0004FF4827003F0D8FC022003F0DFFC012023
:1010C0000249887001F060F810BD0000200D00207A
:1010D00010B50249024802F019FE10BDE4010020DB
:1010E00000C00140FEB54FF4827004F08BFB002875
:1010F00037D04FF4827004F08FFB6C4890F82E00CC
:1011000018B16A4890F82F0058B300208DF80000FD
:1011100066484068019065480189ADF80810C068CC
:1011200018B900206149087412E06048008B5F49DB
:1011300048830846C06848600846008B0881002044
:10114000C860084690F82E0010B9002004F070FB2B
:1011500056480168684688470020544981F82F00A6
:1011600000BF524890F82E00002852D04FF48070F3
:1011700004F048FB00284CD04FF4807004F04CFB86
:101180004A48408B494991F82D10884216DD47485E
:10119000408B464991F82D10401A444948830A462D
:1011A00012890B465B8BD21A0B465B6803EB42003D
:1011B0000A4692F82D1004F01DFB23E03B48408BBB
:1011C0003A4991F82D1088420FD13848C06860B173
:1011D0000120364981F82F00002048830A4692F802
:1011E0002D10D06804F006FB0CE03048408B2F49EE
:1011F00091F82D10884205D101202C4981F82F004B
:10120000002048834FF4827004F006FB042004F0B1
:101210000FFB4FF4887004F0F5FA70B14FF488704A
:1012200004F0FAFA00202149087402208DF8000029
:10123000084601686846884700BF4FF48A7004F08A
:10124000E1FA38B14FF48A7004F0E6FA0020174949
:1012500008742AE01548456924E0B5FA85F64FF090
:101260000040F0408543B00000F58C74204604F047
:10127000C9FAB8B1204604F0CFFA01208DF8000079
:10128000A4F58C70C0F3C7008DF80400A4F58C7031
:10129000012121EA90018DF8051004480168684693
:1012A000884700BF002DD8D100BFFEBD340D0020FF
:1012B00010B5034C21464FF0402002F079FD10BDDF
:1012C000DC0C002010B501F023F810BD01480249E4
:1012D000086070470090D0031802002010B502F09B
:1012E0005BFA28B18E480088C0F304208D4908605D
:1012F00002F0A6FA10B18C488C49486702F0B8FA9F
:1013000030B18748E0380068C0F34230884908604F
:1013100002F0D8FA28B18748006820F0807085492B
:10132000086002F0E7FA48B10020834908604FF0F6
:101330008041C1F810017E49091F086002F004FBDA
:1013400018B103207A496431086002F015FB68B1D6
:1013500005207A490860012078497831086000202A
:101360007649083108603F20091F086002F01CFB25
:10137000002855D06A48E030006871490860684824
:10138000E4300068091D08606548E8300068091D00
:1013900008606348EC300068091D08606048F03060
:1013A0000068091D08605E48F4300068091D086087
:1013B0005B48F83000686249203108605848FC30CA
:1013C0000068091D08605F480068091D08605D48E5
:1013D000001D0068091D08605A4808300068091D92
:1013E000086058480C300068091D086055481030E6
:1013F0000068534940310860524814300068091DA4
:101400000860504818300068091D08604D481C30BD
:101410000068091D08604B4820300068091D0860FD
:1014200002F090F930B13E48CC38006800F04F002F
:101430004549086002F0DAF940B14448006800F01C
:10144000010018B16FF00100404908603948743854
:10145000006840F4700037497439086000BF00BF6D
:1014600000BFBFF34F8F00BF00BF00BF00BF00BF72
:1014700000BFBFF36F8F00BF00BF00BF34480068DC
:1014800000F0004028B93248001D006800F000401C
:10149000F0B301202F49086000BF2F4800680028E2
:1014A000FBD015202A49086000BF2B48006800289F
:1014B000FBD015212648001D016000BF26480068AA
:1014C0000028FBD000202349086000BF22480068A4
:1014D0000028FBD000BF00BF00BF00BF00BFBFF3AC
:1014E0004F8F00BF00BF00BF1248F038006800F403
:1014F000E0601A490843001D0E49F039086000BF3A
:1015000000BF00BFBFF34F8F00BF00BF00BF00E0B0
:1015100002E000BF00BFFDE7FFF7D8FE10BD0000EE
:1015200024030010403501400DF0ADBA00C0074063
:101530003C050040FCED00E00C010040105600406E
:1015400020C5004024040010E40E004000040040C8
:101550000012001004E5014000E401400000FA051B
:1015600000200449086004480068401C02490860E3
:101570007047000040810040EC01002010B5064893
:10158000007F20B10449054804F09DFF03E00249B3
:10159000024804F0F7FE10BD000D002000200040BE
:1015A00009490A680968491C074B196007498854AA
:1015B0000021064A1B68D15403490968C82902DB87
:1015C0000021014A11607047100200209C0D00208C
:1015D00070B504460D4607E000BF207800F074FCAB
:1015E0000028FAD1641C6D1E002DF5D170BD0000DD
:1015F0000FB4084B10B504A902AA039800F046F9ED
:10160000044602A9002000F0EBF9204610BC5DF86A
:1016100014FB0000E119000002E008C8121F08C115
:10162000002AFAD170477047002001E001C1121F63
:10163000002AFBD1704710B5002202212C2002F0B5
:101640001AF8022211462C2002F015F810BD2DE9DF
:10165000F04705460E46002000244CE0002371B2FE
:101660004FEAC40925FA09F9C9F342174FEAC40938
:1016700025FA09F909F01F0221E002EB0109B9F18D
:10168000140F0BDDA3F101094FFA89F30BB9012304
:101690001FE0A1F105094FFA89F110E002EB010901
:1016A000B9F1040F0BDA03F101094FFA89F3082BA2
:1016B00001D107230DE001F105094FFA89F102EB91
:1016C0000109B9F1040FD8DB02EB0109B9F1140FDC
:1016D000D3DC00BF07EB030909F0070C02EB01099B
:1016E00009F01F0848EA4C194FEAC40A09FA0AF936
:1016F00049EA0000641C042CB0DBBDE8F08710B59B
:1017000004466D2240F606012E2001F0B4FF3CB1E4
:1017100040F2076241F606012E2001F087FF06E045
:1017200041F2076241F606012E2001F07FFF10BD55
:1017300010B5002000F006F800220421362001F048
:1017400075FF10BD38B504466B46022200213620D5
:1017500001F0AAFC0F2C5FD2DFE804F012081B5E38
:101760005E5E5E24335E5E40474E570000208DF87B
:1017700000009DF8010000F0FE008DF801004CE033
:101780009DF8000000F0FC0040F001008DF8000022
:1017900043E09DF8000000F0FC0040F002008DF8EE
:1017A00000003AE09DF8000000F0B30040F048006F
:1017B0008DF800009DF8010040F080008DF80100D8
:1017C0002BE09DF8000000F0B3008DF800009DF8BC
:1017D000010000F07F008DF801001EE09DF801007F
:1017E00040F002008DF8010017E09DF8010000F0C4
:1017F000FD008DF8010010E09DF8000000F0CF0022
:1018000040F020008DF8000007E001208DF8000076
:1018100003208DF8010000E000BF00BF6B460122ED
:101820000021362001F031FF0DF1010301221146A4
:10183000362001F02AFF38BD10B50E20FFF782FFD9
:101840004FF4004206212D2001F0F0FE012000F0AF
:1018500039FD0120FFF776FF10BD70B50446224622
:1018600004212D2001F0E2FE032206212D2001F0AB
:1018700002FF002206212D2001F0FDFE0A212D206D
:1018800001F0CDFB0546284670BD00002DE9FF4F55
:1018900089B09B460446002506E025280BD05A4611
:1018A0000B999047641C6D1C20780028F5D10DB071
:1018B0002846BDE8F08F0027B8460122474900E0DE
:1018C000074314F8013F203B02FA03F00842F7D126
:1018D00020782E2819D114F8010F47F004072A2880
:1018E0000ED06FF02F022078A0F1300109290CD81A
:1018F00008EB880102EB410100EB0108641CF2E7F0
:101900000A98641C50F8048B0A9020780028CED0E6
:10191000642808D0692806D075281ED05A460B992D
:1019200090476D1C58E00A994FF00A0901C90A91C5
:10193000002802DA40422D2102E0390504D52B218E
:101940008DF82010012103E0F90704D02021F7E7EA
:101950008A4608AE0DE00021FAE70A994FF00A091D
:1019600001C90A91F7E74946FEF769FF303106F8E9
:10197000011D0028F7D1ADEB060000F12009780722
:1019800001D44FF00108C84502DDA8EB090000E0D2
:1019900000208046002706E008A85A46C05D0B9943
:1019A00090476D1C7F1C5745F6DB04E030205A46FB
:1019B0000B9990476D1CB8F10001A8F10108F5DC06
:1019C00005E016F8010B5A460B9990476D1CB9F1CA
:1019D0000001A9F10109F4DC641C65E70928010094
:1019E0000A68531C0B6010707047000003490978A7
:1019F000034A127841EA42014173704730000020E7
:101A0000340000200149097801737047410000202B
:101A100001710A0A42710A0C82710A0EC271704782
:101A200001720A0A42720A0C82720A0EC27270476E
:101A300081750A0AC2750A0C02760A0E4276704750
:101A4000027B01F00F0342EA0312027370470000A9
:101A5000F0B503460024002059E000EB40055E4E3F
:101A600006EB05152D689D4250D100EB400506EBB5
:101A700005152B60012939D100EB400506EB051552
:101A8000D5ED020A00EB400506EB0515C5ED070A8A
:101A900000EB400506EB051585ED020A00EB40055D
:101AA00006EB0515D5ED020A4C4D95ED001AF2EE48
:101AB000041A31EE211AF4EEC10AF1EE10FA0DD338
:101AC00000EB400506EB0515D5ED020A444D95EDFA
:101AD000001AF4EEC10AF1EE10FA07D24FF4FA65DB
:101AE00000EB40063C4F07EB0616B56100EB4005E6
:101AF000394E06EB05152A6147F2305500EB4006DA
:101B0000354F07EB06167561012402E0401C1428CE
:101B1000A3DB00BF002C5DD1002058E000EB4005A6
:101B20002D4E06EB05156D69EDBB00EB400506EB90
:101B300005152B6000EB400506EB0515D5ED020AF7
:101B400000EB400506EB0515C5ED070A00EB400567
:101B500006EB051585ED020A47F2305500EB40060D
:101B60001D4F07EB0616756100EB40053E4606EB80
:101B70000515D5ED020A194D95ED001AF2EE041A7D
:101B800031EE211AF4EEC10AF1EE10FA0FD300EB98
:101B9000400506EB0515D5ED020A114D95ED001A2D
:101BA000F4EEC10A00E011E0F1EE10FA07D24FF4B2
:101BB000FA6500EB4006084F07EB0616B56100EB2F
:101BC0004005054E06EB05152A6102E0401C14286D
:101BD000A4DB00BFF0BD00008406002054000020FC
:101BE0005800002000B50346184600F043F80448AA
:101BF00001681846FFF70CFF1846FFF703FF00BD0A
:101C00002800002070B5044601F044FF164A03C2C4
:101C10001648008800F246500004C117124B0CCB46
:101C200080185941000A40EA0165284601F068FB26
:101C300025F001000021090241EA1061020244F28C
:101C40004803D21841F100010948C0E900210648C3
:101C50000CC804F10E0003F09AFF05480CC804F10B
:101C6000120003F094FF70BD180000200C0000204B
:101C70002000002001490968016070470800002029
:101C800000BF1348006800F0010000B100BE00BFB3
:101C900000BF00BF00BF00BF00BFBFF34F8F00BF3A
:101CA00000BF00BF0A48E438006800F4E06009495A
:101CB0000843001D0649E439086000BF00BF00BFAB
:101CC000BFF34F8F00BF00BF00BF00BF00BFFDE7E5
:101CD000F0ED00E00000FA053EB50446002000905B
:101CE0000190029002946A46002144F20100FFF73D
:101CF000C7FF3EBD01F016FF00BF3F48006820B19E
:101D00003D480068401E3C4908603C480078012876
:101D100002D102F09FF80BE039480078022801D187
:101D200002F0C0FA36480078012801D102F0D0FA5A
:101D30003448007820B100203249087000F012FDCC
:101D4000314800780028D8D000202F49087000BF03
:101D500000BF00BF2D4908604FF48070091F086064
:101D600000BF00BF00BF00BF00BF00BF0020091DB3
:101D700008604FF40040091F086000BF00BF00BFAB
:101D80004FF47A7000F09EFA03F01CFE20480178B0
:101D9000204804F0C5F91E4800F090FD1D48007869
:101DA0001D4908701B4840684860084600F0C6FEA0
:101DB0004FF47A7000F086FA00BF00BF00BF002029
:101DC0001249091F08604FF40040091D086000BF58
:101DD00000BF00BF012000F051FA00BF00BF00BFEC
:101DE00000200A49091F08604FF48070091D08602F
:101DF00000BF00BF81E70000440000204200002037
:101E0000410000209B000020990000200C0500509C
:101E1000BC000020440C0020C80000202DE9F04147
:101E200088B00446884616461F4620222049684648
:101E3000FEF712FA60690690207C08B1012000E0EC
:101E400000208DF814008DF81C70607C08B10E2005
:101E500000E000208DF81500E0680290A068039073
:101E600020680190606800901248066000201249C6
:101E70000870124A6946124803F032F9054600BF5D
:101E80001DB1284608B0BDE8F08100BF2068401CA5
:101E900058B19DF81D0010B9094803F0CDF9012291
:101EA0000849074803F05EF9ECE70020EAE7000084
:101EB000CC660000F4010020F2010020A9620000BD
:101EC000F8010020F101002070B5044608480470B4
:101ED00001220146074803F093FA0546112D01D16E
:101EE000042070BD0DB10320FBE70020F9E70000DE
:101EF000F0010020F801002070B505460C4620686E
:101F0000401C28B1206803F01BFC206803F0C6FBCE
:101F10006068401C18B10021606803F0A6FB2879B6
:101F20002D4901EB4010007F50B32868A169C0F82B
:101F3000241500BF617D227D286841EA0203C0F8B4
:101F40006C3500BFD4E90012286803F0DFFC207D67
:101F500001283FD1A068401C18B10021A06803F0FF
:101F600084FBE068401C28B1E06803F0E9FBE0680E
:101F700003F094FBD4E90221286803F0B3FC29E0C4
:101F80002868A169C0F8241500BF617D227D2868FA
:101F900041EA0203C0F86C3500BFD4E9001228689A
:101FA00003F087FC207D012814D1A068401C18B1E3
:101FB0000021A06803F059FBE068401C28B1E068EC
:101FC00003F0BEFBE06803F069FBD4E90221286856
:101FD00003F058FC70BD0000000D002070B52DED21
:101FE0000A8B82B001F015F9044601F0A3F805460A
:101FF00001F036F80646FEF7C3FB41EC1B0B9FEDE4
:10200000250B53EC102BFEF7DAFA41EC1A0BFEF716
:10201000FAFB09EE100A01A9204803F0A8FD694661
:102020001E48001D03F0A3FD281B08EE100ADDE981
:102030000001401A08EE900AB7EE000A70EE490A55
:10204000B8EEC80AB8EEE81A01EE600AF0EE000A2F
:1020500080EE201A11EE106A3046FEF7C1FB41EC0B
:102060001C0B9FED0F0B53EC102BFEF7A8FA41EC65
:102070001B0B9FED0D0B53EC102BFEF7A0FA41EC60
:102080001A0BFEF7C0FB00EE100A02B0BDEC0A8B83
:1020900070BD0000143BB1133BB103BE32020020FF
:1020A000FA48CE3B1835B13D0000001319DDB141AF
:1020B0004FF0FF31054A42F82010082804DBFF23C7
:1020C000A0F108015032535470470000840C0020E6
:1020D0000146024850F8210070470000840C00209F
:1020E0002DE9F04F03460C464FF0FF390AB10020AE
:1020F00000E0082084460AB1082000E00C20804659
:10210000614624E0154850F82100401CF0B91D46F6
:102110000846274616464FFA80FBDFF840A00AF132
:10212000300A0AF805B0DFF834A04AF820704EB93A
:102130004FFA85FBA0F1080ADFF820E00EF1500EFF
:102140000EF80AB000BF4FFA81F902E0491C414580
:10215000D8D300BF4846BDE8F08F0000840C0020B3
:102160000146014840567047B40C002010B50446A3
:10217000042204492046FEF7ACF808B9012010BD3E
:102180000020FCE70800002070B505460DB9094C99
:1021900001E0084C083409E0204601F01AFE06462A
:1021A00006B904E028467168884700BFF4E700BF1D
:1021B00070BD0000280D00202DE9FF4F03460C469E
:1021C000002047E0225CFF2A3ED0C2F3C01922F073
:1021D00080014DF82010B9F1000F0DD05DF82010EE
:1021E00000BF4FF0A0452E46012707FA01F5C6F8BB
:1021F000085500BF00BF0DE05DF8201000BF4FF094
:10220000A0452E46012707FA01F5C6F80C5500BF78
:1022100000BF00BF5DF8201001252E460027BC46F8
:10222000B84600BF4FF0A04BDA4645EA460B4BEAF2
:10223000870B4BEA0C2B4BEA084E0AF5E06B4BF888
:1022400021E000BF00BF03E04FF0FF314DF8201048
:10225000411CC8B20428B5DB6D461A68002107E0AE
:1022600055F8217002F5AC6646F821704E1CF1B2AB
:102270000429F5DB00BFBDE8FF8F000010B5044660
:102280000D4800F0F5FA00220C490C2001F031FA5B
:10229000002211460C2001F03FFA002001F05EF907
:1022A00002E0074800F00EF8002CFAD1044800F0D4
:1022B00009F801F00FF910BD80E7010018010020B6
:1022C000C0D4010010B50446204602F0DDFB10BD6D
:1022D0007047002070470000002013E000EB400131
:1022E0000A4A02EB0111496959B100EB400102EBC6
:1022F00001114969491E00EB4002044B03EB021235
:102300005161401C1428E9DB70470000840600205E
:1023100010B5EA480068401CE8490860E8480068D1
:1023200028B1E7480068401EE549086008E00A2037
:10233000E3490860E348007880F00100E149087053
:10234000E148006828B1E0480068401EDE490860A6
:1023500008E03220DC490860DC48007880F00100A9
:10236000DA490870DA48006828B1D9480068401E88
:10237000D749086008E06420D5490860D54800784E
:1023800080F00100D3490870D348006828B1D248D2
:102390000068401ED049086008E0FA20CE49086075
:1023A000CE48007880F00100CC490870CC48006825
:1023B00028B1CB480068401EC949086009E04FF4C5
:1023C000FA70C7490860C748007880F00100C54925
:1023D0000870C548006828B1C3480068401EC2495B
:1023E000086009E04FF47A70BF490860BF48007880
:1023F00080F00100BD490870BD480068401CBC4920
:102400000860BC48006820B1BA480068401EB9495D
:102410000860B948006820B1B7480068401EB64956
:102420000860B648006828B1B4480068401EB34947
:10243000086014E0B148406840B1B0484068401EB0
:10244000AE4948600020AE49087008E06420AB49FE
:1024500008604FF4FA6048600120A9490870A94853
:10246000006828B1A7480068401EA649086014E02B
:10247000A448406840B1A3484068401EA149486054
:102480000020A149087008E032209E49086040F60B
:10249000C410486001209C4908709C48006828B11D
:1024A0009A480068401E9949086014E097484068BF
:1024B00040B196484068401E9449486000209449C5
:1024C000087008E03220914908604FF47A70486043
:1024D00001208F4908708F48006828B18D48006836
:1024E000401E8C49086014E08A48406840B1894821
:1024F0004068401E8749486000208749087008E00E
:102500001420844908604FF47A70486001208249A1
:1025100008708248006828B180480068401E7F49E2
:10252000086014E07D48406840B17C484068401E27
:102530007A49486000207A49087008E014207749F9
:10254000086041F28830486001207549087075487C
:10255000006828B173480068401E7249086014E0A2
:102560007048406840B16F484068401E6D494860FF
:1025700000206D49087008E0C8206A4908604FF4DF
:102580007A704860012068490870FFF7A5FE674827
:10259000006820B165480068401E644908606448CE
:1025A000006820B162480068401E614908606148C7
:1025B000006820B15F480068401E5E4908605E48C0
:1025C000006820B15C480068401E5B4908605B48B9
:1025D000006820B159480068401E584908605848B2
:1025E000006820B156480068401E554908605548AB
:1025F000006820B154480068401C534908605348A3
:10260000006820B152480068401C51490860514898
:10261000006820B14F480068401E4E4908604E488F
:10262000006820B14C480068401E4B4908604B4888
:10263000006820B149480068401E484908600020F1
:1026400039E000EB4001464A02EB0111896A59B1B9
:1026500000EB400102EB0111896A491E00EB4002C8
:102660003F4B03EB0212916200EB40013C4A02EB4C
:102670000111496A59B100EB400102EB0111496AAD
:10268000491E00EB4002364B03EB0212516200EB95
:102690004001334A02EB0111896959B100EB400155
:1026A00002EB01118969491E00EB40022C4B03EB40
:1026B00002129161401C1428C3DB10BD9001002060
:1026C000340100207C010020380100207D01002021
:1026D0003C0100207E010020400100207F010020FD
:1026E00044010020800100204801002081010020D9
:1026F00004010020480000204C0000204C01002074
:10270000820100205C01002085010020540100208E
:10271000830100206C01002086010020640100205C
:10272000840100207401002087010020880100201E
:10273000100000201400002084000020A0000020D1
:10274000A4000020AC000020A80000208C00002085
:102750009000002088000020100100208C01002043
:102760008406002008B506480078009005480EC889
:10277000054803F07FFC044800F0E0F908BD0000C4
:10278000BC000020440C0020C80000202DE9FE4FB2
:1027900006464FF00008C246C1460021362000F030
:1027A00053FC02900421362000F026FC0190002109
:1027B000282000F034FC009001220021362000F097
:1027C0005AFF00220421362000F030FF274A002162
:1027D000282000F03CFF22220021362000F04BFF91
:1027E000802480254FF4967B00272BE06D102C432E
:1027F00022460B212A2000F03EFFBC2208212A207D
:1028000000F039FFBD2208212A2000F034FF01200A
:10281000FFF758FD09212A2000F0EEFBC0F30B0959
:10282000A9EB0600002801DB014600E04142884692
:10283000D84501DAC346A246B14501DD2C4300E08C
:10284000AC437F1C072FD1DB00213620029A00F019
:1028500012FF04213620019A00F0E8FE0021282012
:10286000009A00F0F4FE5046BDE8FE8F00A71F005E
:1028700010B50446FEF75CFF4FF4FF12002128203C
:1028800000F0E5FE0C4A0021282000F0E0FE0220C6
:10289000FEF758FF0D20FEF755FF042C00D204244C
:1028A000224600210A2000F0D2FE102224212F20EF
:1028B00000F0E1FE10BD000000FF5F002DE9F05FB9
:1028C00004464FF00009CA4625786079854931F8F9
:1028D00010806078401EC6B2042D01D0072D01D1B2
:1028E000012000E000208346E07950B97E4800686E
:1028F000006940F480007C49096808614FEAE808F3
:1029000007E079480068006920F48000764909688A
:102910000861207A74490968887273480068006900
:1029200020F440307049096808616F480068006908
:10293000217A4FF4403202EA014108436A490968AA
:1029400008616948006800210269042000F07FFEE8
:10295000424642F604012E2000F068FE3046FEF7A3
:10296000CEFE6248405D624951F8202007212B20AD
:1029700000F06DFE5D48405D5E490A5C0B212B2036
:1029800000F079FE5C4810F80B200B21282000F0A5
:1029900072FE5648405D594951F820200C212820EC
:1029A00000F055FEE079564901EB8000A17930F83E
:1029B00011200221272000F039FE524830F816205D
:1029C0000421272000F032FEE07928B96422062194
:1029D000272000F02BFE17E0A07804280AD110224F
:1029E0000621272000F022FE10222621272000F0B9
:1029F00042FE09E020220621272000F017FE2822AF
:102A00002621272000F037FE3F4800EB0610E17832
:102A100050F821200821272000F019FE608910B904
:102A200041F24100608162892021272000F0FEFDF3
:102A300036480C210268232000F009FE3348001DAF
:102A400030F816200421232000F0F0FDA07950B1C9
:102A5000E0792F490A5C0021212000F00CFE4FF0A4
:102A600003094FF0010A05F00F00F02101EA0511FA
:102A7000084361784FF4402202EA81410843910003
:102A800001EA095108434FF4003101EA4A41084381
:102A900021794FF0F86202EA8151084361795201CD
:102AA00002EAC16140EA01073A4600211F2000F016
:102AB000CEFDA078617808430004E17940EA413016
:102AC00009490968C860084800680021C2680820F0
:102AD00000F0BDFD422200210D2000F0CCFDBDE83C
:102AE000F09F00006867000000020020EC66000014
:102AF0000C670000246700002A670000F4660000ED
:102B00003867000044670000486700002C67000039
:102B10003467000070B504460D4607480068C08A57
:102B20000443224600212C2000F080FD2A46062185
:102B30002C2000F0A0FD70BD0002002010B504465E
:102B400022780B212A2000F096FD00211E206268C9
:102B500000F07DFD10BD000010B52DED088B044682
:102B600010490968497A601AFDF70AFE41EC1B0B0F
:102B70009FED0D0B53EC102BFDF721FD41EC1A0BD3
:102B80009FED0B0B53EC102BFDF772FC41EC190B76
:102B9000FDF739FE08EE100AB0EE480ABDEC088BCE
:102BA00010BD0000000200203D0AD7A3703DF23F97
:102BB000000000000000374010B5FEF73CFD10BDDE
:102BC00070B500210E2000F02AFA0546FFF781FBC0
:102BD0000446002211460E2000F039FD402200215B
:102BE0000D2000F048FD0A4A00210F2000F02FFDC3
:102BF00000F0F2FC2A4600210E2000F028FD2046BD
:102C0000FFF766FB002003490968487570BD0000A6
:102C1000F8FF272400020020014800680068704780
:102C2000000200202DE9F041044600250027002085
:102C30007B49096808757A490968487578490968BF
:102C4000C88277490968886275490968C862744909
:102C50000968086372490968486300F01FFA7149FE
:102C6000884202D08817BDE8F08104F0020008B95C
:102C700000F030FC04F0020010B104F0F80010B9CC
:102C80000020FEF75FFD04220021242000F0F3FC69
:102C900004F0020098B90420FEF7DFFD0746F8B201
:102CA000E0B1022212212D2000F0E5FC5C48006812
:102CB000C08A40F480505A490968C8820EE0302129
:102CC000282000F0ACF9B0F1883F07D054480068E4
:102CD000C08A40F4805052490968C88204F002005A
:102CE00028B104F0020058B104F0080040B11E20E1
:102CF000FEF7B3FD85B2280A49490968C87203E0A6
:102D0000002047490968C87204F0020030B905F094
:102D10001F0000B91025E8B200F0D0FB04F010004D
:102D200030B10620FEF799FD3D490968086003E0CF
:102D300000203B490968086004F0200030B10720FA
:102D4000FEF78BFD36490968486003E000203449EE
:102D50000968486004F0400030B10820FEF77DFDAE
:102D60002F490968087203E000202D49096808729C
:102D700004F0800030B10920FEF76FFD2849096892
:102D8000487203E0002026490968487204F00200F6
:102D9000D8B904F0010050B1FEF74EFD204800689C
:102DA000C08A40F400601E490968C88218E0052105
:102DB000362000F021F906464FF6FF500640324615
:102DC0000521362000F032FC0AE004F0040038B996
:102DD00013480068C08A40F4006011490968C8823D
:102DE0000120FEF7AFFC00220A212C2000F043FC5A
:102DF0000021042000F013F9094909680861084816
:102E000000680069C0F30140054909688872002123
:102E1000082000F004F902490968C860002022E790
:102E2000000200203001CADE70B56448007820B18D
:102E300062480078401E6149087000210F2000F0B0
:102E4000EEF85F4909680446C86104F48040002830
:102E50005ED04FF4DE4200210F2000F0F8FB00218D
:102E60005748006880F82410102000F0C5F8054687
:102E7000C5F3090652480068807A08B906F07F0653
:102E80004F480068068405F4004048B14C4800688B
:102E900090F8240040F001014948006880F82410AF
:102EA00047480368223302220021112000F0FCF879
:102EB00004F00800B8B14248006890F8220000F021
:102EC000200080B9082200210F2000F0C0FB3C4800
:102ED0000068C06920F0080039490968C86100200D
:102EE00037490968487536480068C06A30B13448C7
:102EF0000068C16A324800681C3088473048006862
:102F0000007D20B1012203210D2000F0B4FB00BFA1
:102F100004F08000D0B1F82200210F2000F097FBD0
:102F200004F0080038B126480068407D18B1FFF76A
:102F300047FE00F0A2F922480068806A30B12048BC
:102F40000068816A1E4800681C30884704F4081035
:102F5000C0B14FF4003200210F2000F078FB0020B8
:102F6000174909684875FFF72BFE00F086F91448E9
:102F70000068006B30B112480068016B10480068AF
:102F80001C3088470F482040B8B10E4A00210F205E
:102F900000F05DFB00200A4909684875FFF710FE44
:102FA00000F06BF906480068406B30B104480068D7
:102FB000416B034800681C30884770BD2C0100201D
:102FC00000020020009005242DE9F04105460E4640
:102FD00017460020FEF7B6FB002406E0291988B248
:102FE000FEF73BFC46F82400641CBC42F6DB0120E3
:102FF000FEF7A8FBBDE8F081F8B504460D460026B3
:10300000A9B2A0B26B46022200F04EF89DF8000073
:103010009DF8011000EB012086B23046F8BDF8B5EE
:1030200005460E460027B1B2A8B26B46042200F056
:103030003BF8032404E01DF8040000EB0727641E9E
:10304000002CF8DA3846F8BD38B504460D46A9B26A
:10305000A0B26B46012200F027F89DF8000038BDB1
:1030600038B500246B4603222821272000F01CF8E5
:10307000022504E01DF8050000EB04246D1E002D60
:10308000F8DA04F4801010B10348044301E0C4F3FB
:103090001404204638BD00000000F0FF10B50021E8
:1030A0000846FFF7BCFF10BD2DE9F84306460C4665
:1030B0001746984600252CB9F2B228466D1C0DF82B
:1030C00000201BE0F0B240F0400228466D1C0DF8D5
:1030D00000207F2C05DCE2B228466D1C0DF8002094
:1030E0000CE0E0B240F0800228466D1C0DF8002094
:1030F000C4F3C71228466D1C0DF80020A8B2434641
:103100003A46694602F0C8FCBDE8F88370B504464B
:103110000D46164623462A4631461120FFF7C4FFC6
:1031200070BD10B504462346052200211520FFF787
:10313000BBFF10BD10B500211520FFF770FF10BDBB
:10314000F8B5044680208DF800006B46012211215D
:10315000282000F09AFA0A208DF800006B46012220
:103160001221282000F091FA0F208DF800006B4604
:1031700001221221282000F088FA012C1BD1002006
:103180008DF800006B46012200212A2000F07DFA14
:1031900001208DF800006B46012200212A2000F05A
:1031A00074FA0120FFF78EF86B46022203212A20D1
:1031B000FFF77AFF1DE00020FEF7C4FA00208DF82B
:1031C00000006B46012200212A2000F05EFA012057
:1031D0008DF800006B46012200212A2000F055FAEC
:1031E0006B46022203212A20FFF75EFF0120FEF733
:1031F000A9FA9DF800609DF8015000208DF80000AC
:103200006B46012200212A2000F03FFA46EA052001
:10321000F8BD10B500211720FFF701FF10BD70B5F4
:10322000044604F0040008B900F0D6F94FF48075A4
:1032300004F0010008B145F400752A4600210D2074
:1032400000F0F4F904F00100A8B103210F20FFF70A
:10325000FBFE064606F0080068B1FFF7B1FC04F07B
:10326000020028B94FF4807200210D2000F0DEF931
:103270004FF0FF3070BD0020FCE710B5E0220321C5
:10328000362000F0F8F9F0220321362000F0F3F99F
:1032900010BD000010B5064C2468A062044C2468E0
:1032A000E162034C24682263014C2468636310BD0F
:1032B0000002002010B5044664B11048006800699F
:1032C00020F480500D490968086101200B49096804
:1032D00008750BE009480068006940F48050074910
:1032E00009680861002005490968087503480068F5
:1032F00000210269042000F0AAF910BD000200209C
:1033000010B50446224601210A2000F0A0F910BDA4
:103310002DE9F04105460E46FEF7DBFF0746022E7B
:1033200005D12A4600210E2000F091F90EE000217F
:103330000E20FFF774FE0446012E01D12C4300E05D
:10334000AC43224600210E2000F081F93846FEF7FA
:10335000BFFFBDE8F08170B5054605F0010080B300
:1033600000212620FFF75BFE044624F4705444F449
:10337000A05422460021262000F069F900213620C1
:10338000FFF74DFE044644F4040422460021362093
:1033900000F05DF94FF4887405F0020008B144F4C0
:1033A000702422462821362000F051F905F0020051
:1033B000A0B124F4702422462821362000F047F9D9
:1033C0000CE0FFE700212620FFF729FE044624F445
:1033D000705422460021262000F039F970BD10B546
:1033E000044622462421272000F020F910BD10B504
:1033F0000446224641F604012E2000F017F910BDC4
:1034000070B5044603210420FFF71EFE0546002C7C
:1034100014DD224600210C2000F008F945F01005CB
:103420000E480068006940F080500C490968086146
:103430002A460321042000F01EF90EE025F01005B5
:1034400006480068006920F0805004490968086156
:103450002A460321042000F00EF970BD000200206E
:1034600010B5044600210420FFF7D9FD0E49096874
:10347000086144B10C480068006920F480200A49C2
:103480000968086107E008480068006940F4802086
:1034900005490968086104480068002102690420A0
:1034A00000F0D5F810BD00000002002010B5044661
:1034B00022460021182000F0B9F810BD70B504466E
:1034C00004F01F0040F060052A460E212B2000F07A
:1034D000D2F870BD10B5FEF72BF9002211462C2052
:1034E00000F0A4F8002206212C2000F0C4F8FEF71A
:1034F000A2F800220321362000F0BDF80120FEF7DB
:10350000E1FEF0220321362000F0B5F80020024948
:103510000968487510BD00000002002070B504461F
:103520000D46FFF7BBFD0C49884209D023462A46C9
:1035300000210846FFF7B8FD0520FEF7C3FE01E0B5
:10354000002070BDFFF7AAFD0349884201D088170B
:10355000F7E70020F5E700003001CADE2DE9F04171
:10356000044600260025002704F0020020B1802533
:10357000012017490968487504F00100E8B145F0D9
:1035800006052A4600210D2000F075F803210F20C2
:10359000FFF732FD074607F4816008B9002613E003
:1035A000402200210D2000F066F84FF0FF36094858
:1035B0000068401C0749086006E045F002052A46FD
:1035C00000210D2000F057F83046BDE8F0810000E2
:1035D000000200200402002010B503210F20FFF795
:1035E00033FD044604F0800004F04001B0EB410FCD
:1035F00004D0012203210D2000F03DF810BD000091
:1036000010B54FF47A710848FFF788FF44F248007C
:10361000FFF7EDFE44F24800FFF748FF0020FFF7F8
:10362000EFFE00F0EFFA10BD9C020020F8B5054651
:103630000E461446E0B28DF8000020128DF801000D
:10364000B1B2A8B26B46022200F01FF8F8BDF8B57F
:1036500006460F461446002504E0E0B20DF80500CA
:10366000240A6D1C042DF8DBB9B2B0B26B460422FB
:1036700000F00BF8F8BD37B504460D46A9B2A0B26C
:1036800002AB012200F001F83EBD2DE9F8430646E9
:103690000C461746984600253CB9F0B240F080022F
:1036A00028466D1C0DF800201BE0F0B240F0C0026F
:1036B00028466D1C0DF800207F2C05DCE2B2284660
:1036C0006D1C0DF800200CE0E0B240F080022846AE
:1036D0006D1C0DF80020C4F3C71228466D1C0DF8B0
:1036E0000020A8B243463A46694602F073FFBDE89F
:1036F000F88370B504460E4615462819B0F5806F5C
:1037000007DCA21E334629460920FFF7BEFF002032
:1037100070BD4FF0FF30FBE72DE9F04104460D4648
:10372000164607480068C068204340EA855040EAD2
:10373000C6373A4600210820FFF789FFBDE8F0812F
:103740000002002013480078062820D11148001DEF
:10375000007800F00F00D0B90E480830007800F073
:10376000F000302801D1012070470A480830007865
:1037700000F0F000402801D10120F5E705480830AD
:10378000007800F0F000502801D10120ECE7002083
:10379000EAE70000E00F00F013480078062820D187
:1037A0001148001D007800F00F00D0B90E48083015
:1037B000007800F0F000302801D1012070470A485D
:1037C0000830007800F0F000402801D10120F5E732
:1037D00005480830007800F0F000502801D10120A1
:1037E000ECE70020EAE70000E00F00F01348007863
:1037F000062820D11148001D007800F00F00D0B934
:103800000E480830007800F0F000302801D1012087
:1038100070470A480830007800F0F000402801D1D5
:103820000120F5E705480830007800F0F000502846
:1038300001D10120ECE70020EAE70000E00F00F0F2
:103840000A48007806280ED10848001D007800F0CC
:103850000F0040B905480830007800F0F00030282B
:1038600001D1012070470020FCE70000E00F00F0CC
:1038700013480078062820D11148001D007800F078
:103880000F00D0B90E480830007800F0F000302862
:1038900001D1012070470A480830007800F0F0009C
:1038A000402801D10120F5E705480830007800F0F4
:1038B000F000502801D10120ECE70020EAE70000E9
:1038C000E00F00F00A48007806280ED10848001DD5
:1038D000007800F00F0040B905480830007800F08B
:1038E000F000302801D1012070470020FCE70000E3
:1038F000E00F00F013480078062820D11148001D81
:10390000007800F00F00D0B90E480830007800F0C1
:10391000F000302801D1012070470A4808300078B3
:1039200000F0F000402801D10120F5E705480830FB
:10393000007800F0F000502801D10120ECE70020D1
:10394000EAE70000E00F00F00A48007806280ED1F0
:103950000848001D007800F00F0040B90548083005
:10396000007800F0F000302801D1012070470020DD
:10397000FCE70000E00F00F00A48007806280ED1AE
:103980000848001D007800F00F0040B905480830D5
:10399000007800F0F000302801D1012070470020AD
:1039A000FCE70000E00F00F00A48007806280ED17E
:1039B0000848001D007800F00F0040B905480830A5
:1039C000007800F0F000502801D10120704700205D
:1039D000FCE70000E00F00F010B50446A07FFF28D0
:1039E00002D0A07F01F0A1FE00206077207204F1D8
:1039F0000800D4E90021904710BD000010B5002850
:103A000021D0114B0022001F196803E0814203D826
:103A10000A4649680029F9D152B11368841A9C42B8
:103A200004D1006818441060104602E0506000E0C5
:103A3000186039B102680B1A934203D10B681A441B
:103A400002604968416010BD1C0200200146487BAD
:103A50007047014608794A7940EA02208A7940EAAB
:103A60000240CA7940EA026070470146087B00F0D4
:103A70000F0070470146087B001170470146087A25
:103A80004A7A40EA02208A7A40EA0240CA7A40EA48
:103A9000026070477CB500210C460D466846FFF772
:103AA00040FB042607E0280240EA146524021DF8C2
:103AB00006000443761E002EF5DA204629467CBD1A
:103AC00038B501F067F910B901F034F9044613482C
:103AD0000068009001208DF80100114A694613200A
:103AE00001F0BAF8044600BF254625B100BF2846BC
:103AF000FEF7F2F800BF00BF0121132001F056F8D5
:103B00000121132001F0A4FD03211E2001F0A0FDDE
:103B100003211F2001F09CFD38BD000080660000DD
:103B20006D10000070B500202A49087002202A4953
:103B300008702A490870274801782748007802F061
:103B4000F9F802F059F901F061FF234800780128E3
:103B500003D02248007802280DD102F0E7FB20A113
:103B60002348FDF745FD2248FCF7ACFB04462146FF
:103B70001F48FDF72DFD1F4800684FF47A72B0FB17
:103B8000F2F0411E481EB0F1807F00D31BE0481EBA
:103B90004FF0E022506150170722002807DA530740
:103BA0001D0E154B00F00F04241F1D5503E0530795
:103BB0001C0E124B1C5400BF00204FF0E0229061FD
:103BC0000720106100BF00F033F800200C49087096
:103BD00070BD000040000020420000204100002095
:103BE00024302C73797374656D5F626F6F740D0090
:103BF000440A00201802002018ED00E000E400E074
:103C00005000002010B5054B054A06490648FFF74D
:103C100041FB01210548FFF77BFB10BD395C00002B
:103C20007D5C0000555C00004562000080D02304EC
:103C30000820012181404209920002F1E022C2F8ED
:103C4000001100BF01200B49486000200A490860AC
:103C5000091D0860042008490C310860012005494D
:103C6000C86000040549086001200249C1F800024B
:103C7000704700000080004004850040048300403D
:103C800070B504460D4620791D4901EB4010007FB8
:103C9000F8B14FF48871206801F01DFE4FF4907167
:103CA000206801F018FE4FF49271206801F013FEB5
:103CB0004FF4A271206801F00EFE1249206801F055
:103CC0001AFE206800F068FF0646294600F034FF1F
:103CD00014E04FF48E71206801F0CDFD4FF4A27115
:103CE000206801F0C8FD0849206801F0D3FD206874
:103CF00000F052FF0646294600F01EFF70BD00008E
:103D0000000D0020100302008000020070B505467F
:103D10000C464FF48871284601F058FD68B14FF405
:103D20008871284601F059FD607900F0040020B147
:103D3000206810B10120216888474FF48A71284615
:103D400001F044FD68B14FF48A71284601F045FD49
:103D5000607900F0080020B1206810B102202168CD
:103D600088474FF48E71284601F030FD68B14FF45A
:103D70008E71284601F031FD607900F0100020B905
:103D8000206810B10020216888474FF482712846CE
:103D900001F01CFD58B14FF48271284601F01DFD61
:103DA00001202071206810B103202168884770BD70
:103DB00070B505460C464FF48471284601F03EFD6F
:103DC0002146284602F0A4F810B92046FFF704FE69
:103DD00070BD0146086808B102680A60704710B5F6
:103DE000FDF788FF002010BDF0B50B30154D20F019
:103DF00007010024144A0FE003688B420BD38B4267
:103E000005D95E1A43184768C3E9006700E04368B4
:103E1000136002C004E0021D10680028ECD12046A7
:103E2000002802D1286808B10020F0BD064A0748E2
:103E30001060074A121A22F00702C0E9002401208C
:103E40002860D7E7200200201C0200206C0F002011
:103E5000682F002010B500F04FFA00F081F900F053
:103E60007BF80548007810B100F0FEF903E000F09F
:103E700095FC00F003F810BD9800002010B519481B
:103E8000006800B110BDFA201649086000F032F851
:103E900040B901201349086013480068401C1249CA
:103EA0000860EFE7FEF78CFE1048002101604160DA
:103EB0008160C160FDF796FE03210C48FDF7C0FD4F
:103EC00010220021094801F00DFF18B90020FFF76A
:103ED000A6F904E006480068401C0549086000BFD8
:103EE000D0E700008800002008010020500C0020CE
:103EF0000C01002010B50520154908600320FFF7CC
:103F00006EFA0020FFF78BF900BF00210F20FFF7AA
:103F100086F804460F49084018B90D480068002883
:103F2000F3D004F4001010B90948006858B1FEF746
:103F300047FEFFF7A2F90020FFF762FA0020FFF723
:103F40004EFA012010BD0020FFF749FA0020F9E7E2
:103F500010010020000120000020F8E000EB4001EB
:103F60007D4A02EB01114969C1B99FED7C0A00EB62
:103F7000400102EB011181ED070A9FED780A00EB89
:103F8000400102EB011181ED080A002100EB400223
:103F9000714B03EB021282F82E10D7E000EB4001C8
:103FA0006D4A02EB011191F82E1011B1012968D16F
:103FB00068E000EB4001684A02EB011191ED020A52
:103FC00000EB400102EB0111D1ED070AB4EEE00A6B
:103FD000F1EE10FA22D2022100EB40025E4B03EB1D
:103FE000021282F82D10012100EB400203EB0212B5
:103FF00082F82E10642100EB400203EB02125162A2
:1040000000EB40011A4602EB011191ED020A00EBB0
:10401000400102EB011181ED080A32E000EB4001A2
:104020004D4A02EB011191ED020A00EB400102EB57
:104030000111D1ED070AB4EEE00AF1EE10FA20DD2D
:10404000012100EB4002444B03EB021282F82D10D9
:1040500000EB400203EB021282F82E10642100EB09
:10406000400203EB0212916200EB40011A4602EBA0
:10407000011191ED020A00EB400102EB011181ED0B
:10408000080A61E000EB4001334A02EB0111496A82
:1040900049BB00EB400102EB011191F82D10022900
:1040A00021D100EB400102EB011191ED020A00EB7E
:1040B000400102EB0111D1ED080AB4EEE00AF1EE85
:1040C00010FA07D2022100EB4002234B03EB02124D
:1040D00082F82C10002100EB40021F4B03EB021270
:1040E00082F82E102FE000EB40011B4A02EB011179
:1040F000896A41BB00EB400102EB011191F82D10E0
:10410000012920D100EB400102EB011191ED020ADF
:1041100000EB400102EB0111D1ED080AB4EEE00A18
:10412000F1EE10FA07DD012100EB40020A4B03EB30
:10413000021282F82C10002100EB4002064B03EB28
:10414000021282F82E1000BF00BF00BF401C1428CE
:10415000FFF604AF70470000840600200000000056
:104160003EB52648006800B13EBD64202349086082
:1041700000243EE004EB4400214901EB001080697B
:10418000B0B304EB440001EB001090F82C000022C7
:1041900004EB44011A4B03EB01110969CDE900124C
:1041A000029004EB4400194601EB001090ED020A66
:1041B000BDEEC00A10EE103A04EB440001EB001013
:1041C00010A102681448FDF713FA1348FCF77AF8B7
:1041D000054629461048FDF7FBF910480068401CC9
:1041E0000E49086008460068401C08B900200860B5
:1041F000641C142CBEDB00BFB6E700008C0100205D
:104200008406002024322C25752C25752C25752C30
:1042100025752C25750D0000440A00208000002023
:1042200010B50E48007870B10D48006838B94FF4E9
:104230007A710C48FFF772F90420FEF7F0FF0120B5
:104240000749086008E006480068012801D1FEF728
:10425000B3FC00200249086010BD0000830100206B
:10426000E00000209C02002010B50B48007808B147
:10427000FEF7DAFD09480078012805D10020FEF795
:10428000CEFF00200549087005480078012802D1BA
:104290000420FEF7C4FF10BD2C01002029010020DE
:1042A0002801002010B50848006808B100F07CFB28
:1042B00000F022F80548007810B9022000F06EF9ED
:1042C000FFF74AFE10BD00002C00002098000020DF
:1042D00010B50748007848B9FFF7A2FF00F064FB6B
:1042E0000448007810B9022000F058F910BD000011
:1042F00074000020980000203EB533A13348FBF73E
:10430000CFFF05462DB132A12846FBF7C9FF044671
:1043100000E00024002D56D0002C54D06A462DA178
:104320002846FBF7E3FF009810B901F0B5FC40E028
:104330000098012814D102AB01AA27A12846FBF757
:10434000D5FF9DED020AB8EE400A264880ED000A2E
:104350009DED010AB8EE400A234880ED000A28E0EE
:104360000098022805D1214A21A12846FBF7BEFF6B
:104370001FE00098032805D11F4A20A12846FBF71B
:10438000B5FF16E00098042806D11E4B1E4A1FA157
:104390002846FBF7ABFF0CE00098622803D1012010
:1043A0001D49087005E00098632802D101201B49CF
:1043B0000870002500241A4801680448FBF765FFCF
:1043C0000020174908603EBD240000009C0D00201D
:1043D0000D0000002425750024312C25752C257531
:1043E0000000000054000020580000202C00002095
:1043F00024322C25750000003C00002024332C259D
:1044000075000000340000203000002024342C25EA
:10441000752C2575000000009800002099000020F0
:104420001002002070B500255148006800EB4000E4
:10443000504901EB00104069002874DD4E480078B7
:10444000012801D1FFF7DCF8FFF754FD48B901203E
:104450004A4908604A480068401C494908600120F0
:1044600070BD28214748FBF710FF4648FDF7BAFB0F
:1044700001214448FDF7E4FA3D48006800EB4000A4
:104480003C4A02EB001001683E48FDF7C9FA384883
:10449000006800EB4000374901EB001090ED020A84
:1044A0003348006800EB400001EB001080ED070A84
:1044B0002F48006800EB40000A4602EB001090ED28
:1044C000020ABDEEC00A10EE101A2E48FDF7B0FA2F
:1044D0002D480068401C2C490860282202212948E8
:1044E00001F000FC00BB0A202849086016E02848BB
:1044F000007808B1FEF798FC2648007870B10020DB
:104500002249086001F098FA00202249087000F062
:1045100023F91748006800F05BF805461B4800685F
:104520000028E4D105E013E0FEF7A7FE0020FEF727
:1045300067FF11480078012805D11748006828B99D
:10454000FEF73AFB02E00020FEF769FE012400E0DE
:10455000002425B906480068401C05490860044845
:104560000068142802DB002001490860204677E734
:1045700094000020840600204100002084000020D8
:10458000B0000020740200207C0000208801002080
:104590002C01002028010020E000002010B5044676
:1045A00009480068002800DD10BD07480460FFF7D7
:1045B00039FF30B105480078012802D1204600F0CB
:1045C0001BFA00BFF0E7000084000020410000203B
:1045D0002DE9F0412DED028B044600275548FDF7EB
:1045E000C5FD00287ED05348FFF748FA52490968B4
:1045F000884277D151480068401C504908604D48B6
:10460000FFF727FA0546002C0EDA002409E004EB38
:1046100044004B4901EB00100068A84200D102E0C1
:10462000641C142CF3DB00BFFDF7D8FCF2EE040A87
:1046300020EE208A3F48FFF709FA064606F00100FF
:1046400018B14FF47A703F490860C6F3400018B1C2
:104650004FF47A703C49086004EB4400384901EBA0
:1046600000100068A8420AD03248FFF7FEF98046E1
:1046700042460121B0EE480A2846FDF7E9F904EB6D
:1046800044002F4901EB001090ED020ADFED2F0AE4
:10469000B4EE600AF1EE10FA01D1012700E0002724
:1046A00004EB4400264901EB001080ED028A42F23F
:1046B000107004EB4401224A02EB0111486104EB43
:1046C0004400114601EB001090ED020A2048D0EDA5
:1046D000000AB2EE041A70EE810AB4EEE00AF1EEBE
:1046E00010FA00E020E00DD304EB440001EB0010D1
:1046F00090ED020A1748D0ED000AB4EEE00AF1EEA0
:1047000010FA07D24FF4FA6004EB44010C4A02EBB2
:10471000011188610748FFF7A8F904EB4401084A32
:1047200002EB0111086100BF3846BDEC028BBDE809
:10473000F0810000240200202800002078000020E2
:10474000840600204C0000204800002000FF7F4726
:10475000540000205800002010B50D48FDF706FD5C
:10476000A8B10B48FFF786F9032810D10848FFF7D6
:1047700070F908490968884209D00548FFF769F9C6
:104780000446012200219FED040AFDF761F910BDE6
:10479000240200202C00002000FF7F4770B56F48E6
:1047A000007808B1FEF740FB6D48007801280AD177
:1047B0000020FEF734FD0020694908706948006850
:1047C000401C684908606848006840F6B831884273
:1047D00008DD002064490860644801786448007876
:1047E00001F0A8FA6348007801287DD100206149D2
:1047F00008705D49086018215F48FBF746FD01F02D
:104800001BF95E48FDF7B2FC00286ED05B48FFF74D
:1048100035F95B490968884267D15848FFF725F99F
:10482000012804D05548FFF720F9022875D15348D4
:10483000FFF720F901287CD15048FFF70AF95149C8
:104840000968884275D050480068401C4E4908608D
:1048500008460068401C08B9002008604648FDF77B
:10486000C1F9484801684448FDF7D2F84248FDF7CD
:10487000C9F942480079414A527940EA02203F4A48
:10488000927940EA02403D4AD27940EA02613A48D0
:10489000FDF7C6F83948807D3849C97D40EA0120D6
:1048A0003649097E40EA01403449497E40EA0160C8
:1048B000364908603148FFF7CCF835490968884225
:1048C0000FD0324890ED000AB8EEC00A3148D0ED62
:1048D000000AB4EEE00AF1EE10FA02D22648FDF723
:1048E00085F81822012101E032E028E0224801F099
:1048F000F9F998B92148FFF7B8F804461F48FFF7BF
:10490000A8F8054622460121204890ED000AB8EE9D
:10491000C00A2846FDF79CF816E00AE01E48006829
:10492000401C1D490860FEF7A8FC0020FEF768FD4A
:104930000AE01A480068401C1849086004E018485A
:104940000068401C164908600420FEF768FC04E07B
:1049500014480068401C1349086070BD2C010020F9
:1049600029010020F0000020040100204000002068
:104970004200002028010020600C002024020020BA
:10498000280000202C000020E4000020EC00002083
:104990003C00002058000020FC0000200400002003
:1049A000F8000020F400002010B51048007808B18D
:1049B000FEF73AFA0E480078012805D10020FEF7EC
:1049C0002EFC00200A4908700A48007868B10020CF
:1049D0000849087001F030F80020FEF720FCFFF7CE
:1049E000BBFE4FF0FF30FFF7F3FD10BD2C010020A0
:1049F000290100202801002070B5044600BF4FF4B3
:104A00007A7060430B49086001200B4908608107F8
:104A1000C86740BF20BF20BF0020084908600120B0
:104A200005494860002502E0FDF772FC6D1CA542B7
:104A3000FADB70BD4085004000800040EC010020A2
:104A400030B502460B46D40802F007020120904020
:104A50001D5D284030BD01464FF08040405808B1F0
:104A6000012070470020FCE708B500224FF080418C
:104A70000A500958009100BF08BD000001490860B4
:104A8000704700000803004010B504464FF47A71E7
:104A900004FB01F000F002F810BD000000B97047FF
:104AA00000BF00BF00BF00BF00BF00BF00BF00BF0E
:104AB00000BF1F4909681F4A914200D130E000BF82
:104AC00000BF00BF00BF00BF00BF00BF00BF00BFEE
:104AD00000BF00BF00BF00BF00BF00BF00BF00BFDE
:104AE00000BF00BF00BF00BF00BF00BF00BF00BFCE
:104AF00000BF00BF00BF00BF00BF00BF00BF00BFBE
:104B000000BF00BF00BF00BF00BF00BF00BF00BFAD
:104B100000BF00BF00BF00BF00BF00BF00BF00BF9D
:104B200001460139084600D0BBE700BFB7E70000E7
:104B3000180200200024F40070B50B4601461A4606
:104B4000002907DA5407260E104C01F00F052D1F1F
:104B5000665503E05407250E0D4C655400BF00BF99
:104B600000F01F02012191400A4A440942F8241032
:104B700000BF00BF00F01F020121914042099200D6
:104B800002F1E022C2F8001100BF70BD18ED00E094
:104B900000E400E080E200E00146C1F3073250B2D9
:104BA00070470146C1F3073250B270472DE9F04714
:104BB00006460D46304600F0BFFEE0B13046FDF738
:104BC000CFFA083822490F5CBC11032C08D13046BB
:104BD00000F09FFD08B1032000E00220804605E0C0
:104BE000012C01D1022000E00320804641463046DE
:104BF00000F060FD2AE0304600F0AAFE30B33046F7
:104C0000FDF7AEFA0446A00000F5807087B220469A
:104C1000104951F8201041F001020E4941F82020BE
:104C200000BF384600F0B2FD7DB13046FDF798FA7E
:104C30008146FDF74DFA8046B8F1000F04D00121FE
:104C400001FA04F000F0BCFD00BF00BFBDE8F08732
:104C5000D40C0020106500402DE9FC4704460E46A8
:104C600017464FF00008204600F058FE10B14FF0F4
:104C7000080855E0F27839462046FDF731FA054636
:104C8000681C002849D0B07880B100BF00BF4FF049
:104C9000A042104600F5E06252F8242022F0020102
:104CA00000F5E06242F8241000BF0CE096F8019095
:104CB000002000904B46024601460190204600F03D
:104CC00077FC00BF00BFF078D0B13078164951F8BA
:104CD0002510164A1140144A42F82510114651F881
:104CE00025104FF4F85202EA04224FF4403303EA4D
:104CF00000431A4311430C4A42F8251000BF0EE04E
:104D0000A5F108000A49085C317840EA811042B2F6
:104D1000A5F1080006490A5401E04FF0040800BF5D
:104D20004046BDE8FC87000010650040FFE0FCFF46
:104D3000D40C002070B5164890F8540010B1082526
:104D4000284670BD002404E0204600F011FE601CDF
:104D5000C4B2202CF8DB002404E02046FDF7A8F9BB
:104D6000601CC4B20C2CF8DB07210620FFF7E4FE20
:104D70004FF4BE7000F00AFD4FF0004000F020FD3F
:104D80000120034981F8540000252846D9E7000096
:104D9000840C0020034890F8540008B101207047AB
:104DA0000020FCE7840C0020014601F06040B0F1D7
:104DB000005F01D1012070470020FCE72DE9F0479A
:104DC00004460D4690462079284901EBC00630790B
:104DD00018B108273846BDE8F087C6F80080294694
:104DE0002046FDF7E9F920680121C0F8001500BF51
:104DF0006979AA792B892068C0F80C15C0F80425B8
:104E0000C0F8083500BFA97AEA7A206841EA02238F
:104E1000C0F8103500BF0021206800F0E8FC002138
:104E2000206800F0E1FC4FF48E71206800F0D5FCA2
:104E30004FF48871206800F0D0FC4FF48A7120682C
:104E400000F0CBFC4FF48271206800F0C6FC3068A3
:104E500030B12068FFF7A5FE81462979FFF76CFE87
:104E60000120307100273846B5E70000E40100203A
:104E70002DE9FF4F83B080460C46934698F8050015
:104E800000EBC000524901EB8006307F28B14FF0A3
:104E9000080A504607B0BDE8F08FC6F800B0069883
:104EA0007060207B012803DC207800F01CFC02E00D
:104EB000207800F03AFC0020009001902078002338
:104EC0001A46012100F088FB6078FF2808D094F88A
:104ED0000190484600F007FC484600F0D3FB01E093
:104EE0004FF0FF39A078FF280CD0A77801250020CB
:104EF00000902B46024601460190384600F06CFBBC
:104F000000BF01E04FF0FF37E078FF2805D0E078E0
:104F100000F00BFCE07800F0B5FBE07898F80510A5
:104F200001EBC1012A4A02EB81018877D8F80050D1
:104F300028462178C0F80815C0F80C954FF4A262F5
:104F4000175000BFA068C5F8240500BF217B627B15
:104F50000AB1012300E00023184631B1012906D02F
:104F6000022907D0032908D000BF00BF08E040F0A5
:104F7000020005E040F0040002E040F0060000BF3F
:104F800000BFC5F8540500BF607998F8051001EB23
:104F9000C1010F4A02EB8101C877306818B10421C2
:104FA000284600F055FC00BF0120C5F8000500BFF1
:104FB000306820B1217998F90400FFF7BDFD002089
:104FC0007077012030774FF0000A504662E700000A
:104FD000DC0C00202DE9FF4107460C4615461E4615
:104FE000DDF82880009402968DF804508DF80C802E
:104FF00000226946384600F02FF804B0BDE8F08181
:1050000070B50446607900EBC000114901EB8005E2
:10501000286868B194F9040000BF00F01F02012164
:1050200091400C4A430942F8231000BF00BF00BF63
:105030002668286820B14FF0FF31304600F005FCAB
:1050400000BF0020C6F8000500BF287770BD000033
:10505000DC0C002080E100E02DE9F04105460E4621
:105060001746687900EBC0001C4901EB80044FF043
:105070000008607F20B14FF011084046BDE8F08184
:10508000206820B107F0140008B90120607796E885
:105090000E10C4E9053CC4E903121E34E07820F088
:1050A0000100E070E07820F00200E070E07820F08D
:1050B0000400E07014F81E09FF2802D0A07F00F061
:1050C00012FB27B1002060774FF0060804E032465B
:1050D0002146286800F0CCFE4046CFE7DC0C0020DB
:1050E0002DE9F04105460E46174628791C4901EB8B
:1050F00040144FF00008E07E20B14FF00808404611
:10510000BDE8F081707F207731462846FCF7F4FE39
:10511000676030692060606818B1317F2846FEF70B
:10512000AFFD00BF28790E4901EB4010007F28B188
:1051300028680821C0F8001500BF05E02868042190
:10514000C0F8001500BF00BF00BF0020E07520764A
:10515000A0750120E0760020A0764046D0E7000050
:10516000000D00202DE9F04704460E461746207931
:10517000304901EB4015207901EB4010007F40B130
:105180003046FFF711FE20B94FF010084046BDE849
:10519000F0874FF00009686880B12079254901EB5C
:1051A0004010007F28B14FF40471206800F0A0FB8C
:1051B00004E04FF40171206800F069FBE87DD0B194
:1051C000287EB0B1686880B120791A4901EB40109F
:1051D000007F28B14FF40471206800F08CFB04E0DC
:1051E0004FF40171206800F055FB4FF01108404664
:1051F000CDE74FF00109B9F1000F05D1EF75EE6071
:1052000000206876287601E02E612F762079094902
:1052100001EB4010007F30B14B463A463146204604
:1052200000F08AF8B3E74B463A463146204600F094
:105230001DF8ACE7000D002010B5044620790A499E
:1052400001EB4010007F68B9207901EB4010807EAF
:1052500040B9204600F0DEFC01202179024A02EB31
:105260004111887610BD0000000D00202DE9F05F8F
:1052700004468B46994620792E4901EB4015A87EBD
:1052800028B9B9F1000F02D1204600F0C3FC6868CC
:10529000002846D14FF4A271206800F0ECFA00BF5C
:1052A00000BF4FF49271206800F0DEFA80464FF4A0
:1052B0008471206800F0D8FA82464FF4A271206809
:1052C00000F0D2FA0646BAF1000F03D116B9B8F1D0
:1052D000000FE6D0B8F1000F00D106B107E0294673
:1052E000206800F069FCE87D697E8842D8DC00BF58
:1052F0000020E875B8F1000F03D003273846BDE859
:10530000F09F16B10F273846F9E7A87E20B100219B
:10531000206800F0CBFA03E00421206800F0C6FA10
:1053200004E04FF40171206800F0B4FA0027384619
:10533000E5E70000000D00202DE9F05F04460D4672
:10534000164699464FF0000A4FF48871206800F025
:10535000C2FA4FF4A271206800F0BDFA2068C0F8CC
:1053600034554FF4A7610E5000BFB9F1000F04D1BE
:105370000021206800F0C7FA08E020212068D0F85A
:1053800000220A43C0F8002200BF00BF20791B4959
:1053900001EB4010406848BB00BF4FF488712068A3
:1053A00000F092FA83464FF4A271206800F08CFA64
:1053B00080464FF49271206800F086FA0746BBF1F0
:1053C000000F04D1B8F1000F01D1002FE5D000206B
:1053D00021790A4A02EB4111C8750FB14FF0030A57
:1053E000B8F1000F01D04FF00F0A04E04FF4047140
:1053F000206800F080FA5046BDE8F09F000D0020C4
:105400002DE9F04104460D4690462079144901EB00
:105410004016207901EB4010007F38B12846FFF795
:10542000C3FC18B910273846BDE8F081204600F0CB
:105430009DF810B111273846F6E786F81680B5605A
:105440000020B0822079064901EB4010007F18B19E
:10545000204600F04DF8E7E7204600F003F8E3E7C8
:10546000000D002070B504462079204901EB40155D
:1054700000264FF48E71206800F0FDF908212068A5
:1054800000F014FA2946206800F0C8FE686858BB8E
:1054900012E000BF4FF48E71206800F0E5F918B9F2
:1054A000A88AB0F5807FF5D1A88AB0F5807F03D0B7
:1054B0002946206800F0B2FEA88AA97D8842E8DB70
:1054C000A88AB0F5807F01D10F260BE000BF4FF412
:1054D0008E71206800F0C8F90028F8D00C212068EF
:1054E00000F0E4F90020A875304670BD000D0020E2
:1054F0002DE9F041044620791B4901EB40154FF09E
:1055000000084FF49071206800F0E5F94FF4AC7199
:10551000206800F0E0F92068AA7DA968C0F8441569
:105520004FF4A9631A5000BF0821206800F0EBF97E
:105530006868A8B900BF4FF49071206800F0C4F902
:1055400007464FF4AC71206800F0BEF906460FB96B
:10555000002EF0D00EB14FF00F080020A87500BF4C
:105560004046BDE8F0810000000D002001460879AA
:10557000044A02EB4010807D08B1012070470020F2
:10558000FCE70000000D0020F0B5DDE9054500BF97
:105590004FF0A0473E4641EA420747EA830747EA01
:1055A000042747EA054C06F5E06747F820C0F0BD40
:1055B000F0B5DDE9054500BF4FF0A0473E4641EAA2
:1055C000420747EA830747EA042747EA054C06F5FE
:1055D000E06747F820C0F0BDF0B5DDE9054500BF44
:1055E0004FF0A0473E4641EA420747EA830747EAB1
:1055F000042747EA054C06F5E06747F820C0F0BDF0
:10560000F0B5DDE9054500BF4FF0A0473E4641EA51
:10561000420747EA830747EA042747EA054C06F5AD
:10562000E06747F820C0F0BDF0B5DDE9054500BFF3
:105630004FF0A0473E4641EA420747EA830747EA60
:10564000042747EA054C06F5E06747F820C0F0BD9F
:105650007CB505460C4600200090234602460146D4
:1056600001902846FFF790FF7CBD7CB505460C46AF
:105670000020009023460246014601902846FFF78D
:10568000BFFF7CBD1CB504460020009003460122EC
:10569000114601902046FFF79FFF1CBD1CB5044634
:1056A0000020009003460122114601902046FFF79A
:1056B000A7FF1CBD10B50A4600BF4FF0A043194616
:1056C00001F5E06353F8203023F4403401F5E06342
:1056D00043F8204053F8203043EA024401F5E063E8
:1056E00043F8204010BD00BF4FF0A0410A460123FF
:1056F00003FA00F1C2F80C1500BF704700BF4FF06D
:10570000A0410A46012303FA00F1C2F80C1500BFBC
:105710007047014600BF4FF0A040024600BFD2F8DC
:105720001005C84000F00100704700BF4FF0A041D5
:105730000A46012303FA00F1C2F8081500BF7047BA
:1057400000BF4FF0A0410A46012303FA00F1C2F85E
:10575000081500BF7047000038B50B46074C246899
:105760000094014606E05DF82140D4F8105515601C
:10577000121D491CC4188C42F5D838BD846600003F
:1057800001460148084470470060004038B50446AF
:105790002046FFF7F5FF002101602046FFF7F0FFEC
:1057A0000068009000BF38BD10B504462046FFF7E2
:1057B000E7FF0068012800D110BD0020FCE70000D1
:1057C00001490860704700000463004002465058D9
:1057D00008B1012070470020FCE708B500224250C4
:1057E0004258009200BF08BDC0F800137047C0F8CF
:1057F00000127047024A1060121D116070470000CD
:105800002C76004001460348085808B10120704733
:105810000020FCE70070004008B50021034A8150D9
:1058200011464158009100BF08BD000000700040C3
:105830000121014A815070470070004008B50022E4
:1058400042504258009200BF08BDC0F8081370478C
:10585000C0F804137047C0F81C1570470146D1F812
:105860008004C1F8800470470246505808B10120F6
:1058700070470020FCE708B50022425042580092D1
:1058800000BF08BDC0F80815C0F810257047C0F863
:1058900008137047C0F8041370470246D2F8040397
:1058A000084008B1012070470020FCE70122425067
:1058B0007047C0F81425C0F80C1570470146D1F8A0
:1058C0008004C1F8800470470246505808B1012096
:1058D00070470020FCE708B5002242504258009271
:1058E00000BF08BDC0F808154FF4A2631A507047F6
:1058F000C0F808137047C0F804137047014640F21F
:105900003C504058704701224250704740F20C53BF
:10591000195040F214531A507047000001460548D0
:105920004056012202EBE07008B1012070470020D0
:10593000FCE70000B40C002001460448405608284B
:1059400001DB012070470020FCE70000B40C0020C0
:10595000014606484056002805DB04484056082802
:1059600001DA012070470020FCE70000B40C0020A1
:10597000FF2201490A547047B40C00201FB50E489D
:10598000FFF73EFB0D4B0FCB8DE80F0011208DF87C
:10599000030000BF00230A4A69460748FFF768FA78
:1059A000044624B100BF2046FCF796F900BF00BFB3
:1059B0000220FFF769F81FBD9C670000B467000074
:1059C000655E00001FB50E48FFF71AFB0D4B0FCBAD
:1059D0008DE80F0011208DF8030000BF00230A4A54
:1059E00069460748FFF744FA044624B100BF204641
:1059F000FCF772F900BF00BF0220FFF745F81FBD9A
:105A00009C670000A4670000655E00000EB5074AB1
:105A100007CA8DE807000648008880B2ADF8080084
:105A2000002269460348FFF7C9F90EBD646600000D
:105A3000D8000020D000002010B550210848FAF707
:105A400024FC08488088502807DC0648818800220A
:105A50000348FDF75BFB012010BD0020FCE70000C0
:105A600024020020780C002010B50948406868B96D
:105A70000748408950B90648008938B90448007879
:105A800020B904480178024800F04AFB10BD00002C
:105A9000440C0020BC0000202DE9FF4F81B00446DB
:105AA0009146002504EB09052F463846FEF79CF980
:105AB0000646AA465046FEF797F9804629463046E4
:105AC000FAF7E3FB29464046FAF7DFFBB3462246E6
:105AD00058460299FAF7C0FBA34449465846FAF7DC
