:020000040000FA
:10000000F84E0020150200001D0200001F02000033
:100010002102000023020000250200000000000071
:1000200000000000000000000000000027020000A7
:1000300029020000000000002B0200004513000010
:10004000011100002F020000FD1500002F0200002A
:10005000311300002F020000B50E000065110000F2
:10006000E11500002F0200002F0200002F02000007
:100070002F0200002F0200002F0200002F020000BC
:100080002F0200002F0200002F0200002F020000AC
:100090002F0200002F0200002F0200002F0200009C
:1000A0002F0200002F0200002F0200002F0200008C
:1000B000511100002F0200000000000000000000AD
:1000C0002F0200002F0200002F0200002F0200006C
:1000D0002F0200002F0200002F020000000000008D
:1000E0000000000000000000000000000000000010
:1000F0000000000000000000000000000000000000
:1001000000000000000000000000000000000000EF
:1001100000000000000000000000000000000000DF
:1001200000000000000000000000000000000000CF
:1001300000000000000000000000000000000000BF
:1001400000000000000000000000000000000000AF
:10015000000000000000000000000000000000009F
:10016000000000000000000000000000000000008F
:10017000000000000000000000000000000000007F
:10018000000000000000000000000000000000006F
:10019000000000000000000000000000000000005F
:1001A000000000000000000000000000000000004F
:1001B000000000000000000000000000000000003F
:1001C000000000000000000000000000000000002F
:1001D000000000000000000000000000000000001F
:1001E000000000000000000000000000000000000F
:1001F00000000000000000000000000000000000FF
:10020000DFF80CD000F042FC00480047033F00003C
:10021000F84E00200648804706480047FEE7FEE704
:10022000FEE7FEE7FEE7FEE7FEE7FEE7FEE7FEE7A6
:100230005D13000001020000202A04DB203A21FAAD
:1002400002F00021704721FA02F3D040C2F12002EF
:10025000914008431946704740EA01039B0703D0C9
:1002600009E008C9121F08C0042AFAD203E011F8F5
:10027000013B00F8013B521EF9D27047D2B201E0B7
:1002800000F8012B491EFBD270470022F6E710B59B
:1002900013460A4604461946FFF7F0FF204610BDF4
:1002A00030B505462A460B4612F8010B13F8014BF0
:1002B00008B1A042F8D01CB1002802D06D1CF1E7B3
:1002C000284630BD421C10F8011B0029FBD1801AC2
:1002D000704730B504460020034600E05B1C9342A3
:1002E00003D2E05CCD5C401BF8D030BD0FB400B54C
:1002F0008DB010A909900B9000914FF0FF300A903B
:1003000000200C9005480690054807906A4609A809
:100310000F9900F0F9FA0DB05DF814FB2509000003
:10032000430900002DE9FF5F1D464FF0FF3BD5E973
:10033000014691465F464FF00008A9697F1C01986D
:100340008847296A824688470028F6D1BAF1FF3FDC
:100350000CD024F4C064002E19DD600614D5BAF167
:100360002B0F09D0BAF12D0F0ED103E0584604B07F
:10037000BDE8F09F44F48064A9697F1C0198884718
:10038000761E8246002E02DDBAF1300F03D0B9F19D
:10039000000F26D032E0A969761E44F400747F1C59
:1003A000019888478246002E05DDBAF1780F06D005
:1003B000BAF1580F03D0B9F1000F10D01EE0B9F117
:1003C000000F02D0B9F1100F18D1A969761E24F4DC
:1003D00000747F1C019888478246102002E00820A4
:1003E00000E00A20814609E008FB0908A969761E99
:1003F00044F400747F1C019888478246002E05DD76
:100400004946504600F06BFA0028EDDAE969019898
:100410008847A00502D46FF00100A8E7E00725D1C6
:10042000600613D5600502D5C8F1000000E0404623
:1004300029680A1D2A600968220501D5087015E09F
:10044000220701D5088011E008600FE02868011D2F
:1004500029600068210502D580F8008006E02107A8
:1004600002D5A0F8008001E0C0F8008038467EE7A1
:100470002DE9FE4F804681EA0300C00F0C46009034
:1004800021F0004123F00045B8EB0200A94105D25C
:100490004046214690461C460B46024623F000404B
:1004A000104347D0270DC7F30A00C3F30A51029047
:1004B000401A019040286BDAC3F3130040F4801B0C
:1004C0000098924620B10023D2EB030A63EB0B0B9A
:1004D00001985946C0F14002504600F0DFF9064647
:1004E0000D4650465946019A00F0E7F910EB080016
:1004F0006141002487EA115284EAE7731A4340D02D
:10050000009A62B3019A012A4FEA075215DC001BD8
:1005100061EB02014FF0004202EA0752CDE90042CE
:10052000001C41F5801132462B4600F061FA03B001
:10053000BDE8F08F40462146F9E7001B61EB020160
:10054000001C41F5801300185B412018A2F500172C
:1005500047EB030140EAD570B6196D4111E06D0813
:100560004FEA360645EAC0754FEA0752001B61EBB9
:100570000201001C41F5801149084FEA30000019C2
:10058000514132462B4603B0BDE8F04F00F021BA8E
:100590000098012240000023D0EB020263EBE073DD
:1005A000009821464FEAE074B8EB000061EB0401CB
:1005B000E9E783F000435BE781F0004158E72DE96C
:1005C000FE4F81EA030404F0004421F0004100944E
:1005D0004FF0000B23F0004350EA01045ED052EAD2
:1005E00003045BD0C3F30A54C1F30A552C44A4F2AC
:1005F000F3340194A0FB0254C1F3130141F48011C0
:10060000C3F3130343F4801301FB024400FB034EC6
:10061000840A970A44EA815447EA8357A4FB07688F
:1006200002958D0A05FB07854FEA932C04FB0C54B9
:100630002705029D4FEA065847EA1637B5EB08052D
:100640006EEB070C870E920E47EA811742EA83127F
:10065000A7FB0201B6EB0B0164EB00042B0D43EA90
:100660000C335E1844EB1C50DA465146E7FB02019E
:10067000C5F313044FEA0B3343EA14534FEA043231
:10068000019C43EA0603A4F10C040294009CCDE90A
:1006900000B400F0ADF903B0BDE8F08F00200146D2
:1006A000F9E72DE9F04D81EA030404F0004B21F055
:1006B000004514464FF0000A23F0004150EA0502BD
:1006C00020D054EA01021DD0C5F30A570246C5F3F3
:1006D0001303C1F31300C1F30A5640F4801543F429
:1006E0008013A7EB0608101BD64608F2FD3873EB03
:1006F000050002D308F1010801E092185B41B8F14E
:10070000000F03DA00200146BDE8F08D00204FF411
:100710008011064684460EE0171B73EB050705D3D0
:10072000121B63EB050306434CEA010C49084FEA30
:10073000300092185B4150EA0107EDD152EA030004
:1007400012D082EA040083EA0501084305D0101B99
:10075000AB4106D20122002306E000224FF0004305
:1007600002E06FF0010253101AEB06004CEB085147
:1007700010EB0A0041EB0B01BDE8F04D00F029B988
:100780000EB5C10F80EAE0700844CA07002140F2AC
:1007900033438DE80E000A460B4600F029F903B0FA
:1007A00000BD70B5C1F30A5201F000450024C1F349
:1007B000130140F2FF3341F480119A4201DA002024
:1007C00070BD40F233439A42A2F2334203DC5242FC
:1007D000FFF732FD00E090402C43F1D0404270BD65
:1007E000C1F30A5210B5C1F3130140F2FF3341F4D3
:1007F00080119A4201DA002010BD40F233439A4240
:10080000A2F2334203DC5242FFF716FD10BD9040C6
:1008100010BD00F0004230F000400AD0C10D01F5DB
:100820006071C0F3160042EA0151C208400711434B
:10083000704700200146704701F0004330B421F0BA
:10084000004150EA010206D00A0DA2F56072C1F320
:100850001301002A02DC30BC00207047440F44EA38
:10086000C104C100E01830BC00EBC25000F07AB8FF
:1008700030B50B46014600202022012409E021FA70
:1008800002F59D4205D303FA02F5491B04FA02F56D
:100890002844151EA2F10102F1DC30BD202A04DB40
:1008A000203A00FA02F1002070479140C2F1200383
:1008B00020FA03F3194390407047202A06DBCB1738
:1008C000203A41FA02F043EAE07306E041FA02F30B
:1008D000D040C2F1200291400843194670473A289F
:1008E00000D2303820F02002412A01D3A2F1370093
:1008F000884201D34FF0FF30704700000268114476
:100900001378016018467047D16004495161044969
:10091000116200211161114600F0D0B8FD080000FD
:10092000B10A0000426842B1016811F8013B23B1ED
:10093000521EC0E90012184670470121C160881E8E
:10094000704742685AB1C368016843B983688B42F3
:1009500005D0491E521CC0E90012002070474FF01C
:10096000FF3070470029A8BF7047401C490008BFEE
:1009700020F00100704710B4B0FA80FC00FA0CF0CF
:1009800050EA010404BF10BC704749B1CCF1200407
:1009900021FA04F411FA0CF118BF01212143084394
:1009A000A3EB0C01CB1D4FEA00614FEA102042BFC0
:1009B000002010BC704700EBC35010440029A4BFB6
:1009C00010BC7047401C490008BF20F0010010BC5B
:1009D000704710B5141E73F1000408DA401C41F191
:1009E000000192185B411A4301D120F0010010BDB3
:1009F0002DE9F04D92469B4611B1B1FA81F202E029
:100A0000B0FA80F220329046FFF748FF04460F46C6
:100A100040EA0A0041EA0B0153465A46084313D004
:100A2000114653EA010019D0C8F140025046FFF7C1
:100A300003FC05460E46504659464246FFF72EFF38
:100A4000084305D0012004E020463946BDE8F08D7A
:100A50000020054346EAE0762C4337430A986305B5
:100A6000E40AA0EB08000022FD0A44EA47540A30D9
:100A700002D500200146E9E7010510196941DDE9C9
:100A8000084500196941BDE8F04DA2E7064C074D45
:100A900006E0E06840F0010394E80700984710344E
:100AA000AC42F6D3FFF7B0FB186F0000386F0000C0
:100AB000C0B24FF4F05100F097B900002DE9F34FA8
:100AC0008BB04FF0000801F10C000C464FF0010B09
:100AD00046460DF1080A019062690121019890478C
:100AE000051E2DD0252D2CD0216A8847C0B1626902
:100AF000012101989047216A88470028F7D1411EBB
:100B000062690198904700E0761CA1690B988847BC
:100B1000216A88470028F7D1E1690B988847DBE70D
:100B2000A1690B9888470746A84201D1761CD3E7F4
:100B3000E1690B9888477F1C02D1B8F1000F6FD094
:100B400046E1002762693D463946019890472A28C8
:100B500004D162690121019890470125DFF8849250
:100B60006269012101989047A0F130010A290AD257
:100B70004F45E5DC07EB870100EB4107303FDFD451
:100B800045F01005ECE7E90601D46FF000476C284A
:100B90000AD04C2814D0682815D06A280DD07428A3
:100BA0001CD07A281AD01DE0626901210198904773
:100BB0006C2802D045F0040514E045F002050DE074
:100BC00045F020050AE062690121019890476828F4
:100BD00002D045F0080505E045F400656269012191
:100BE00001989047C4E9015765283DD019DC582881
:100BF0007AD00CDC452837D004DC252826D04128C3
:100C000031D131E046282FD047282CD12CE05B2869
:100C100077D0612828D063287CD0642823D15AE07B
:100C2000D0E06F2848D008DC66281DD067281BD08C
:100C3000692821D06E2816D127E0702845D0732866
:100C400068D0752847D078280DD14DE0A1690B9860
:100C50008847054625283FF469AFE1690B98884726
:100C60006D1C3FF46AAFB3E023466A466FF00100A3
:100C70000B99AFF300809EE045F040006060A8074C
:100C800023464FF0000236D43EE0E8077FF447AF3A
:100C90002068011D21600068290501D506701BE749
:100CA000290701D5068017E7A90703D5F117C0E981
:100CB000006111E706600FE745F040006060A8079B
:100CC00023464FF0080216D41EE040F60E0125EA36
:100CD0000100606016E045F040006060A807234610
:100CE0004FF00A0207D40FE045F040006060A8070B
:100CF00008D5234610226FF001000B99AFF3008056
:100D000059E007E0234610226FF001000B99FFF72E
:100D100009FB50E04FF000094F464B46632802D0D4
:100D20005B2806D040E0E80601D40120A06001273E
:100D30003AE062690121019890475E2805D14FF0A1
:100D400001096269494601989047216939B9002132
:100D50000A46534643F82120491C0829FADBB0B360
:100D6000216969B9C11700EBD16253110AEB830104
:100D700022F01F02821A01200B68904003430B608F
:100D800062690121019890475D28E8D1B9F1000F0F
:100D900009D00020514651F82020D24341F82020AC
:100DA000401C0828F7DB02AB224600976FF00100D9
:100DB0000B99AFF3008000280CDA401C08D1BBF17E
:100DC000000F05D04FF0FF300DB0BDE8F08FFFE70A
:100DD0004046F9E7E90701D108F1010806444FF060
:100DE000000B79E6CCCCCC0C7F2801D9002208E09E
:100DF000064A02EB5002C007127800D1120902F035
:100E00000F0201209040084070470000D86E00009B
:100E100070B58C1810F8015B15F0070301D110F8BC
:100E2000013B2A1106D110F8012B03E010F8016BE9
:100E300001F8016B5B1EF9D12B0705D40023521E6C
:100E40000DD401F8013BFAE710F8013BCB1A921CD4
:100E500003E013F8015B01F8015B521EF9D5A142D2
:100E6000D8D3002070BD00001FB504460D480068AF
:100E700010B90D48806830B10A48006801280FD1C8
:100E80000948806860B95CB1084B0FCB8DE80F0052
:100E900001234FF47A726946054804F0D3F800BF85
:100EA0001FBD000010C1014000C00140A46C000043
:100EB000CC0000202DE9F04F89B04FF00008002051
:100EC00008904FF4807007900126002413E00798E3
:100ED00004F0E8FE48B100BF81480068304020B10E
:100EE000079804F0D1FE48EA060876000798001D2E
:100EF00080B20790641C082CE9D34FF4BE7004F054
:100F0000D1FE50B14FF4BE7004F0BEFE48F0004870
:100F100008AA0121002004F09DFE08F0FF0000B3A4
:100F2000012600241BE006EA0800B0B100BF6D48AE
:100F300050F82400C0F30420074600BF694850F869
:100F40002400C0F301408146204601F0B5F8054673
:100F500015B149463846A84700BF7600641C082CE6
:100F6000E1D308F0004000287ED0002006900590D4
:100F7000002505E04FF0FF3004A941F825006D1C65
:100F8000002DF7D000BF0020069000246FE05648E7
:100F9000005D0390039820F0C00753480057401CA1
:100FA000002863D004A9384603F034FE00285DD041
:100FB00003984FEA901A384601F0C6F8814601F0CE
:100FC0007BF80290029810B9BAF1030F4BD1BAF135
:100FD000030F11D1394605A80246CB0801F00701DD
:100FE00012F803C04FF0010E0EFA01FE4CEA0E0C8F
:100FF00002F803C000BF00BF00BF00BF4FF0A04118
:10100000084600F5E06151F82710C1F3014900BF1F
:1010100008A9384603F0FEFD8346BBF1000F02D05D
:10102000B9F1020F05D0BBF1000F1BD1B9F1030FCD
:1010300018D1BAF1030F0FD1B9F1020F01D103207A
:1010400000E0022001903846019904F0A5FD0698C1
:10105000401CC0B2069000BF029818B151463846F5
:10106000029A904700BF00E036E000BF641C042CE9
:101070008DD3069858B3012703AA0121002004F05C
:10108000E9FD00250AE003A850F8250008A951F859
:101090002510884201D0002702E06D1C002DF2D0FF
:1010A00000BF17B10020069010E000250CE003A857
:1010B00050F8250008A941F8250005A850F825009A
:1010C00004A941F825006D1C002DF0D000BF069842
:1010D00000287FF458AF00BF09B0BDE8F08F0000D2
:1010E0000463004010650040640C0020132804D104
:1010F000024A1278521C014B1A70704714010020EA
:1011000010B54FF4807003F090FD60B14FF4807023
:1011100003F094FD012003F09BFD01200B49487072
:10112000002001F025F84FF4827003F07EFD58B1E5
:101130004FF4827003F082FD022003F089FD01204C
:101140000249887001F014F810BD0000B00C0020B6
:1011500010B50249024802F06BFE10BDC801002024
:1011600000C00140FEB54FF4827004F0F9FD002884
:1011700037D04FF4827004F0FDFD6C4890F82E00DB
:1011800018B16A4890F82F0058B300208DF800007D
:1011900066484068019065480189ADF80810C0684C
:1011A00018B900206149087412E06048008B5F495B
:1011B00048830846C06848600846008B08810020C4
:1011C000C860084690F82E0010B9002004F0EAFD2F
:1011D00056480168684688470020544981F82F0026
:1011E00000BF524890F82E00002852D04FF4807073
:1011F00004F0B6FD00284CD04FF4807004F0BAFD26
:101200004A48408B494991F82D10884216DD4748DD
:10121000408B464991F82D10401A444948830A46AC
:1012200012890B465B8BD21A0B465B6803EB4200BC
:101230000A4692F82D1004F07FFD23E03B48408BD6
:101240003A4991F82D1088420FD13848C06860B1F2
:101250000120364981F82F00002048830A4692F881
:101260002D10D06804F068FD0CE03048408B2F4909
:1012700091F82D10884205D101202C4981F82F00CA
:10128000002048834FF4827004F074FD042004F0C1
:1012900089FD4FF4887004F063FD70B14FF48870DD
:1012A00004F068FD00202149087402208DF8000038
:1012B000084601686846884700BF4FF48A7004F00A
:1012C0004FFD38B14FF48A7004F054FD00201749E7
:1012D00008742AE01548456924E0B5FA85F64FF010
:1012E0000040F0408543B00000F58C74204604F0C7
:1012F00037FDB8B1204604F03DFD01208DF8000017
:10130000A4F58C70C0F3C7008DF80400A4F58C70B0
:10131000012121EA90018DF8051004480168684612
:10132000884700BF002DD8D100BFFEBDC40C0020EF
:1013300010B5034C21464FF0402002F0CBFD10BD0C
:101340006C0C002010B500F0DDFF10BD0148024913
:10135000086070470090D003F801002010B502F03B
:10136000F5F928B18E480088C0F304208D49086043
:1013700002F040FA10B18C488C49486702F052FAEA
:1013800030B18748E0380068C0F3423088490860CF
:1013900002F072FA28B18748006820F08070854911
:1013A000086002F081FA48B10020834908604FF0DC
:1013B0008041C1F810017E49091F086002F09EFAC1
:1013C00018B103207A496431086002F0AFFA68B1BD
:1013D00005207A49086001207849783108600020AA
:1013E0007649083108603F20091F086002F0B6FA0C
:1013F000002855D06A48E0300068714908606848A4
:10140000E4300068091D08606548E8300068091D7F
:1014100008606348EC300068091D08606048F030DF
:101420000068091D08605E48F4300068091D086006
:101430005B48F83000686249203108605848FC3049
:101440000068091D08605F480068091D08605D4864
:10145000001D0068091D08605A4808300068091D11
:10146000086058480C300068091D08605548103065
:101470000068534940310860524814300068091D23
:101480000860504818300068091D08604D481C303D
:101490000068091D08604B4820300068091D08607D
:1014A00002F02AF930B13E48CC38006800F04F0015
:1014B0004549086002F074F940B14448006800F002
:1014C000010018B16FF001004049086039487438D4
:1014D000006840F4700037497439086000BF00BFED
:1014E00000BFBFF34F8F00BF00BF00BF00BF00BFF2
:1014F00000BFBFF36F8F00BF00BF00BF344800685C
:1015000000F0004028B93248001D006800F000409B
:10151000F0B301202F49086000BF2F480068002861
:10152000FBD015202A49086000BF2B48006800281E
:10153000FBD015212648001D016000BF2648006829
:101540000028FBD000202349086000BF2248006823
:101550000028FBD000BF00BF00BF00BF00BFBFF32B
:101560004F8F00BF00BF00BF1248F038006800F482
:10157000E0601A490843001D0E49F039086000BFB9
:1015800000BF00BFBFF34F8F00BF00BF00BF00E030
:1015900002E000BF00BFFDE7FFF7D8FE10BD00006E
:1015A00024030010403501400DF0ADBA00C00740E3
:1015B0003C050040FCED00E00C01004010560040EE
:1015C00020C5004024040010E40E00400004004048
:1015D0000012001004E5014000E401400000FA059B
:1015E00000200449086004480068401C0249086063
:1015F0007047000040810040D001002010B506482F
:10160000007F20B10449054805F077FA03E002495C
:10161000024805F0D1F910BD900C002000200040D8
:1016200009490A680968491C074B19600749885429
:101630000021064A1B68D15403490968C82902DB06
:101640000021014A11607047F00100202C0D00209C
:1016500070B504460D4607E000BF207800F028FC76
:101660000028FAD1641C6D1E002DF5D170BD00005C
:101670000FB4084B10B504A902AA039800F046F96C
:10168000044602A9002000F0EBF9204610BC5DF8EA
:1016900014FB0000611A000002E008C8121F08C114
:1016A000002AFAD170477047002001E001C1121FE3
:1016B000002AFBD1704710B5002202212C2001F036
:1016C000B4FF022211462C2001F0AFFF10BD2DE91E
:1016D000F04705460E46002000244CE0002371B27E
:1016E0004FEAC40925FA09F9C9F342174FEAC409B8
:1016F00025FA09F909F01F0221E002EB0109B9F10D
:10170000140F0BDDA3F101094FFA89F30BB9012383
:101710001FE0A1F105094FFA89F110E002EB010980
:10172000B9F1040F0BDA03F101094FFA89F3082B21
:1017300001D107230DE001F105094FFA89F102EB10
:101740000109B9F1040FD8DB02EB0109B9F1140F5B
:10175000D3DC00BF07EB030909F0070C02EB01091A
:1017600009F01F0848EA4C194FEAC40A09FA0AF9B5
:1017700049EA0000641C042CB0DBBDE8F08710B51A
:1017800004466D2240F606012E2001F04EFF3CB1CA
:1017900040F2076241F606012E2001F021FF06E02B
:1017A00041F2076241F606012E2001F019FF10BD3B
:1017B00010B5002000F006F800220421362001F0C8
:1017C0000FFF10BD38B504466B46022200213620BB
:1017D00001F04CFC0F2C5FD2DFE804F012081B5E16
:1017E0005E5E5E24335E5E40474E570000208DF8FB
:1017F00000009DF8010000F0FE008DF801004CE0B3
:101800009DF8000000F0FC0040F001008DF80000A1
:1018100043E09DF8000000F0FC0040F002008DF86D
:1018200000003AE09DF8000000F0B30040F04800EE
:101830008DF800009DF8010040F080008DF8010057
:101840002BE09DF8000000F0B3008DF800009DF83B
:10185000010000F07F008DF801001EE09DF80100FE
:1018600040F002008DF8010017E09DF8010000F043
:10187000FD008DF8010010E09DF8000000F0CF00A1
:1018800040F020008DF8000007E001208DF80000F6
:1018900003208DF8010000E000BF00BF6B4601226D
:1018A0000021362001F0CBFE0DF10103012211468B
:1018B000362001F0C4FE38BD10B50E20FFF782FFC0
:1018C0004FF4004206212D2001F08AFE012000F095
:1018D000EDFC0120FFF776FF10BD70B504462246EF
:1018E00004212D2001F07CFE032206212D2001F091
:1018F0009CFE002206212D2001F097FE0A212D20BA
:1019000001F06FFB0546284670BD00002DE9FF4F32
:1019100089B09B460446002506E025280BD05A4690
:101920000B999047641C6D1C20780028F5D10DB0F0
:101930002846BDE8F08F0027B8460122474900E05D
:10194000074314F8013F203B02FA03F00842F7D1A5
:1019500020782E2819D114F8010F47F004072A28FF
:101960000ED06FF02F022078A0F1300109290CD899
:1019700008EB880102EB410100EB0108641CF2E76F
:101980000A98641C50F8048B0A9020780028CED066
:10199000642808D0692806D075281ED05A460B99AD
:1019A00090476D1C58E00A994FF00A0901C90A9145
:1019B000002802DA40422D2102E0390504D52B210E
:1019C0008DF82010012103E0F90704D02021F7E76A
:1019D0008A4608AE0DE00021FAE70A994FF00A099D
:1019E00001C90A91F7E74946FEF742FF303106F890
:1019F000011D0028F7D1ADEB060000F120097807A2
:101A000001D44FF00108C84502DDA8EB090000E051
:101A100000208046002706E008A85A46C05D0B99C2
:101A200090476D1C7F1C5745F6DB04E030205A467A
:101A30000B9990476D1CB8F10001A8F10108F5DC85
:101A400005E016F8010B5A460B9990476D1CB9F149
:101A50000001A9F10109F4DC641C65E70928010013
:101A60000A68531C0B601070704700000349097826
:101A7000034A127841EA4201417370473000002066
:101A800034000020014909780173704741000020AB
:101A900001710A0A42710A0C82710A0EC271704702
:101AA00001720A0A42720A0C82720A0EC2727047EE
:101AB00081750A0AC2750A0C02760A0E42767047D0
:101AC000027B01F00F0342EA031202737047000029
:101AD000F0B503460024002036E000EB400505EB9E
:101AE000C005394E56F825509D422CD100EB4005DB
:101AF00005EBC00546F82530012910D100EB400563
:101B000005EBC00506EB850585ED020A012500EB16
:101B1000400606EBC0062C4F07EB8606B56100EBCE
:101B2000400505EBC005284E06EB85052A6147F206
:101B3000305500EB400606EBC006234F07EB860648
:101B40007561012402E0401C1428C6DB00BF9CBB69
:101B5000002034E000EB400505EBC0051A4E06EB13
:101B600085056D694DBB00EB400505EBC00546F8EA
:101B7000253000EB400505EBC00506EB850585ED3E
:101B8000020A47F2305500EB400606EBC0060E4F46
:101B900007EB86067561012500EB400606EBC006E3
:101BA00007EB8606B56100EB400505EBC0053E4638
:101BB00006EB85052A6104E004E0FFE7401C1428D9
:101BC000C8DB00BFF0BD00006406002000B503467E
:101BD000184600F043F8044801681846FFF758FF1C
:101BE0001846FFF74FFF00BD2800002070B50446DF
:101BF00001F0E0FF164A03C21648008800F2465082
:101C00000004C117124B0CCB80185941000A40EA5E
:101C10000165284601F056FB25F00100002109026C
:101C200041EA1061020244F24803D21841F1000176
:101C30000948C0E9002106480CC804F10E0004F070
:101C400060FA05480CC804F1120004F05AFA70BD9D
:101C5000180000200C000020200000200149096825
:101C6000016070470800002000BF1348006800F0C2
:101C7000010000B100BE00BF00BF00BF00BF00BF39
:101C800000BFBFF34F8F00BF00BF00BF0A48E4385A
:101C9000006800F4E06009490843001D0649E43982
:101CA000086000BF00BF00BFBFF34F8F00BF00BF81
:101CB00000BF00BF00BFFDE7F0ED00E00000FA0547
:101CC0003EB50446002000900190029002946A46BE
:101CD000002144F20100FFF7C7FF3EBD01F0B2FF53
:101CE00000BF3F48006820B13D480068401E3C49A5
:101CF00008603C480078012802D102F03DF90BE071
:101D000039480078022801D102F028FC36480078D2
:101D1000012801D102F038FC3448007820B10020BD
:101D20003249087000F000FD314800780028D8D012
:101D300000202F49087000BF00BF00BF2D49086078
:101D40004FF48070091F086000BF00BF00BF00BFD4
:101D500000BF00BF0020091D08604FF40040091FAC
:101D6000086000BF00BF00BF4FF47A7000F09EFA19
:101D700004F0E2F820480178204804F0EBFC1E480B
:101D800000F07EFD1D4800781D4908701B48406822
:101D90004860084600F0B4FE4FF47A7000F086FA0E
:101DA00000BF00BF00BF00201249091F08604FF4A8
:101DB0000040091D086000BF00BF00BF012000F007
:101DC00051FA00BF00BF00BF00200A49091F086088
:101DD0004FF48070091D086000BF00BF81E700005C
:101DE0004400002042000020410000209700002015
:101DF000950000200C050050B8000020D40B0020F6
:101E0000C40000202DE9F04188B0044688461646FB
:101E10001F46202220496846FEF71EFA6069069098
:101E2000207C08B1012000E000208DF814008DF81E
:101E30001C70607C08B10E2000E000208DF81500B9
:101E4000E0680290A06803902068019060680090AC
:101E500012480660002012490870124A694612486A
:101E600003F0B0FB054600BF1DB1284608B0BDE831
:101E7000F08100BF2068401C58B19DF81D0010B9CA
:101E8000094803F04BFC01220849074803F0DCFB3A
:101E9000ECE70020EAE70000C86D0000D801002050
:101EA000D6010020DD680000DC010020D501002003
:101EB00070B504460848047001220146074803F043
:101EC00011FD0546112D01D1042070BD0DB1032077
:101ED000FBE70020F9E70000D4010020DC0100202E
:101EE00070B505460C462068401C28B1206803F0F8
:101EF000A5FE206803F044FE6068401C18B1002174
:101F0000606803F024FE28792D4901EB4010007F22
:101F100050B32868A169C0F8241500BF617D227DF7
:101F2000286841EA0203C0F86C3500BFD4E900120A
:101F3000286803F0A5FF207D01283FD1A068401C40
:101F400018B10021A06803F002FEE068401C28B12F
:101F5000E06803F073FEE06803F012FED4E90221AA
:101F6000286803F079FF29E02868A169C0F82415E2
:101F700000BF617D227D286841EA0203C0F86C350C
:101F800000BFD4E90012286803F04DFF207D01282E
:101F900014D1A068401C18B10021A06803F0D7FD3F
:101FA000E068401C28B1E06803F048FEE06803F0F8
:101FB000E7FDD4E90221286803F01EFF70BD000090
:101FC000900C002070B52DED0A8B82B001F003F962
:101FD000044601F091F8054601F024F80646FEF7A4
:101FE000CFFB41EC1B0B9FED250B53EC102BFEF7A9
:101FF000E6FA41EC1A0BFEF71FFC09EE100A01A9E4
:10200000204804F06EF869461E48001D04F069F887
:10201000281B08EE100ADDE90001401A08EE900ABC
:10202000B7EE000A70EE490AB8EEC80AB8EEE81A30
:1020300001EE600AF0EE000A80EE201A11EE106A3E
:102040003046FEF7E6FB41EC1C0B9FED0F0B53EC0B
:10205000102BFEF7B4FA41EC1B0B9FED0D0B53EC6C
:10206000102BFEF7ACFA41EC1A0BFEF7E5FB00EE85
:10207000100A02B0BDEC0A8B70BD0000143BB11316
:102080003BB103BE12020020FA48CE3B1835B13DE9
:102090000000001319DDB1414FF0FF31054A42F84D
:1020A0002010082804DBFF23A0F10801503253540C
:1020B00070470000140C00200146024850F821002F
:1020C00070470000140C00202DE9F04F03460C4629
:1020D0004FF0FF390AB1002000E0082084460AB121
:1020E000082000E00C208046614624E0154850F8A6
:1020F0002100401CF0B91D460846274616464FFAF7
:1021000080FBDFF840A00AF1300A0AF805B0DFF8DA
:1021100034A04AF820704EB94FFA85FBA0F1080AA6
:10212000DFF820E00EF1500E0EF80AB000BF4FFAB3
:1021300081F902E0491C4145D8D300BF4846BDE8BB
:10214000F08F0000140C00200146014840567047F3
:10215000440C002010B50446042204492046FEF732
:10216000B8F808B9012010BD0020FCE708000020E5
:1021700070B505460DB9094C01E0084C083409E07A
:10218000204601F0B8FE064606B904E0284671680C
:10219000884700BFF4E700BF70BD0000B80C002006
:1021A0002DE9FF4F03460C46002047E0225CFF2A42
:1021B0003ED0C2F3C01922F080014DF82010B9F1D1
:1021C000000F0DD05DF8201000BF4FF0A0452E4647
:1021D000012707FA01F5C6F8085500BF00BF0DE05A
:1021E0005DF8201000BF4FF0A0452E46012707FAEA
:1021F00001F5C6F80C5500BF00BF00BF5DF8201008
:1022000001252E460027BC46B84600BF4FF0A04B24
:10221000DA4645EA460B4BEA870B4BEA0C2B4BEAB6
:10222000084E0AF5E06B4BF821E000BF00BF03E069
:102230004FF0FF314DF82010411CC8B20428B5DB27
:102240006D461A68002107E055F8217002F5AC666A
:1022500046F821704E1CF1B20429F5DB00BFBDE841
:10226000FF8F000010B504460D4800F0E3FA00228D
:102270000C490C2001F017FA002211460C2001F045
:1022800025FA002001F04CF902E0074800F00EF8B2
:10229000002CFAD1044800F009F801F0FDF810BD57
:1022A00080E7010000010020C0D4010010B5044601
:1022B000204602F0D3FC10BD70470020704700009C
:1022C000002019E000EB400101EBC0010C4A02EBD9
:1022D0008101496979B100EB400101EBC00102EBDA
:1022E00081014969491E00EB400202EBC002044B28
:1022F00003EB82025161401C1428E3DB70470000AD
:102300006406002010B5E048006828B1DE48006887
:10231000401EDD49086008E00A20DB490860DB4810
:10232000007880F00100D9490870D948006828B1C8
:10233000D7480068401ED649086008E03220D449DA
:102340000860D448007880F00100D2490870D24873
:10235000006828B1D0480068401ECF49086008E0F6
:102360006420CD490860CD48007880F00100CB4959
:102370000870CB48006828B1C9480068401EC849A9
:10238000086008E0FA20C6490860C648007880F076
:102390000100C4490870C448006828B1C2480068F8
:1023A000401EC149086009E04FF4FA70BE49086058
:1023B000BE48007880F00100BC490870BC48006845
:1023C00028B1BB480068401EB949086009E04FF4D5
:1023D0007A70B7490860B748007880F00100B549C5
:1023E0000870B5480068401CB3490860B3480068ED
:1023F00020B1B2480068401EB0490860B04800688B
:1024000020B1AF480068401EAD490860AD48006883
:1024100028B1AC480068401EAA49086014E0A948E9
:10242000406840B1A7484068401EA6494860002067
:10243000A549087008E06420A24908604FF4FA60DA
:1024400048600120A0490870A048006828B19F4852
:102450000068401E9D49086014E09C48406840B1F7
:102460009A484068401E9949486000209849087081
:1024700008E032209549086040F6C4104860012009
:10248000934908709348006828B192480068401E3C
:102490009049086014E08F48406840B18D4840681A
:1024A000401E8C49486000208B49087008E03220AB
:1024B000884908604FF47A704860012086490870A6
:1024C0008648006828B185480068401E8349086036
:1024D00014E08248406840B180484068401E7F490F
:1024E000486000207E49087008E014207B4908609D
:1024F0004FF47A7048600120794908707948006883
:1025000028B178480068401E7649086014E0754894
:10251000406840B173484068401E724948600020DE
:102520007149087008E014206E49086041F2883053
:10253000486001206C4908706C48006828B16B48FD
:102540000068401E6949086014E06848406840B16E
:1025500066484068401E654948600020644908702C
:1025600008E0C820614908604FF47A704860012093
:102570005F490870FFF7A4FE5E48006820B15D481F
:102580000068401E5B4908605B48006820B15A48FB
:102590000068401E584908605848006820B15748F4
:1025A0000068401E554908605548006820B15448ED
:1025B0000068401E524908605248006820B15148E6
:1025C0000068401E4F4908604F48006820B14E48DF
:1025D0000068401E4C4908604C48006820B14C48D7
:1025E0000068401C4A4908604A48006820B14A48CF
:1025F0000068401C484908604848006820B14748C6
:102600000068401E454908604548006820B14448BC
:102610000068401E42490860002032E000EB4001A3
:1026200001EBC0013F4A02EB8101496A79B100EB3D
:10263000400101EBC00102EB8101496A491E00EB38
:10264000400202EBC002374B03EB8202516200EB07
:10265000400101EBC001334A02EB8101096A79B103
:1026600000EB400101EBC00102EB8101096A491E48
:1026700000EB400202EBC0022A4B03EB8202116224
:10268000401C1428CADB10BD1C010020640100207E
:1026900020010020650100202401002066010020A7
:1026A00028010020670100202C0100206801002083
:1026B0003001002069010020F400002048000020C3
:1026C0004C000020340100206A0100204401002059
:1026D0006D0100203C0100206B010020540100200E
:1026E0006E0100204C0100206C0100205C010020E4
:1026F0006F01002070010020100000201400002055
:10270000840000209C000020A0000020A8000020E1
:10271000A40000208C0000209000002088000020F1
:10272000F80000206406002008B5064800780090F4
:1027300005480EC8054803F0B7FF044800F0E0F96B
:1027400008BD0000B8000020D40B0020C400002009
:102750002DE9FE4F06464FF00008C246C146002153
:10276000362000F053FC02900421362000F026FCB5
:1027700001900021282000F034FC0090012200216B
:10278000362000F052FF00220421362000F028FFFE
:10279000274A0021282000F034FF22220021362081
:1027A00000F043FF802480254FF4967B00272BE028
:1027B0006D102C4322460B212A2000F036FFBC224C
:1027C00008212A2000F031FFBD2208212A2000F034
:1027D0002CFF0120FFF76AFD09212A2000F0EEFB03
:1027E000C0F30B09A9EB0600002801DB014600E05D
:1027F00041428846D84501DAC346A246B14501DDCB
:102800002C4300E0AC437F1C072FD1DB0021362096
:10281000029A00F00AFF04213620019A00F0E0FE3F
:1028200000212820009A00F0ECFE5046BDE8FE8F03
:1028300000A71F0010B50446FEF7BAFF4FF4FF12C1
:102840000021282000F0DDFE0C4A0021282000F0A5
:10285000D8FE0220FEF7B6FF0D20FEF7B3FF042CD2
:1028600000D20424224600210A2000F0CAFE1022D1
:1028700024212F2000F0D9FE10BD000000FF5F00D2
:102880002DE9F05F04464FF00009CA4625786079CB
:10289000854931F810806078401EC6B2042D01D001
:1028A000072D01D1012000E000208346E07950B9D6
:1028B0007E480068006940F480007C49096808612E
:1028C0004FEAE80807E079480068006920F48000D2
:1028D000764909680861207A7449096888727348E2
:1028E0000068006920F440307049096808616F4849
:1028F00000680069217A4FF4403202EA014108433E
:102900006A49096808616948006800210269042071
:1029100000F077FE424642F604012E2000F060FEF1
:102920003046FEF72CFF6248405D624951F8202096
:1029300007212B2000F065FE5D48405D5E490A5C82
:102940000B212B2000F071FE5C4810F80B200B21AE
:10295000282000F06AFE5648405D594951F8202071
:102960000C21282000F04DFEE079564901EB800053
:10297000A17930F811200221272000F031FE5248C1
:1029800030F816200421272000F02AFEE07928B92B
:1029900064220621272000F023FE17E0A0780428F7
:1029A0000AD110220621272000F01AFE102226212B
:1029B000272000F03AFE09E020220621272000F01F
:1029C0000FFE28222621272000F02FFE3F4800EB93
:1029D0000610E17850F821200821272000F011FE90
:1029E000608910B941F2410060816289202127206D
:1029F00000F0F6FD36480C210268232000F001FEAD
:102A00003348001D30F816200421232000F0E8FD93
:102A1000A07950B1E0792F490A5C0021212000F013
:102A200004FE4FF003094FF0010A05F00F00F021FA
:102A300001EA0511084361784FF4402202EA81411E
:102A40000843910001EA095108434FF4003101EABB
:102A50004A41084321794FF0F86202EA8151084364
:102A60006179520102EAC16140EA01073A46002158
:102A70001F2000F0C6FDA078617808430004E179CA
:102A800040EA413009490968C860084800680021E7
:102A9000C268082000F0B5FD422200210D2000F0A0
:102AA000C4FDBDE8F09F0000646E0000E40100205A
:102AB000E86D0000086E0000206E0000266E000029
:102AC000F06D0000346E0000406E0000446E0000A7
:102AD000286E0000306E000070B504460D460748B1
:102AE0000068C08A0443224600212C2000F078FDB3
:102AF0002A4606212C2000F098FD70BDE40100203C
:102B000010B5044622780B212A2000F08EFD00210A
:102B10001E20626800F075FD10BD000010B52DED9F
:102B2000088B044610490968497A601AFDF728FEA7
:102B300041EC1B0B9FED0D0B53EC102BFDF73FFDF4
:102B400041EC1A0B9FED0B0B53EC102BFDF790FC97
:102B500041EC190BFDF770FE08EE100AB0EE480AC2
:102B6000BDEC088B10BD0000E40100203D0AD7A396
:102B7000703DF23F000000000000374010B5FEF746
:102B80009AFD10BD70B500210E2000F02AFA05460E
:102B9000FFF793FB0446002211460E2000F031FDA2
:102BA000402200210D2000F040FD0A4A00210F20A4
:102BB00000F027FD00F0EAFC2A4600210E2000F07C
:102BC00020FD2046FFF778FB00200349096848757F
:102BD00070BD0000F8FF2724E401002001480068D0
:102BE00000687047E40100202DE9F041044600250B
:102BF000002700207B49096808757A4909684875EB
:102C000078490968C88277490968886275490968FE
:102C1000C86274490968086372490968486300F02A
:102C20001FFA7149884202D08817BDE8F08104F08C
:102C3000020008B900F030FC04F0020010B104F00A
:102C4000F80010B90020FEF7BDFD04220021242069
:102C500000F0EBFC04F0020098B90420FEF73DFE02
:102C60000746F8B2E0B1022212212D2000F0DDFC6F
:102C70005C480068C08A40F480505A490968C8829C
:102C80000EE03021282000F0ACF9B0F1883F07D0E9
:102C900054480068C08A40F4805052490968C8828C
:102CA00004F0020028B104F0020058B104F008005A
:102CB00040B11E20FEF711FE85B2280A4949096875
:102CC000C87203E0002047490968C87204F0020096
:102CD00030B905F01F0000B91025E8B200F0D0FBB4
:102CE00004F0100030B10620FEF7F7FD3D490968F9
:102CF000086003E000203B490968086004F02000F8
:102D000030B10720FEF7E9FD36490968486003E065
:102D1000002034490968486004F0400030B10820C0
:102D2000FEF7DBFD2F490968087203E000202D49FA
:102D30000968087204F0800030B10920FEF7CDFD6B
:102D400028490968487203E000202649096848724A
:102D500004F00200D8B904F0010050B1FEF7ACFD58
:102D600020480068C08A40F400601E490968C88293
:102D700018E00521362000F021F906464FF6FF50F5
:102D8000064032460521362000F02AFC0AE004F015
:102D9000040038B913480068C08A40F40060114943
:102DA0000968C8820120FEF70DFD00220A212C20AF
:102DB00000F03BFC0021042000F013F909490968E8
:102DC0000861084800680069C0F3014005490968C6
:102DD00088720021082000F004F902490968C860DF
:102DE000002022E7E40100203001CADE70B564480B
:102DF000007820B162480078401E614908700021C7
:102E00000F2000F0EEF85F4909680446C86104F439
:102E1000804000285ED04FF4DE4200210F2000F0F9
:102E2000F0FB00215748006880F82410102000F0C3
:102E3000C5F80546C5F3090652480068807A08B906
:102E400006F07F064F480068068405F4004048B14C
:102E50004C48006890F8240040F00101494800689F
:102E600080F82410474803682233022200211120F1
:102E700000F0FCF804F00800B8B14248006890F88F
:102E8000220000F0200080B9082200210F2000F06D
:102E9000B8FB3C480068C06920F00800394909685F
:102EA000C861002037490968487536480068C06A1B
:102EB00030B134480068C16A324800681C30884725
:102EC00030480068007D20B1012203210D2000F070
:102ED000ACFB00BF04F08000D0B1F82200210F202D
:102EE00000F08FFB04F0080038B126480068407DF0
:102EF00018B1FFF747FE00F0A2F922480068806A87
:102F000030B120480068816A1E4800681C3088473C
:102F100004F40810C0B14FF4003200210F2000F07B
:102F200070FB0020174909684875FFF72BFE00F079
:102F300086F914480068006B30B112480068016BD4
:102F4000104800681C3088470F482040B8B10E4A2E
:102F500000210F2000F055FB00200A490968487540
:102F6000FFF710FE00F06BF906480068406B30B1C7
:102F700004480068416B034800681C30884770BDF6
:102F800014010020E4010020009005242DE9F04107
:102F900005460E4617460020FEF714FC002406E006
:102FA000291988B2FEF799FC46F82400641CBC423B
:102FB000F6DB0120FEF706FCBDE8F081F8B504461B
:102FC0000D460026A9B2A0B26B46022200F04EF8D0
:102FD0009DF800009DF8011000EB012086B23046FC
:102FE000F8BDF8B505460E460027B1B2A8B26B464B
:102FF000042200F03BF8032404E01DF8040000EB79
:103000000727641E002CF8DA3846F8BD38B50446A8
:103010000D46A9B2A0B26B46012200F027F89DF838
:10302000000038BD38B500246B4603222821272034
:1030300000F01CF8022504E01DF8050000EB042454
:103040006D1E002DF8DA04F4801010B1034804431B
:1030500001E0C4F31404204638BD00000000F0FF76
:1030600010B500210846FFF7BCFF10BD2DE9F8435D
:1030700006460C461746984600252CB9F2B228465B
:103080006D1C0DF800201BE0F0B240F04002284615
:103090006D1C0DF800207F2C05DCE2B228466D1C6B
:1030A0000DF800200CE0E0B240F0800228466D1CD4
:1030B0000DF80020C4F3C71228466D1C0DF800203F
:1030C000A8B243463A46694602F0A0FFBDE8F8833D
:1030D00070B504460D46164623462A463146112051
:1030E000FFF7C4FF70BD10B504462346052200213A
:1030F0001520FFF7BBFF10BD10B500211520FFF70D
:1031000070FF10BDF8B5044680208DF800006B46B6
:1031100001221121282000F092FA0A208DF80000E7
:103120006B4601221221282000F089FA0F208DF829
:1031300000006B4601221221282000F080FA012CA9
:103140001BD100208DF800006B46012200212A20AF
:1031500000F075FA01208DF800006B460122002175
:103160002A2000F06CFA0120FFF7A0F86B4602223B
:1031700003212A20FFF77AFF1DE00020FEF722FB43
:1031800000208DF800006B46012200212A2000F06B
:1031900056FA01208DF800006B46012200212A20FA
:1031A00000F04DFA6B46022203212A20FFF75EFF52
:1031B0000120FEF707FB9DF800609DF801500020FC
:1031C0008DF800006B46012200212A2000F037FA1A
:1031D00046EA0520F8BD10B500211720FFF701FFD2
:1031E00010BD70B5044604F0040008B900F0CEF933
:1031F0004FF4807504F0010008B145F400752A46CB
:1032000000210D2000F0ECF904F00100A8B1032129
:103210000F20FFF7FBFE064606F0080068B1FFF737
:10322000B1FC04F0020028B94FF4807200210D2097
:1032300000F0D6F94FF0FF3070BD0020FCE710B56C
:10324000E0220321362000F0F0F9F022032136209D
:1032500000F0EBF910BD000010B5064C2468A06228
:10326000044C2468E162034C24682263014C246806
:10327000636310BDE401002010B5044664B110483A
:103280000068006920F480500D4909680861012038
:103290000B49096808750BE009480068006940F4AB
:1032A00080500749096808610020054909680875C8
:1032B0000348006800210269042000F0A2F910BD53
:1032C000E401002010B50446224601210A2000F046
:1032D00098F910BD2DE9F04105460E46FEF7EDFFC9
:1032E0000746022E05D12A4600210E2000F089F95A
:1032F0000EE000210E20FFF774FE0446012E01D1DE
:103300002C4300E0AC43224600210E2000F079F966
:103310003846FEF7D1FFBDE8F08170B5054605F0EF
:10332000010080B300212620FFF75BFE044624F451
:10333000705444F4A05422460021262000F061F984
:1033400000213620FFF74DFE044644F404042246D3
:103350000021362000F055F94FF4887405F0020082
:1033600008B144F4702422462821362000F049F99F
:1033700005F00200A0B124F4702422462821362052
:1033800000F03FF90CE0FFE700212620FFF729FEBF
:10339000044624F4705422460021262000F031F91E
:1033A00070BD10B5044622462421272000F018F9EC
:1033B00010BD10B50446224641F604012E2000F04F
:1033C0000FF910BD70B5044603210420FFF71EFE5F
:1033D0000546002C14DD224600210C2000F000F9E7
:1033E00045F010050E480068006940F080500C4917
:1033F000096808612A460321042000F016F90EE04E
:1034000025F0100506480068006920F08050044946
:10341000096808612A460321042000F006F970BDFE
:10342000E401002010B5044600210420FFF7D9FD77
:103430000E490968086144B10C480068006920F42D
:1034400080200A490968086107E0084800680069A7
:1034500040F480200549096808610448006800219B
:103460000269042000F0CDF810BD0000E401002046
:1034700010B5044622460021182000F0B1F810BD16
:1034800070B5044604F01F0040F060052A460E2186
:103490002B2000F0CAF870BD10B5FEF789F90022A4
:1034A00011462C2000F09CF8002206212C2000F070
:1034B000BCF8FEF700F900220321362000F0B5F831
:1034C0000120FEF7F3FEF0220321362000F0ADF8D4
:1034D000002002490968487510BD0000E401002081
:1034E00070B504460D46FFF7BBFD0C49884209D074
:1034F00023462A4600210846FFF7B8FD0520FEF7BF
:10350000D5FE01E0002070BDFFF7AAFD0349884207
:1035100001D08817F7E70020F5E700003001CADE88
:103520002DE9F041044600260025002704F00200A2
:1035300020B18025012014490968487504F0010074
:10354000C0B145F006052A4600210D2000F06DF8B7
:1035500003210F20FFF732FD074607F4816008B909
:1035600000260EE0402200210D2000F05EF84FF012
:10357000FF3606E045F002052A4600210D2000F046
:1035800054F83046BDE8F081E401002010B5032175
:103590000F20FFF73BFD044604F0800004F04001DB
:1035A000B0EB410F04D0012203210D2000F03DF8C3
:1035B00010BD000010B54FF47A710848FFF790FF76
:1035C00044F24800FFF7F5FE44F24800FFF750FFD1
:1035D0000020FFF7F7FE00F0A7FB10BD7C020020E3
:1035E000F8B505460E461446E0B28DF800002012EC
:1035F0008DF80100B1B2A8B26B46022200F01FF8AC
:10360000F8BDF8B506460F461446002504E0E0B2C2
:103610000DF80500240A6D1C042DF8DBB9B2B0B218
:103620006B46042200F00BF8F8BD37B504460D4692
:10363000A9B2A0B202AB012200F001F83EBD2DE913
:10364000F84306460C461746984600253CB9F0B2AA
:1036500040F0800228466D1C0DF800201BE0F0B2FF
:1036600040F0C00228466D1C0DF800207F2C05DCC0
:10367000E2B228466D1C0DF800200CE0E0B240F0EC
:10368000800228466D1C0DF80020C4F3C71228469E
:103690006D1C0DF80020A8B243463A46694603F077
:1036A000B3FABDE8F88370B504460E4615462819EE
:1036B000B0F5806F07DCA21E334629460920FFF7CC
:1036C000BEFF002070BD4FF0FF30FBE72DE9F04159
:1036D00004460D46164607480068C068204340EA85
:1036E000855040EAC6373A4600210820FFF789FF97
:1036F000BDE8F081E401002013480078062820D1BD
:103700001148001D007800F00F00D0B90E480830B5
:10371000007800F0F000302801D1012070470A48FD
:103720000830007800F0F000402801D10120F5E7D2
:1037300005480830007800F0F000502801D1012041
:10374000ECE70020EAE70000E00F00F01348007803
:10375000062820D11148001D007800F00F00D0B9D4
:103760000E480830007800F0F000302801D1012028
:1037700070470A480830007800F0F000402801D176
:103780000120F5E705480830007800F0F0005028E7
:1037900001D10120ECE70020EAE70000E00F00F093
:1037A00013480078062820D11148001D007800F049
:1037B0000F00D0B90E480830007800F0F000302833
:1037C00001D1012070470A480830007800F0F0006D
:1037D000402801D10120F5E705480830007800F0C5
:1037E000F000502801D10120ECE70020EAE70000BA
:1037F000E00F00F00A48007806280ED10848001DA6
:10380000007800F00F0040B905480830007800F05B
:10381000F000302801D1012070470020FCE70000B3
:10382000E00F00F013480078062820D11148001D51
:10383000007800F00F00D0B90E480830007800F092
:10384000F000302801D1012070470A480830007884
:1038500000F0F000402801D10120F5E705480830CC
:10386000007800F0F000502801D10120ECE70020A2
:10387000EAE70000E00F00F00A48007806280ED1C1
:103880000848001D007800F00F0040B905480830D6
:10389000007800F0F000302801D1012070470020AE
:1038A000FCE70000E00F00F013480078062820D164
:1038B0001148001D007800F00F00D0B90E48083004
:1038C000007800F0F000302801D1012070470A484C
:1038D0000830007800F0F000402801D10120F5E721
:1038E00005480830007800F0F000502801D1012090
:1038F000ECE70020EAE70000E00F00F00A4800785B
:1039000006280ED10848001D007800F00F0040B9CD
:1039100005480830007800F0F000302801D101207F
:1039200070470020FCE70000E00F00F00A48007834
:1039300006280ED10848001D007800F00F0040B99D
:1039400005480830007800F0F000302801D101204F
:1039500070470020FCE70000E00F00F00A48007804
:1039600006280ED10848001D007800F00F0040B96D
:1039700005480830007800F0F000502801D10120FF
:1039800070470020FCE70000E00F00F070B505462E
:1039900000BF05B970BD00BF11480088288001F044
:1039A000B7FCD0B901210F4801F08EFB044600BFDF
:1039B000264626B100BF3046FEF782F900BF00BFA1
:1039C00001F0B0FC044600BF264626B100BF3046D9
:1039D000FEF776F900BF00BF00BF00BFDAE70000C6
:1039E00076010020740100203EB51D49002001F041
:1039F0003DFC044600BF254625B100BF2846FEF722
:103A00005FF900BF00BF174A07CA8DE80700694683
:103A1000002001F0B9FB044600BF254625B100BFD8
:103A20002846FEF74DF900BF00BF01210E4801F006
:103A30004BFB044600BF254625B100BF2846FEF7D4
:103A40003FF900BF00BF01F06DFC044600BF2546F2
:103A500025B100BF2846FEF733F900BF00BF3EBDC9
:103A60000D620000B86C00007401002010B504461F
:103A7000A07FFF2802D0A07F02F0D5F80020607759
:103A8000207204F10800D4E90021904710BD000025
:103A900010B5002821D0114B0022001F196803E047
:103AA000814203D80A4649680029F9D152B1136806
:103AB000841A9C4204D1006818441060104602E049
:103AC000506000E0186039B102680B1A934203D1CC
:103AD0000B681A4402604968416010BDFC01002077
:103AE00010B51E2002F087F818B94FF47A7010490B
:103AF00008601F2002F07FF818B94FF47A700D4962
:103B000008600B48006808B1012000E000200A4965
:103B100008700848006808B1012000E0002007494B
:103B2000087000F00FF8064880ED000A10BD000094
:103B300010000020140000207500002074000020F8
:103B40006C00002010B50748FFF720FF05480088EB
:103B500000EE100AF8EE400A9FED031A80EE810A8B
:103B600010BD00005C00002000007A440146487B44
:103B70007047014608794A7940EA02208A7940EA8A
:103B80000240CA7940EA026070470146087B00F0B3
:103B90000F0070470146087B001170470146087A04
:103BA0004A7A40EA02208A7A40EA0240CA7A40EA27
:103BB000026070477CB500210C460D466846FFF751
:103BC00092FA042607E0280240EA146524021DF850
:103BD00006000443761E002EF5DA204629467CBDF9
:103BE00038B501F0C1F910B901F08EF90446134857
:103BF0000068009001208DF80100114A69461320E9
:103C000001F014F9044600BF254625B100BF28463F
:103C1000FEF756F800BF00BF0121132001F0B0F8F5
:103C20000121132001F086FF03211E2001F082FFF5
:103C300003211F2001F07EFF38BD0000B46C00009E
:103C4000ED10000070B500202B49087002202B49B0
:103C5000087001202A490870274801782748007811
:103C600002F04CFB02F0AEFB02F08AF92348007828
:103C7000012803D02248007802280DD102F070FEFE
:103C800020A12448FDF7F4FC2248FCF71BFB044666
:103C900021462048FDF7DCFCFFF7A6FE1E48006821
:103CA0004FF47A72B0FBF2F0411E481EB0F1807FF3
:103CB00000D31BE0481E4FF0E0225061501707224E
:103CC000002807DA53071D0E144B00F00F04241FC1
:103CD0001D5503E053071C0E114B1C5400BF002060
:103CE0004FF0E02290610720106100BF00F032F831
:103CF00000200C49087070BD4000002042000020E8
:103D00004100002024302C73797374656D5F626FFD
:103D10006F740D00D4090020F801002018ED00E0B8
:103D200000E400E05000002010B5054B054A0649AC
:103D30000648FFF791FA01210548FFF7CBFA10BDBD
:103D4000AD610000F1610000C96100007968000008
:103D500080D023040820012181404209920002F111
:103D6000E022C2F8001100BF01200B49486000208A
:103D70000A490860091D0860042008490C310860E0
:103D800001200549C8600004054908600120024976
:103D9000C1F8000270470000008000400485004028
:103DA0000483004070B504460D4620791D4901EB9F
:103DB0004010007FF8B14FF48871206802F045F898
:103DC0004FF49071206802F040F84FF4927120682F
:103DD00002F03BF84FF4A271206802F036F8124965
:103DE000206802F042F8206800F0C0FF064629462D
:103DF00000F08CFF14E04FF48E71206801F0F5FFA5
:103E00004FF4A271206801F0F0FF0849206801F02A
:103E1000FBFF206800F0AAFF0646294600F076FF67
:103E200070BD0000900C0020100302008000020012
:103E300070B505460C464FF48871284601F044FFE2
:103E400068B14FF48871284601F045FF607900F0B1
:103E5000040020B1206810B10120216888474FF488
:103E60008A71284601F030FF68B14FF48A71284604
:103E700001F031FF607900F0080020B1206810B136
:103E80000220216888474FF48E71284601F01CFFFC
:103E900068B14FF48E71284601F01DFF607900F083
:103EA000100020B9206810B10020216888474FF425
:103EB0008271284601F008FF58B14FF482712846FC
:103EC00001F009FF01202071206810B10320216852
:103ED000884770BD70B505460C464FF4847128467E
:103EE00001F066FF2146284602F02DFB10B920465E
:103EF000FFF7BCFD70BD0146086808B102680A60A2
:103F0000704710B5FDF7EAFE002010BDF0B50B308C
:103F1000154D20F007010024144A0FE003688B427E
:103F20000BD38B4205D95E1A43184768C3E9006773
:103F300000E04368136002C004E0021D106800281E
:103F4000ECD12046002802D1286808B10020F0BD3D
:103F5000064A07481060074A121A22F00702C0E911
:103F6000002401202860D7E700020020FC01002087
:103F7000FC0E0020F82E002010B500F01FFB00F012
:103F80001DFA00F053F90548007810B100F0C8FAA6
:103F900003E000F0EBFC00F039F810BD94000020C5
:103FA00010B500BF00BF1448006858B1134800782E
:103FB00040B100BF0020124908604FF48050091F33
:103FC000086009E000BF00200D49091F08604FF498
:103FD0008050091D086000BF00BF00BF0949096883
:103FE00021B10949097809B1012100E00021084601
:103FF000FCF73AFF10BD0000480000206F010020D0
:104000000C0500504C0000206B01002010B5134837
:10401000006800B110BD19201049086000F022F8B6
:1040200018B901200D490860F4E7FEF7ABFD0C4814
:104030000021016041608160C160FDF7C7FD03217F
:104040000748FDF73DFD10220021054802F02EF93A
:1040500010B90020FFF7C5F800BFDBE7880000209B
:10406000E00B002010B50520154908600320FFF77C
:1040700098F90020FFF7B5F800BF00210F20FEF7E8
:10408000B0FF04460F49084018B90D4800680028E1
:10409000F3D004F4001010B90948006858B1FEF7D5
:1040A00071FDFFF7CCF80020FFF78CF90020FFF737
:1040B00078F9012010BD0020FFF773F90020F9E71F
:1040C000F800002000012000504991ED000A5049FD
:1040D000D1ED000AB4EEE00AF1EE10FA01DB0121A5
:1040E00000E0002108464B490978E1B100BF00BF5C
:1040F0004949496942F22832914208DD00BF002156
:10410000464A11604FF40041121F116009E000BFE0
:104110000021424A121F11604FF40041121D11602C
:1041200000BF00BF70E03E49097811B93D490978E8
:1041300099B300BF00BF3B49097841B100BF0021DE
:10414000364A11604FF40041121F116009E000BFB0
:104150000021324A121F11604FF40041121D1160FC
:1041600000BF00BF00BF00BF00BF2E49097841B9A2
:1041700000BF0021294A11604FF48071121F1160A5
:1041800009E000BF0021254A121F11604FF4807121
:10419000121D116000BF00BF36E0FFE700BF00BF87
:1041A00058B12149097841B100BF00211B4A116073
:1041B0004FF48071121F116009E000BF0021174AFF
:1041C000121F11604FF48071121D116000BF00BFFB
:1041D00000BF00BF00BF58B91349097841B100BF03
:1041E00000210E4A11604FF40041121F116009E0D6
:1041F00000BF0021094A121F11604FF40041121D37
:10420000116000BF00BF00BF704700006C000020BD
:104210006000002096000020640600200C0500507D
:1042200074000020750000206C0100200020BDE01B
:1042300000EB400101EBC0015E4A02EB81014969DC
:1042400051B99FED5D0A00EB400101EBC00102EBAB
:10425000810181ED070AA8E000EB400101EBC001FC
:10426000544A02EB810191ED020A00EB400101EB9F
:10427000C00102EB8101D1ED070AB7EE001A70EE22
:10428000810AB4EEE00AF1EE10FA2CDD00EB4001F9
:1042900001EBC00102EB8101096A21BB4FF47A7185
:1042A00000EB400202EBC002424B03EB8202516280
:1042B00000EB400101EBC0011A4602EB810191EDD8
:1042C000020A00EB400101EBC00102EB810181ED2C
:1042D000070A012100EB400202EBC00203EB82025D
:1042E00082F8281045E000EB400101EBC001314AA3
:1042F00002EB810191ED020A00EB400101EBC001EC
:1043000002EB8101D1ED070AB7EE001A70EEC10A87
:10431000B4EEE00AF1EE10FA2BD200EB400101EB13
:10432000C00102EB8101496A19BB4FF47A7100EBBD
:10433000400202EBC0021F4B03EB8202116200EB52
:10434000400101EBC0011A4602EB810191ED020A26
:1043500000EB400101EBC00102EB810181ED070A96
:10436000022100EB400202EBC00203EB820282F862
:10437000281000EB400101EBC0010E4A02EB810165
:10438000096A89B900EB400101EBC00102EB810130
:10439000496A49B9002100EB400202EBC002054B1B
:1043A00003EB820282F8281000BF401C1428FFF69D
:1043B0003FAF704764060020000000003EB50024B7
:1043C00073E004EB440000EBC400394901EB8000CA
:1043D0008069002868D0002004EB440101EBC4018F
:1043E000334A02EB8101886104EB440000EBC40016
:1043F000114601EB800090ED020A2E48D0ED000A34
:10440000B4EEE00AF1EE10FA0FD304EB440000EB37
:10441000C40001EB800090ED020A2748D0ED000AAD
:10442000B4EEE00AF1EE10FA3ED204EB440000EBE9
:10443000C4001F4901EB800090F82800002204EB23
:10444000440101EBC4011A4B03EB81010969CDE979
:104450000012029004EB440000EBC400194601EB8B
:10446000800090ED020ABDEEC00A10EE103A04EB97
:10447000440000EBC40051F8202010A11448FDF7BF
:10448000F7F81348FBF71EFF054629461048FDF7CD
:10449000DFF810480068401C0E49086008460068B4
:1044A000401C08B900200860641C142C89DB3EBD48
:1044B00064060020540000205800002024322C25DF
:1044C000752C25752C25752C25752C25750D000052
:1044D000D40900208000002010B50E48007870B18B
:1044E0000D48006838B94FF47A710C48FEF7F8FFB0
:1044F0000420FEF776FE01200749086008E0064820
:104500000068012801D1FEF739FB0020024908604C
:1045100010BD00006B010020DC0000207C020020A8
:1045200010B50B48007808B1FEF760FC0948007828
:10453000012805D10020FEF754FE0020054908702F
:1045400005480078012802D10420FEF74AFE10BD7C
:1045500014010020110100201001002010B50848AE
:10456000006808B100F0F0FA00F028F8054800787B
:1045700010B9022000F0E0F9FFF758FE10BD00006E
:104580002C0000209400002010B50A48007848B99B
:10459000FFF7A2FF00F0D8FA0748007810B905200D
:1045A00000F0CAF9FFF7FCFCFFF78EFDFFF798FA61
:1045B00010BD000074000020940000203EB533A11F
:1045C0003348FBF76DFE05462DB132A12846FBF7B7
:1045D00067FE044600E00024002D56D0002C54D085
:1045E0006A462DA12846FBF781FE009810B901F01C
:1045F00037FE40E00098012814D102AB01AA27A1A0
:104600002846FBF773FE9DED020AB8EE400A2648E5
:1046100080ED000A9DED010AB8EE400A234880EDC6
:10462000000A28E00098022805D1214A21A1284645
:10463000FBF75CFE1FE00098032805D11F4A20A16C
:104640002846FBF753FE16E00098042806D11E4BBF
:104650001E4A1FA12846FBF749FE0CE0009862287D
:1046600003D101201D49087005E00098632802D19C
:1046700001201B490870002500241A4801680448DD
:10468000FBF703FE0020174908603EBD2400000030
:104690002C0D00200D0000002425750024312C2550
:1046A000752C2575000000005400002058000020E3
:1046B0002C00002024322C25750000003C00002036
:1046C00024332C2575000000340000203000002029
:1046D00024342C25752C2575000000009400002042
:1046E00095000020F001002070B52DED028B82486E
:1046F000006800EB400101EBC000804901EB800045
:10470000406900287DDD7E480078012801D1FEF750
:1047100051FFFFF7A7FC28B901207A490860BDECDA
:10472000028B70BD28217848FBF7AFFD7648FDF776
:104730004DFA01217448FDF7C3F96F48006800EB9A
:10474000400202EBC0006D4A52F820106E48FDF79F
:10475000A7F96948006800EB400202EBC000674A15
:1047600002EB800090ED020ABDEEC00A10EE101AB6
:104770006548FDF79DF965480068401C634908607D
:1047800028220221604801F091FD00287ED10A20F4
:104790005F49086085E05F48007808B1FEF726FBB6
:1047A0005D48007800287CD000205949086001F05D
:1047B000FDFB0020584908705848FDF7CBFC002845
:1047C0006FD05648FFF7EAF955490968884268D121
:1047D00054480068401C53490860FDF7F3FBF2EEB3
:1047E000040A20EE200AB0EE408A4C48FFF7BEF9DA
:1047F000054605F0010018B14FF47A704A49086087
:1048000000E068E0C5F3400018B14FF47A70474902
:1048100008603948006800EB400101EBC0003749EF
:1048200001EB800090ED020ADFED410AB4EE600A70
:10483000F1EE10FA01D1012600E000262E480068B2
:1048400000EB400101EBC0002C4901EB800080ED42
:10485000028A42F210702849096801EB410202EB1A
:10486000C101264A02EB8101486101202249096801
:1048700001EB410202EBC101204A02EB8101886198
:104880002648FFF782F91C49096801E00FE008E0BB
:1048900001EB410202EBC101184A02EB8101086100
:1048A00000BF1B48006800287FF475AF04E0FEF7E6
:1048B000C6FC0020FEF786FD11480078012805D1CE
:1048C0001C48006828B9FEF759F902E00020FEF7FD
:1048D00088FC012400E0002426B907480068401C39
:1048E0000549086004480068142802DB00200249DA
:1048F0000860204613E70000E00000206406002066
:104900004100002084000020540200207C00002090
:10491000700100201401002010010020040200207A
:1049200028000020780000204C00002048000020D3
:1049300000FF7F47DC00002010B5044609480068EE
:10494000002800DD10BD07480460FFF7CDFE30B140
:1049500005480078012802D1204600F037F900BF51
:10496000F0E70000840000204100002070B5674897
:10497000007808B1FEF73AFA65480078012805D1B9
:104980000020FEF72EFC0020614908706148006895
:1049900040F6B831884208DD00205E4908605E4874
:1049A00001785E48007801F0A9FC5D480078012894
:1049B0007ED100205A49087056490860182159488C
:1049C000FBF763FC01F0F2FA5748FDF7C3FB002840
:1049D0006FD05548FFF7E2F854490968884268D11A
:1049E0005148FFF7D2F8012804D04F48FFF7CDF81F
:1049F00002287CD14C48FFF7CDF8012877D14A48EE
:104A0000FFF7B7F84A490968884270D049480068FA
:104A1000401C4849086008460068401C08B900204E
:104A200008604048FDF7D2F8414801683D48FDF76D
:104A30002FF83C48FDF7DAF83B4800793A4A5279BA
:104A400040EA0220384A927940EA0240364AD27956
:104A500040EA02613348FDF723F83348807D32494C
:104A6000C97D40EA01203049097E40EA01402E49D3
:104A7000497E40EA0160304908602B48FFF779F829
:104A80002E49096888420FD02B4890ED000AB8EEF5
:104A9000C00A2B48D0ED000AB4EEE00AF1EE10FA9D
:104AA00002D22048FCF7E2FF182201211D4801E054
:104AB0002BE022E001F0FAFB98B91B48FFF765F8FC
:104AC00004461948FFF755F80546224601211A48C1
:104AD00090ED000AB8EEC00A2846FCF7F9FF11E095
:104AE00005E0FEF7ACFB0020FEF76CFC0AE0154881
:104AF0000068401C1349086004E012480068401C2C
:104B0000104908600420FEF76CFB70BD1401002002
:104B100011010020F400002040000020420000208D
:104B200010010020F00B00200402002028000020CB
:104B30002C000020E4000020EC0000203C000020BD
:104B4000580000200400002010B51A48007808B171
:104B5000FEF74CF918480078012805D10020FEF72F
:104B600040FB0020144908701448007808B3002066
:104B70001249087001F01AFA0020FEF732FB1048C3
:104B8000FDF7E8FAA8B10E48FFF704F8032810D1A2
:104B90000B48FEF7EEFF0B490968884209D0084828
:104BA000FEF7E7FF0446012200219FED070AFCF70C
:104BB0008FFF10BD14010020110100201001002002
:104BC000040200202C00002000FF7F4770B504463F
:104BD00000BF4FF47A7060430B49086001200B4915
:104BE00008608107C86740BF20BF20BF0020084978
:104BF0000860012005494860002502E0FDF782FBBE
:104C00006D1CA542FADB70BD40850040008000406D
:104C1000D001002030B502460B46D40802F007024E
:104C2000012090401D5D284030BD01464FF080407E
:104C3000405808B1012070470020FCE708B5002269
:104C40004FF080410A500958009100BF08BD000094
:104C500001490860704700000803004010B5044691
:104C60004FF47A7104FB01F000F002F810BD00006F
:104C700000B9704700BF00BF00BF00BF00BF00BF4A
:104C800000BF00BF00BF1F4909681F4A914200D101
:104C900030E000BF00BF00BF00BF00BF00BF00BFCB
:104CA00000BF00BF00BF00BF00BF00BF00BF00BF0C
:104CB00000BF00BF00BF00BF00BF00BF00BF00BFFC
:104CC00000BF00BF00BF00BF00BF00BF00BF00BFEC
:104CD00000BF00BF00BF00BF00BF00BF00BF00BFDC
:104CE00000BF00BF00BF00BF00BF00BF00BF00BFCC
:104CF00000BF00BF01460139084600D0BBE700BF36
:104D0000B7E70000F80100200024F40070B50B465E
:104D100001461A46002907DA5407260E104C01F006
:104D20000F052D1F665503E05407250E0D4C6554E5
:104D300000BF00BF00F01F02012191400A4A440950
:104D400042F8241000BF00BF00F01F020121914073
:104D50004209920002F1E022C2F8001100BF70BDCA
:104D600018ED00E000E400E080E200E00146C1F35D
:104D7000073250B270470146C1F3073250B2704754
:104D80002DE9F04706460D46304601F08FF8E0B1B8
:104D90003046FDF7D9F9083822490F5CBC11032CC5
:104DA00008D1304600F033FF08B1032000E00220B4
:104DB000804605E0012C01D1022000E0032080465E
:104DC0004146304600F0E8FE2AE0304601F07AF82D
:104DD00030B33046FDF7B8F90446A00000F5807006
:104DE00087B22046104951F8201041F001020E49C7
:104DF00041F8202000BF384600F046FF7DB1304624
:104E0000FDF7A2F98146FDF757F98046B8F1000F8A
:104E100004D0012101FA04F000F050FF00BF00BFF0
:104E2000BDE8F087640C0020106500402DE9FC47C8
:104E300004460E4617464FF00008204601F028F8B9
:104E400010B14FF0080855E0F27839462046FDF7DA
:104E50003BF90546681C002849D0B07880B100BFF6
:104E600000BF4FF0A042104600F5E06252F8242047
:104E700022F0020100F5E06242F8241000BF0CE0CD
:104E800096F80190002000904B46024601460190A2
:104E9000204600F0FFFD00BF00BFF078D0B13078B1
:104EA000164951F82510164A1140144A42F82510A7
:104EB000114651F825104FF4F85202EA04224FF43B
:104EC000403303EA00431A4311430C4A42F82510C9
:104ED00000BF0EE0A5F108000A49085C317840EAFD
:104EE000811042B2A5F1080006490A5401E04FF0D2
:104EF000040800BF4046BDE8FC8700001065004084
:104F0000FFE0FCFF640C002070B5164890F85400D8
:104F100010B10825284670BD002404E0204600F0AA
:104F2000E1FF601CC4B2202CF8DB002404E0204622
:104F3000FDF7B2F8601CC4B20C2CF8DB0721062088
:104F4000FFF7E4FE4FF4BE7000F09EFE4FF000400D
:104F500000F0B4FE0120034981F8540000252846E2
:104F6000D9E70000140C0020034890F8540008B161
:104F7000012070470020FCE7140C0020014601F0DE
:104F80006040B0F1005F01D1012070470020FCE7D4
:104F90002DE9F04704460D4690462079284901EB5B
:104FA000C006307918B108273846BDE8F087C6F842
:104FB000008029462046FDF7F3F820680121C0F85B
:104FC000001500BF6979AA792B892068C0F80C15F3
:104FD000C0F80425C0F8083500BFA97AEA7A20682D
:104FE00041EA0223C0F8103500BF0021206800F01C
:104FF0009DFE0021206800F075FE4FF48E71206840
:1050000000F069FE4FF48871206800F064FE4FF4F0
:105010008A71206800F05FFE4FF48271206800F012
:105020005AFE306830B12068FFF7A5FE8146297925
:10503000FFF76CFE0120307100273846B5E700000D
:10504000C80100202DE9F05F0446894615461E463A
:1050500020791C4901EBC00A4A460021206800F073
:1050600047FE4A460121206800F042FE05F0010794
:10507000AB4605EBDB7207EB620291B2206800F0F1
:1050800034FE06F0010010B14FF010080AE006F0FF
:10509000020028B10FB1082000E00420804601E0A2
:1050A0004FF000084146206800F040FE0FB10C2090
:1050B00000E008200346F2B25146204601F00EFA05
:1050C000BDE8F09FC801002070B506460D461220CD
:1050D00000F05CFE2B48007C022805D1122000F075
:1050E0005BFE1124204670BD2648007C012823D198
:1050F0002448C06828B1022000F04EFE112420464A
:10510000F1E72048C660058390F82E0070B900BF13
:105110004FF4807000F024FE0028F9D04FF4807026
:1051200000F028FE2946304600F006FE022000F07E
:1051300033FE00242046D6E7022000F02DFE012099
:10514000104908740846466005810020C86008467A
:1051500090F82E0038B10846458390F82D1030465F
:1051600000F0EAFD0AE02946304600F0E5FD4FF484
:10517000807000F0FFFD002000F014FE00242046A7
:10518000B1E70000C40C002070B505460C46354858
:10519000007C10B11126304670BD207910B1207905
:1051A000012805D100BF00202F49086000BF00BFC3
:1051B0002C481C3010F8150030B92A4890F82D0002
:1051C000401C284981F82D00E17926481C3000F860
:1051D0001510217A00EB4500417000BF207800F0E7
:1051E00003006178302202EA01110843A1784FF4EC
:1051F000E06202EA01210843E1784FF4805202EABA
:105200000131084321794FF4E02202EA01410843C9
:1052100061794FF4801202EA01510843A179120129
:1052200002EA016108431049103101EB0511886061
:10523000227AE179284600F087FD00BF227AE179E1
:10524000284600F081FD207910B12079012805D190
:1052500000BF01200449086000BF00BF002630469F
:105260009AE70000C40C00200075004070B50446A9
:105270000E46244890F82C0010B10825284670BD31
:1052800016B907252846FAE704B91F4C1D480660E1
:1052900020781E49086000BF6078091D086000BFC3
:1052A000E078184981F82E00012081F82C000020B8
:1052B000087481F82D00486181F82F006FF00040DC
:1052C00000F064FD4FF4827000F054FD4FF48070E4
:1052D00000F050FDA1780720FFF718FD022000F034
:1052E0005BFD084890F82E0010B1012000F054FD3D
:1052F00000BF01200549F039086000BF002528469D
:10530000BDE70000C40C00200B6D0000F0750040EC
:105310000348007C08B1012070470020FCE7000032
:10532000C40C002010B500240948007C012801D0DD
:1053300008240AE0064890F82E0018B1002000F07A
:1053400031FD02E0042000F02DFD204610BD0000DC
:10535000C40C00202DE9FF4F83B080460C469346D5
:1053600098F8050000EBC000524901EB8006307F41
:1053700028B14FF0080A504607B0BDE8F08FC6F8D4
:1053800000B006987060207B012803DC207800F0D4
:105390001CFC02E0207800F046FC00200090019008
:1053A000207800231A46012100F088FB6078FF284E
:1053B00008D094F80190484600F007FC484600F0F9
:1053C000D3FB01E04FF0FF39A078FF280CD0A7787D
:1053D0000125002000902B460246014601903846E8
:1053E00000F06CFB00BF01E04FF0FF37E078FF28D2
:1053F00005D0E07800F017FCE07800F0B5FBE0782D
:1054000098F8051001EBC1012A4A02EB8101887767
:10541000D8F8005028462178C0F80815C0F80C9537
:105420004FF4A262175000BFA068C5F8240500BF62
:10543000217B627B0AB1012300E00023184631B1D1
:10544000012906D0022907D0032908D000BF00BFD8
:1054500008E040F0020005E040F0040002E040F007
:10546000060000BF00BFC5F8540500BF607998F87A
:10547000051001EBC1010F4A02EB8101C8773068CA
:1054800018B10421284600F09DFC00BF0120C5F89A
:10549000000500BF306820B1217998F90400FFF7BA
:1054A00035FC00207077012030774FF0000A50461D
:1054B00062E700006C0C00202DE9FF4107460C4616
:1054C00015461E46DDF82880009402968DF804509B
:1054D0008DF80C8000226946384600F02FF804B0A1
:1054E000BDE8F08170B50446607900EBC000114959
:1054F00001EB8005286868B194F9040000BF00F052
:105500001F02012191400C4A430942F8231000BFB9
:1055100000BF00BF2668286820B14FF0FF31304639
:1055200000F04DFC00BF0020C6F8000500BF287742
:1055300070BD00006C0C002080E100E02DE9F0411E
:1055400005460E461746687900EBC0001C4901EB82
:1055500080044FF00008607F20B14FF011084046F2
:10556000BDE8F081206820B107F0140008B90120DF
:10557000607796E80E10C4E9053CC4E903121E34B6
:10558000E07820F00100E070E07820F00200E070A8
:10559000E07820F00400E07014F81E09FF2802D023
:1055A000A07F00F012FB27B1002060774FF00608C3
:1055B00004E032462146286800F040FF4046CFE72D
:1055C0006C0C00202DE9F04105460E46174628795F
:1055D0001C4901EB40144FF00008E07E20B14FF071
:1055E00008084046BDE8F081707F207731462846A4
:1055F000FCF776FC676030692060606818B1317F25
:105600002846FEF7CFFB00BF28790E4901EB40107A
:10561000007F28B128680821C0F8001500BF05E008
:1056200028680421C0F8001500BF00BF00BF00209B
:10563000E0752076A0750120E0760020A076404637
:10564000D0E70000900C00202DE9F04704460E46FC
:1056500017462079304901EB4015207901EB4010C5
:10566000007F40B13046FFF789FC20B94FF01008A9
:105670004046BDE8F0874FF00009686880B12079A6
:10568000254901EB4010007F28B14FF404712068D8
:1056900000F0E8FB04E04FF40171206800F0B1FB7A
:1056A000E87DD0B1287EB0B1686880B120791A4910
:1056B00001EB4010007F28B14FF40471206800F026
:1056C000D4FB04E04FF40171206800F09DFB4FF023
:1056D00011084046CDE74FF00109B9F1000F05D19F
:1056E000EF75EE6000206876287601E02E612F7657
:1056F0002079094901EB4010007F30B14B463A4612
:105700003146204600F08AF8B3E74B463A46314628
:10571000204600F01DF8ACE7900C002010B50446C0
:1057200020790A4901EB4010007F68B9207901EB2C
:105730004010807E40B9204600F026FD01202179EE
:10574000024A02EB4111887610BD0000900C002047
:105750002DE9F05F04468B46994620792E4901EBEE
:105760004015A87E28B9B9F1000F02D1204600F0FB
:105770000BFD6868002846D14FF4A271206800F044
:1057800034FB00BF00BF4FF49271206800F026FB8D
:1057900080464FF48471206800F020FB82464FF46D
:1057A000A271206800F01AFB0646BAF1000F03D17F
:1057B00016B9B8F1000FE6D0B8F1000F00D106B16C
:1057C00007E02946206800F0B1FCE87D697E884248
:1057D000D8DC00BF0020E875B8F1000F03D0032724
:1057E0003846BDE8F09F16B10F273846F9E7A87E86
:1057F00020B10021206800F013FB03E004212068A1
:1058000000F00EFB04E04FF40171206800F0FCFA98
:1058100000273846E5E70000900C00202DE9F05FF6
:1058200004460D46164699464FF0000A4FF488711B
:10583000206800F00AFB4FF4A271206800F005FB1D
:105840002068C0F834554FF4A7610E5000BFB9F17D
:10585000000F04D10021206800F00FFB08E0202198
:105860002068D0F800220A43C0F8002200BF00BF21
:1058700020791B4901EB4010406848BB00BF4FF442
:105880008871206800F0DAFA83464FF4A27120682C
:1058900000F0D4FA80464FF49271206800F0CEFAFE
:1058A0000746BBF1000F04D1B8F1000F01D1002F62
:1058B000E5D0002021790A4A02EB4111C8750FB1E9
:1058C0004FF0030AB8F1000F01D04FF00F0A04E0C7
:1058D0004FF40471206800F0C8FA5046BDE8F09F0C
:1058E000900C00202DE9F04104460D4690462079A9
:1058F000144901EB4016207901EB4010007F38B1CC
:105900002846FFF73BFB18B910273846BDE8F08161
:10591000204600F09DF810B111273846F6E786F8CA
:105920001680B5600020B0822079064901EB401056
:10593000007F18B1204600F04DF8E7E7204600F060
:1059400003F8E3E7900C002070B504462079204965
:1059500001EB401500264FF48E71206800F045FAE7
:105960000821206800F05CFA2946206800F070FFEA
:10597000686858BB12E000BF4FF48E71206800F0D9
:105980002DFA18B9A88AB0F5807FF5D1A88AB0F5AC
:10599000807F03D02946206800F05AFFA88AA97D9D
:1059A0008842E8DBA88AB0F5807F01D10F260BE0A2
:1059B00000BF4FF48E71206800F010FA0028F8D074
:1059C0000C21206800F02CFA0020A875304670BD2C
:1059D000900C00202DE9F041044620791B4901EB91
:1059E00040154FF000084FF49071206800F02DFA38
:1059F0004FF4AC71206800F028FA2068AA7DA968ED
:105A0000C0F844154FF4A9631A5000BF082120685C
:105A100000F033FA6868A8B900BF4FF490712068AD
:105A200000F00CFA07464FF4AC71206800F006FA5B
:105A300006460FB9002EF0D00EB14FF00F0800202F
:105A4000A87500BF4046BDE8F0810000900C002022
:105A500001460879044A02EB4010807D08B101201C
:105A600070470020FCE70000900C0020F0B5DDE955
:105A7000054500BF4FF0A0473E4641EA420747EACE
:105A8000830747EA042747EA054C06F5E06747F82D
:105A900020C0F0BDF0B5DDE9054500BF4FF0A047DF
:105AA0003E4641EA420747EA830747EA042747EAB6
:105AB000054C06F5E06747F820C0F0BDF0B5DDE91C
:105AC000054500BF4FF0A0473E4641EA420747EA7E
:105AD000830747EA042747EA054C06F5E06747F8DD
